:08007900010204081020408080
:1000030043BA80759330759430759130759230751D
:10001300953C75963C75B15075B25075B33C75B44B
:100023003C75C90C75CA0CE4F5CB75CCFFF5E1F54D
:10003300E2C2C0F508E50890007993F4F5E80508F5
:10004300D3E5089407748094804003E4F5087FFAAD
:0A00530012005D7FFA12005D80DBF1
:0F005D007D607C09ED1D70011C144C70F7DFF104
:01006C002271
:0300000002006D8E
:0C006D00787FE4F6D8FD758108020003DE
:00000001FF
