:1000030000000000000000000000000000000404E5
:1000130004040404000004000014140A0000000097
:1000230000000000000024243F2412123F1212009B
:1000330000081C2A0A0C18282A2A1C08000012157A
:100043000D0D162C2C2A12000000040A0A06321584
:1000530015493600000604020000000000000000FD
:1000630000201010080808080810102000020404DB
:100073000808080808040402000000082A1C1C2AB7
:10008300080000000000000808087F0808080000B6
:100093000000000000000000000604020000000051
:1000A30000003F000000000000000000000000000E
:1000B30000060600002010100808040404020201D0
:1000C30000001C222222222222221C000000080CF3
:1000D3000808080808081C0000001C222220100839
:1000E30004223E0000001C222020182020221C0095
:1000F30000001010181414123E10380000003E02C5
:10010300021E222022221C0000001824021A26228A
:1001130022221C0000003E221010100808080800CC
:1001230000001C2222221C2222221C0000001C226E
:100133002222322C20120C000000000000040000D8
:100143000000040000000000000800000000080890
:100153000000201008040204081020000000000022
:10016300003F003F000000000000020408102010C0
:100173000804020000001C222220100808000800C6
:1001830000003C425955555539423C0000000808CF
:100193001414141C2222770000001F2222221E2284
:1001A30022221F0000003C220101010101221C0048
:1001B30000000F122222222222120F0000003F22EF
:1001C30002121E1202223F0000003F2202121E12E0
:1001D3000202070000001C120101013911120C0078
:1001E3000000772222223E222222770000003E08CE
:1001F3000808080808083E0000003E080808080828
:1002030008080809000037120A060E0A12123700FE
:10021300000007020202020202223F0000007736BA
:1002230036362A2A2A2A6B0000007726262A2A2A0B
:100233003232270000000C122121212121120C004F
:1002430000001F2222221E020202070000000C12DD
:10025300212121212D121C3000001F22221E0A12EF
:100263001222670000003C220204182020221E00F4
:1002730000003E2A0808080808081C00000077222E
:100283002222222222221C0000007722221414148C
:100293001408080000006B2A2A2A2A3614141400B2
:1002A30000003312120C0C0C1212330000007722E0
:1002B3001414080808081C0000003E12100808085F
:1002C30004243E000038080808080808080808380D
:1002D300000002020404080810102020000E080881
:1002E300080808080808080E0814000000000000A9
:1002F30000000000000000000000000000000000FB
:1003030006080000000000000000000000000000DC
:10031300001C223824227C0000000302021E222239
:1003230022221E0000000000003C220202221C00C8
:1003330000003020203C222222227C00000000000A
:10034300001C223E02221C0000001824041F040487
:1003530004041E0000000000003C12120C021C22C8
:1003630000000302021A262222227700000008005E
:10037300000E080808083E0000001000001C1010C2
:100383001010101000000302023A120A0E12370076
:1003930000000E080808080808083E0000000000D6
:1003A300001F2A2A2A2A6B0000000000001B2622B5
:1003B3002222770000000000001C222222221C00BF
:1003C30000000000001F222222221E020000000063
:1003D300003C222222223C200000000000360C04B4
:1003E30004041E0000000000003C220C10221E002A
:1003F30000000004041F040404241800000000008B
:100403000033222222326C0000000000006322220B
:100413001414080000000000006B2A2A2A14140098
:10042300000000000037120C0C123B00000000001B
:10043300007722141408080800000000003E120888
:1004430008243E0000301010101008101010103057
:10045300080808080808080808080808000604042B
:1004630004040804040404062C1200000000000025
:100473000000000000000000000000000000000079
:100483000000000000000000000000000000000069
:100493000000000808080808080800000808000011
:1004A30000482424120000000000000000000000A7
:1004B3000000004848487E2424247E24242400008D
:1004C3000000103C5252121C30505052523C10103B
:1004D300000000222515150D2A58545452220000FD
:1004E3000000000C1212120A76252919916E0000E1
:1004F30000060404020000000000000000000000E9
:1005030000402010100808080808081010204000B8
:10051300000204080810101010101008080402004C
:100523000000000008086B1C1C6B0808000000009A
:100533000000000000101010FE101010000000005A
:100543000000000000000000000000000604040298
:1005530000000000000000007E000000000000001A
:10056300000000000000000000000000060600007C
:100573000000402020201010080808040402020094
:100583000000001824424242424242422418000022
:10059300000000101C10101010101010107C000030
:1005A3000000003C4242424020100804427E00000A
:1005B3000000003C4242402018204042423C0000E0
:1005C30000000020303028242422FE2020F80000E0
:1005D3000000007E0202021E22404042221C000054
:1005E300000000182402023A464242424438000006
:1005F3000000007E422020101008080808080000B0
:100603000000003C4242422418244242423C000083
:100613000000001C22424242625C40402418000059
:100623000000000000001818000000001818000067
:100633000000000000000008000000000008080897
:1006430000000040201008040204081020400000AD
:100653000000000000007E00007E0000000000009B
:1006630000000002040810204020100804020000CB
:100673000000003C424246201010100018180000F1
:100683000000001C225A55555555553A423C00006E
:100693000000000808181414243C224242E700001A
:1006A3000000001F2222221E22424242221F00007B
:1006B3000000007C4242010101010142221C0000B2
:1006C3000000001F2242424242424242221F0000D7
:1006D3000000003F4212121E12120242423F00006B
:1006E3000000003F4212121E121202020207000013
:1006F3000000003C2222010101712122221C000082
:10070300000000E7424242427E42424242E700008A
:100713000000003E0808080808080808083E000012
:100723000000007C10101010101010101010110F8A
:100733000000007722120A0E0A121222227700000A
:10074300000000070202020202020202427F0000CE
:100753000000007736363636362A2A2A2A6B0000FE
:10076300000000E346464A4A525252626247000082
:100773000000001C2241414141414141221C000033
:100783000000003F424242423E02020202070000D2
:100793000000001C224141414141414D321C600097
:1007A3000000003F4242423E1212222242C7000092
:1007B3000000007C4242020418204042423E0000F6
:1007C3000000007F4908080808080808081C000002
:1007D300000000E74242424242424242423C0000A1
:1007E300000000E7424222242414141808080000E1
:1007F3000000006B2A2A2A2A2A3614141414000033
:10080300000000E7422424181818242442E70000BB
:10081300000000772222141408080808081C0000AE
:100823000000007E2120101008040442423F000013
:100833000078080808080808080808080808780065
:10084300000002040404080808101020202040407F
:10085300001E1010101010101010101010101E0099
:100863000018240000000000000000000000000049
:10087300000000000000000000000000000000FF76
:100883000006080000000000000000000000000057
:10089300000000000000001C22302C22326C0000FB
:1008A300000000000302021A26424242261A0000F8
:1008B3000000000000000038440202024438000037
:1008C300000000006040407C4242424262DC000083
:1008D300000000000000003C42427E02423C000057
:1008E300000000003048083E08080808083E0000E1
:1008F300000000000000007C22221C023C42423C1B
:10090300000000000302023A4642424242E700006E
:100913000000000C0C00000E08080808083E000048
:100923000000003030000038202020202020221E2C
:100933000000000003020272120A0E122277000066
:10094300000000080E08080808080808083E000010
:10095300000000000000007F9292929292B7000084
:10096300000000000000003B4642424242E7000014
:10097300000000000000003C42424242423C0000B2
:10098300000000000000001B26424242261A020714
:10099300000000000000005864424242645840E0F6
:1009A30000000000000000774C040404041F000052
:1009B300000000000000007C42023C40423E000078
:1009C300000000000008083E08080808483000003E
:1009D30000000000000000634242424262DC00006B
:1009E3000000000000000077222214140808000011
:1009F30000000000000000DB91525A2A242400006A
:100A0300000000000000006E24181818247600006F
:100A130000000000000000E742242418180808061C
:100A2300000000000000007E22100808447E000041
:100A330000C0202020202020102020202020C000C3
:100A430010101010101010101010101010101010A3
:100A53000003040404040404080404040404030059
:100A6300045A200000000000000000000000000005
:100A73000000000000000000000000000000000073
:100A8300000027FC140414A48110420840401040C5
:100A930017FC2040E0E0215022482C462040004033
:100AA300C9EE11041124112411241124FD2411244D
:100AB30011241124112411241D24E12442240204AD
:100AC3000404DBDA00007FFC400440045FF44104CB
:100AD30041044FE44104414441245FF44004400491
:100AE3007FFC4004B9FA08200820FFFE08200820F4
:100AF300020001000080040824042402440284103C
:100B0300041003F00000D0BE010001000100010049
:100B130001000100028002800440044008200820F4
:100B23001010200840048002C8CB000000007FFCA6
:100B330001000100010001000100010001000100AA
:100B430001000100FFFE00000000B9A420003E7C6C
:100B530048440844FF441444227C40001FF0101012
:100B630010101FF0101010101FF01010D6C71040F7
:100B730024444248FF70014000427E42423E42000C
:100B83007E44424842707E4042424A42443EC4DC74
:100B930008101D10F09010901010FD101090389058
:100BA3003410501E53F0901010101010101010102D
:100BB300BFC610201020102013FEFC201020102090
:100BC30015FC18843088D0481050102010505188DC
:100BD3002606BCBC02000200FFFE040004000FF066
:100BE300081018102FF0481088100FF00810081084
:100BF30008500820D3D000007BF84A08520853F865
:100C0300620852084BF84A444A486A30522042105C
:100C1300428843064200CFDE0080048004800840FF
:100C230008401020201042088206040004400820D7
:100C330010203FF010100000B9AB00003FF800088F
:100C430000087FE8000800081F88108810881088B3
:100C530010881F88108800280010CBBE02000100F6
:100C63007FFE4002820402007FFC040004800880AF
:100C730009001100222044108FF80408BAEA0FE09B
:100C8300082008200FE0082008200FE000007EFC69
:100C9300428442847EFC428442847EFC4284BEA71A
:100CA30000800080FC8004FC050449082A401440AD
:100CB300104028A024A04510811002080404080253
:100CC300BBB600002080133C122402240224F22429
:100CD3001224122412B4132812201020282047FEB5
:100CE3000000D3AD0900090011FC320454489950A7
:100CF300114812441444114010800200510451124F
:100D030090120FF0C4FA10401040204023FC4840DA
:100D1300FA48124822484248FBF84048004018422B
:100D2300E042403E0000B4BF080008001FE020205E
:100D33004040BFF82108210821083FF82000200285
:100D4300200220021FFE0000C9AB2040204027FCE8
:100D5300204023F8FA0823F8220823F8220823F86E
:100D63003A08EFFE411002080404CCEE0200010031
:100D7300FFFE04000400082010103FF8044804405C
:100D830004400440084408441044603CB3E4200099
:100D930021FE3D005100910011FC1104FF041104D8
:100DA300110411FC29002500450041FE8000BED836
:100DB30000007F8412041208121012221202FFC4D0
:100DC3001208121012221202220422084210826018
:100DD300D0CE0000FFFE000000004FE44924492468
:100DE3004FE44924492449244FE4400440047FFC50
:100DF3000004BBAD00007FFC40044FE448244FE4F3
:100E030040045FF450145114511452944444482440
:100E13007FFC4004D4B2000000007FFC000000000F
:100E2300000000003FF80000000000000000000088
:100E3300FFFE00000000C800080008001FE020209B
:100E43004040BFF8210821083FF8210821083FF856
:100E53002108410841288010BDC700007FFC4204DF
:100E6300420447E44C445284410446C4783C43045E
:100E73004084460441847FFC4004CDBC00401040C4
:100E83001040104010401FFC1000100010001FE025
:100E9300102010201020202020204020C6AC00006D
:100EA3001FF0101010101FF0101010101FF004404E
:100EB30044442444144814500440FFFE0000CFD49B
:100EC30000003FF80000000000000000FFFE0100EA
:100ED30001001110110821044102810205000200E2
:100EE300CABE08200820FFFE0820001000F83F00BB
:100EF3001110082001007FFC054009203118C106AC
:100F03000100B2CB1010082004403FF8210821084B
:100F13003FF8210821083FF801000100FFFE01000E
:100F230001000100B5A501000100010001003FF827
:100F3300210821082108210821083FF82108010080
:100F4300010001000100D6D008200820FFFE082080
:100F5300010001001FF0111011101110FFFE02809B
:100F6300044008203018C006D3A20200010001008B
:100F7300FFFE10101010082008200440028001001A
:100F83000280044008203018C006CEC41040102050
:100F930023FE22024800F9FC1000200043FEF82043
:100FA300412801241A22E42240A00040D7DB01009B
:100FB30001000280044008203018CFE60000000042
:100FC3001FF010101010101010101FF01010BACFD7
:100FD300020001007FFC00001FF010101FF0000052
:100FE3007FFE40028FE40820082010222022C01E2A
:100FF300C1C1010000803FFE222022203FFC2220AD
:10100300222023E020002FF02410422041C086300C
:10101300380EB6C8000427C41444145485544554E8
:101023004554155415542554E5542104228422446F
:1010330024140808B2E2002820241024102007FEFC
:101043000020F02017E0112011101110151019CAFB
:10105300170A02060002CAD408001DFCF104110499
:101063001104FDFC1000300039FE5420542091FC83
:101073001020102013FE1000B3CC010000803FFEAF
:10108300200023F8201020A020402FFE20422044DF
:1010930020404040404081400080D0F2000047FCA7
:1010A3002444244405F40444E44427FC240425F4A0
:1010B30025142D1435F4240404140808B5F701008D
:1010C30021081108091009200100FFFE0440044013
:1010D30004400440084208421042203EC000B9E2E6
:1010E3000808481C49E0490049007DFC414441444B
:1010F300794449284928491049104A284A448C828E
:10110300B0E6100013FC11041104FD0410883088AC
:1011130038885450545090201020105010881104D7
:101123001602C8A80208071C38E0208020803E80F1
:1011330022FE228822883E88208820884108410890
:1011430082080408CBF902000200FFFE0400040039
:101153000FF0081018102FF0481088100FF0081027
:10116300081008500820D3D000003FF820082008BA
:101173003FF8241022202FF8222022203FFC222097
:101183004220442084200820C6C104407FFC044040
:101193001FF010101FF010101FF00400FFFE1110BD
:1011A3003FF8D116115011200100C4BB20801080DC
:1011B30010FE0100FE0021FC20243C2424A024A0D6
:1011C30024BC24A024A04560553E8A00D0002020E2
:1011D30020202020FDFC4020504093FEFC40108046
:1011E30011FC1C04F0885050102010101010D7AAC6
:1011F3000040004000400040FFFE0040004000402F
:10120300104008400840004000400040014000807A
:10121300B4E70020202011FC1020002003FEF00280
:10122300109410501110109013FE142818441082BB
:101233000302B6C104000E007800087C0844FF4492
:10124300084418441C442A442A444844887C0844DB
:1012530008000800BACD100008FE7F102220147C7D
:101263007F4444544854525444544854515442289B
:10127300442488423082D1D5084008400FFC1040F6
:10128300104033F8320853F8920813F8120813F891
:10129300120812081FFE1000D6B50000000000005F
:1012A3001800000CFFFC06C00C00C00C00C8CC00EA
:1012B30018607030303860180CC31000030000034E
:1012C3000000FFFE040F80061BC00C1BC00C336024
:1012D30018733018E31839C30C318304100300006A
:1012E3000000C9EE0000000000000C300C0C300CB4
:1012F3000C31880C31880C31880C31887FB1880C13
:1013030031880C31880C31880C31880C31880C31D0
:10131300880C31880F31887C61886061880061881E
:1013230000C00801800C000000000000DBDA0000B0
:10133300000000003FFFFC3FFFFC30000C30000CBE
:1013430033FFCC33FFCC30180C30180C30180C3171
:10135300FF8C30180C30190C301B8C30190C3018E2
:101363000C33FFCC30000C30000C30000C3FFFFC82
:1013730030000C000000B9FA000000000180018178
:10138300800181804181807FFFFE01818001818016
:10139300018180018000001800001C00118C2019BD
:1013A3008E3019863819801819800C31800E3180DF
:1013B300003180600180C001FFC0003F00000000D9
:1013C300D0BE00000000180000180000180000182C
:1013D300000018001FFFF81FFFF818181818181836
:1013E3001818181818181818181FFFF81FFFF818DE
:1013F3001818001800001800001800001800001842
:1014030000001800001800000000D6D00000000003
:1014130020000060000030000038000018007FFF4B
:10142300FE7FFFFE03018003018003018001018031
:1014330001830001830000C600006E00007C0000F1
:101443003800007C0000E7000383E03F00FE3C001F
:101453003C000000CEC400000000000010000C3966
:10146300FE0C1DFE0C01866C01864C01B64C21B6A8
:101473004C31B64C1DB64C09B64C01B64C01B64CBA
:101483000DB64C0DB64C08206C18686C307C0C30D3
:10149300CE0C70C60C61833C010238000000B2E23E
:1014A3000000000000001001B038019818019C0CE6
:1014B300018800018001FFFC0001807C01807C0128
:1014C300800CFD800CFD800C30800C30C00C30C0D3
:1014D3000C30C00DB0C00F36640E3E661CF03608EB
:1014E300803C00001C000000CAD400000000000083
:1014F300000000000000000380000001C0000000A5
:10150300C00000001F800083F1C001FC01E00180E6
:1015130003C0038002000301F000033E38000018FB
:101523007000000060000001C000000180F00000B6
:10153300FFF8007FF8001FF0C0000C00400000001F
:101543006000000060000000600000006000000018
:1015530060000000E0000018C0000007C0000003A6
:10156300C0000001800000000000D7D6000000008A
:101573000000000000000000000060000060700038
:10158300007030000060300000E0200000C0200048
:1015930000C021C001803FE00107FC00030F700081
:1015A3000680E8000480E8000C81A4001881220072
:1015B3002083230040862180008421C000882CE002
:1015C3000090FE7801A1E03E01C0200001802000D0
:1015D3000180200001806000010060000000200005
:1015E300000020000000000000000000CCE5000027
:1015F3000000000000000000000000000060000088
:1016030000300000C0300317E030039860300190D1
:101613006030001264300013663000136630181314
:1016230062300C1262300C9262300112623001128D
:1016330062300232663002366630061642300C07DC
:1016430040301C04C0301C0CE030181870300830D7
:101653003030004001F0018000F000000060000025
:101663000060000000000000000000000000B2E283
:101673000000000000000000000000000000400027
:101683000000700001C0700000F033C0007031C072
:10169300000030C000003000000010000000100007
:1016A30000001F0001C0FC000FC79800398008002C
:1016B3000180080001806C000183C400018784005D
:1016C30001818600010182000111930403E1E18499
:1016D30003CF0184071C00CC0200007C0000003C07
:1016E3000000001C0000000C0000000000000000CF
:0216F300CAD457
:10756F00900057FEE0FCA3E0FD900056E02DFD904B
:0D757F000055E03CFC90005BE0FAA3E0FB4F
:10758C0090005DEAF0A3EBF012770790005DE0FE4F
:06759C00A3E0FF0277FAF4
:1064AD009000BCE0FCA3E0FD9000BAE0FAA3E0FB95
:1064BD00A3E0FFA3E090000ECFF0A3EFF090010F4B
:1064CD00E0FFA3E0900010CFF0A3EFF09000B8E054
:0464DD00FEA3E0FF3B
:0E64E100900008EEF0A3EFF0A3ECF0A3EDF0B6
:1064EF00900008E0FEA3E0FFC3EB9FFFEA9ECF24DE
:1064FF0001CF3400900016F0A3EFF090000AE0FEF9
:10650F00A3E0FFC390000FE09FFF90000EE09ECF2F
:10651F002401CF3400900018F0A3EFF090000AE0B0
:10652F00FCA3E0FD90000EE0FFA3E0900065CFF02C
:10653F00A3EFF0900008E0FEA3E0FF127074E49068
:10654F000012F0A3F0900018E0FEA3E0FFC390004C
:10655F0013E09F900012E09E5047E4900014F0A3C8
:10656F00F0900016E0FEA3E0FFC3900015E09F90AF
:10657F000014E09E501B900010E0FEA3E0FF127786
:10658F00FA900015E004F070D8900014E004F08049
:10659F00D0900013E004F070AC900012E004F08093
:1065AF00A4900114E024FFFB900113E034FFFA9054
:1065BF000116E024FFFE900115E034FF900065F016
:0B65CF00A3CEF0E4FDFCFFFE027074A0
:0E57BB00900041EEF0A3EFF0A3ECF0A3EDF0B0
:1057C900E490004BF0A3F0A3F0A3F0900041E0FEB9
:1057D900A3E0FFC3EB9FFFEA9E90004FF0A3EFF019
:1057E900900043E0FAA3E0FBC3900048E09BFE90E1
:1057F9000047E09A900051F0A3CEF0900041E0FFFD
:10580900A3E0900059CFF0A3EFF0A3EAF0A3EBF0E7
:1058190090004FE0FEA3E0FFD39400EE64809480F3
:10582900400A900055E4F0A304F08021EF4E70087F
:10583900900055F0A3F0801574FF900055F0A3F087
:10584900C3E49FFFE49E90004FF0A3EFF090005156
:10585900E0FEA3E0FFD39400EE64809480400A90B8
:105869000057E4F0A304F08021EF4E700890005730
:10587900F0A3F0801574FF900057F0A3F0C3E49FE4
:10588900FFE49E900051F0A3EFF0900051E0FEA3D9
:10589900E0FF90004FE0FCA3E0FDD39FEE6480F8A9
:1058A900EC6480989000534007ECF0A3EDF080057C
:1058B900EEF0A3EFF0E4900049F0A3F0900054E07B
:1058C9002401FF900053E03400FED390004AE09F8A
:1058D900900049E09E40030259A5900059E0FEA3BB
:1058E900E0FFA3E0FCA3E0FD12760090004FE0FE8C
:1058F900A3E0FF90004CE02FF090004BE03EF090C9
:105909000051E0FEA3E0FF90004EE02FF090004D23
:10591900E03EF0900053E0FEA3E0FF90004BE0FC76
:10592900A3E0FDD39FEE6480F8EC6480984020EDFD
:105939009FFFEC9E90004BF0A3EFF0900055E0FE26
:10594900A3E0FF90005AE02FF0900059E03EF0905C
:105959000053E0FEA3E0FF90004DE0FCA3E0FDD37F
:105969009FEE6480F8EC6480984020ED9FFFEC9EE8
:1059790090004DF0A3EFF0900057E0FEA3E0FF90F8
:10598900005CE02FF090005BE03EF090004AE004FC
:0C599900F07006900049E004F00258C5D0
:0159A50022DF
:106D820090014DEAF0A3EBF0900149EEF0A3EFF091
:106D9200A3ECF0A3EDF0C007A3E0FAA3E0FB90019F
:106DA2004BE0FFA3E0900047CFF0A3EFF0D0071233
:106DB20057BB900149E0FAA3E0FBFFAE02C007A374
:106DC200E0FCA3E0FD90014FE0FFA3E0900047CF7D
:106DD200F0A3EFF0D0071257BB90014FE0FCA3E005
:106DE200FD90014DE0FAA3E0FBA3E0FFA3E09000D9
:106DF20047CFF0A3EFF0900149E0FEA3E0FF125766
:106E0200BB90014DE0FAA3E0FBFFAE02C007900188
:106E12004BE0FCA3E0FD90014FE0FFA3E0900047B0
:0A6E2200CFF0A3EFF0D0070257BB3A
:1076A100C007900157E0FFA3E090000ECFF0A3EFD9
:1076B100F090010FE0FFA3E0900010CFF0A3EFF0F6
:0576C100D0070264E1A6
:10623F00900059F0A3EFF0900045E0FFA3E090002D
:0E624F005BCFF0A3EFF0900041E0FEA3E0FF74
:10625D00900055ECF0A3EDF0900053EEF0A3EFF0AD
:10626D00900057EAF0A3EBF02FFFEE3AA3127572F0
:10627D00900057E0FEA3E0FFC3900054E09FFF9015
:10628D000053E09EFE900059127573900057E0FE8A
:10629D00A3E0FF900054E02FFF900053E03EFE90EE
:1062AD000059E0FCA3E0FDC3900056E09DFD900079
:1062BD0055E09C127583900057E0FEA3E0FFC3905C
:1062CD000054E09FFF900053E09EFE900059E0FCCB
:1062DD00A3E0FDC3900056E09DFD900055E09C129B
:1062ED007583900059E0FEA3E0FF900054E02FFF6E
:1062FD00900053E03E12756F900059E0FEA3E0FF51
:10630D00C3900054E09FFF900053E09E12756F9074
:10631D000059E0FEA3E0FF900054E02FFF900053E2
:10632D00E03EFE900057E0FCA3E0FDC3900056E078
:10633D009DFD900055E09C127583900059E0FEA3E1
:10634D00E0FFC3900054E09FFF900053E09EFE904D
:10635D000057E0FCA3E0FDC3900056E09DFD9000CA
:0F636D0055E09CFC90005BE0FAA3E0FB02758C0E
:1055C500900041EEF0A3EFF0A3ECF0A3EDF0A3EA19
:0455D500F0A3EBF064
:1055D900E490004BF0A3F0900047E0FEA3E0FF90B9
:1055E900004DEEF0A3EFF025E0FFEE33FEC37403A8
:1055F9009F900052F0E49E900051F0900049E070B5
:1056090002A3E0700302570890004DE0FEA3E0FFFB
:1056190090004BE0FCA3E0FDD39FEE6480F8EC64BE
:10562900809840030257BA90004FECF0A3EDF09038
:10563900004DE0FEA3E0FFD3900050E09FEE6480B0
:10564900F890004FE0648098502B900043E0FCA351
:10565900E0FD90004BE0FAA3E0FB90004FE0FFA3D0
:10566900E0CF12623F900050E004F070C290004F0A
:10567900E004F080BA900051E0FCA3E0FDC3EC64C3
:10568900809480502390004BE0FEA3E07802C3335E
:10569900CE33CED8F92DFFEC3ECF2406CF3400907F
:1056A9000051F0A3EFF0804390004DE0FEA3E0FF2E
:1056B900C390004CE09FFF90004BE09EFEEF780204
:1056C900C333CE33CED8F9FF900052E02FFF9000BC
:1056D90051E03ECF240ACF3400F0A3EFF090004E02
:1056E900E024FFF090004DE034FFF090004CE0041E
:1056F900F0600302561190004BE004F0025611903D
:10570900004DE0FEA3E0FF90004BE0FAA3E0FBD3DD
:105719009FEE6480F8EA64809840030257BA9000CB
:1057290043E0FCA3E0FDEE12623F900051E0FCA3D0
:10573900E0FDC3EC64809480502390004BE0FEA30D
:10574900E07802C333CE33CED8F92DFFEC3ECF2417
:1057590006CF3400900051F0A3EFF0804390004D44
:10576900E0FEA3E0FFC390004CE09FFF90004BE0F8
:105779009EFEEF7802C333CE33CED8F9FF900052A4
:10578900E02FFF900051E03ECF240ACF3400F0A370
:10579900EFF090004EE024FFF090004DE034FFF070
:1057A90090004CE004F0700690004BE004F00257C2
:0157B90008E7
:0157BA0022CC
:10716A00900132EEF0A3EFF0A3ECF0A3EDF0A3EA66
:10717A00F0A3EBF0C007A3E0FFA3E0900047CFF035
:10718A00A3EFF0D0071257BB900138E0FCA3E0FD53
:10719A00A3E0FAA3E0FBA3E0FFA3E0900047CFF04F
:1071AA00A3EFF0900136E0FEA3E0FF1257BB900177
:1071BA003CE0FCA3E0FD900132E0FAA3E0FBA3E08F
:1071CA00FFA3E0900047CFF0A3EFF090013AE0FE72
:0671DA00A3E0FF0257BB19
:107380009001637401F0A37400F0A374B2F07B0168
:047390007A0079AE58
:0B739400900160EBF0A3EAF0A3E9F029
:10739F001237D9FFAEF0900163E0FBA3E0FAA3E050
:1073AF00F91237D9FD900160E0FBA3E0FAA3E0F9F1
:1073BF00E5F08DF0123804900163E0FBA3E0FAA32F
:0873CF00E0F9EE8FF002380432
:1039EE009000ACEEF0A3EFF0A3ECF0A3EDF0A3EAA1
:0439FE00F0A3EBF057
:103A02009000CC12396B000000009000D012396B8C
:103A1200000000009000B2E0FEA3E0FF9000AEE0E4
:103A2200FCA3E0D39FEC9E401A1273809001637452
:103A320001F0A37400F0A374B0F07B017A0079ACBA
:103A42001273949000B6E0FEA3E0FF9000B2E0FC97
:103A5200A3E0D39FEC9E402E9001637401F0A37407
:103A620000F0A374B2F07B017A0079B612739490DD
:103A720001637401F0A37400F0A374B0F07B017AC7
:103A82000079B41273949000B2E0FEA3E0FF9000BC
:103A9200AEE0FCA3E0D39FEC9E401A12738090012B
:103AA200637401F0A37400F0A374B0F07B017A0098
:103AB20079AC1273949000B6E0FEA3E0FF9000AEE2
:103AC200E0FCA3E0FD6F7002EC6E6003023B969097
:103AD20000ACE0FEA3E0FF9000BAEEF0A3EFF0909E
:103AE20000B8EEF0A3EFF09000B8E0FEA3E0FF9084
:103AF20000B0E0FAA3E0FBC39FEA9E500A9000B830
:103B0200EAF0A3EBF0801E9000BAE0FEA3E0FFD340
:103B1200EB9FEA9E400F9000B0E0FFA3E09000BA56
:103B2200CFF0A3EFF09000B8E0FEA3E0FF9000B466
:103B3200E0FAA3E0FBC39FEA9E500A9000B8EAF0C5
:103B4200A3EBF0801E9000BAE0FEA3E0FFD3EB9F50
:103B5200EA9E400F9000B4E0FFA3E09000BACFF0DD
:103B6200A3EFF09000BAE0FAA3E0FB9000AEE0FF12
:103B7200A3E090000ECFF0A3EFF090010FE0FFA3BF
:103B8200E0900010CFF0A3EFF09000B8E0FEA3E0C9
:103B9200FF0264E19000ACE0FAA3E0FB9000B0E029
:103BA200FEA3E0C39BFFEE9A9000C0F0A3EFF0905B
:103BB20000AEE0FEA3E0FF9000B2E0FCA3E0C39FF2
:103BC200FFEC9E9000C2F0A3EFF09000B4E0FEA3E1
:103BD200E0C39BFFEE9A9000C4F0A3EFF09000AE1A
:103BE200E0FEA3E0FF9000B6E0FCA3E0C39FFFEC81
:103BF2009E9000C6F0A3EFF09000B0E0FEA3E0FFBD
:103C02009000B4E0FCA3E0C39FFFEC9E9000C8F0DC
:103C1200A3EFF09000B2E0FAA3E0FB9000B6E0FC64
:103C2200A3E0FDC39BFEEC9A9000CAF0A3CEF0EB9A
:103C3200B50510EAB5040C9000B2FFA3E09000BEF7
:103C4200CF80109000B2E0FEA3E024FFFFEE34FF2D
:103C52009000BEF0A3EFF09000AEE0FFA3E0900072
:103C6200BCCFF0A3EFF09000BEE0FEA3E0FF900017
:103C7200BCE0FCA3E0D39FEC9E4003023D82900097
:103C8200C2E0FEA3E0FBAA06EA3395E0F9F8900051
:103C9200CCE0FCA3E0FDA3E0FEA3E0FF1274B4902D
:103CA20000ACE0FCA3E02FFFEC3E9000B8F0A3EFE5
:103CB200F09000C6E0FEA3E0FBAA06EA3395E0F925
:103CC200F89000D0E0FCA3E0FDA3E0FEA3E0FF1229
:103CD20074B49000ACE0FCA3E02FFFEC3E9000BA7D
:103CE200F0A3EFF09000CCE0F8A3E0F9A3E0FAA390
:103CF200E0FB9000C0E0FEA3E0FFEE3395E0FDFCA8
:103D0200EB2FFFEA3EFEE93DFDE83CFC9000CC12C1
:103D1200395F9000D0E0F8A3E0F9A3E0FAA3E0FB5A
:103D22009000C4E0FEA3E0FFEE3395E0FDFCEB2F34
:103D3200FFEA3EFEE93DFDE83CFC9000D012395F0F
:103D42009000BAE0FEA3E0FF9000B8E0FCA3E0D34D
:103D52009FEC9E40179001637401F0A37400F0A3DE
:103D620074BAF07B017A0079B81273941264AD9040
:103D720000BDE004F070069000BCE004F0023C6874
:103D82009000B2E0FEA3E0FF9000BCE0FAA3E0FBEB
:103D9200C39FFFEA9EFE9000C8E0FCA3E0FD12373D
:103DA20046E4FCFD9000CC12395F9000AEE0FEA329
:103DB200E0FFC3EB9FFFEA9EFE9000C4E0FCA3E09D
:103DC200FD123746E4FCFD9000D012395F9000B638
:103DD200E0FEA3E0FF9000BCE0FCA3E0D39FEC9EDA
:103DE2004003023EE79000CAE0FEA3E0FBAA06EA17
:103DF2003395E0F9F8A3E0FCA3E0FDA3E0FEA3E025
:103E0200FF1274B49000B0E0FCA3E02FFFEC3E90F0
:103E120000B8F0A3EFF09000C6E0FEA3E0FBAA0614
:103E2200EA3395E0F9F89000D0E0FCA3E0FDA3E0CE
:103E3200FEA3E0FF1274B49000ACE0FCA3E02FFFFD
:103E4200EC3E9000BAF0A3EFF09000CCE0F8A3E0D3
:103E5200F9A3E0FAA3E0FB9000C8E0FEA3E0FFEEC6
:103E62003395E0FDFCEB2FFFEA3EFEE93DFDE83C29
:103E7200FC9000CC12395F9000D0E0F8A3E0F9A3E7
:103E8200E0FAA3E0FB9000C4E0FEA3E0FFEE33956E
:103E9200E0FDFCEB2FFFEA3EFEE93DFDE83CFC9035
:103EA20000D012395F9000BAE0FEA3E0FF9000B8A4
:103EB200E0FCA3E0D39FEC9E40179001637401F0F5
:103EC200A37400F0A374BAF07B017A0079B812737C
:103ED200941264AD9000BDE004F070069000BCE066
:053EE20004F0023DCFD9
:013EE70022B8
:1051B300F0900021E0900054F0900019E0FAA3E091
:0151C300FBF0
:1051C40090004AEEF0A3EFF090004EEAF0A3EBF06B
:0851D40090004CECF0A3EDF09B
:1051DC0090010FE0FFA3E0900058CFF0A3EFF09008
:1051EC000052E024E0F0A3E0F9C313FF7E0090002E
:1051FC004AE0FAA3E02FFFEE3ACF24FFFBEF34FF97
:10520C00FAE9FFA3E0F8A3E02FFFEE38CF24FFCF9D
:10521C0034FF900065F0A3EFF090004AE0FEA3E0AD
:10522C00FF127074900054E060030252D490005648
:10523C00F0900053E0FF900056E0FEC39F40030245
:10524C005394EF640C7017900052E075F00CA4248A
:10525C0003F582E5F03400F583E5822E801A900088
:10526C0056E0FF900052E075F010A42483F582E51F
:10527C00F03404F583E5822FF582E43583F583E47D
:10528C0093900055F0E4900057F0900053E0C31356
:10529C00FF900057E0C39F5026900055E030E0058A
:1052AC0090004E8003900050E0FEA3E0FF1277FACE
:1052BC00900055E0C313F0900057E004F080CB90C1
:1052CC000056E004F002523DE4900056F09000537A
:1052DC00E0FF900056E0FEC39F4003025394EF643E
:1052EC000C7017900052E075F00CA42403F582E5C5
:1052FC00F03400F583E5822E801A900056E0FF9082
:10530C000052E075F010A42483F582E5F03404F526
:10531C0083E5822FF582E43583F583E49390005581
:10532C00F0E4900057F0900053E0C313FF90005747
:10533C00E0FEC39F504990004EE0FDA3E090010FAA
:10534C00CDF0A3EDF0900055E030E024EEFF90009E
:10535C004BE02FFF90004AE03400FE900056E0FD39
:10536C0090004DE02DFD90004CE03400FC127600D6
:10537C00900055E0C313F0900057E004F080A79024
:10538C000056E004F00252D9900058E0FFA3E090E0
:10539C00010FCFF0A3EFF0900114E024FFFB90017C
:1053AC0013E034FFFA900116E024FFFE900115E0A3
:1053BC0034FF900065F0A3CEF0E4FDFCFFFE02701C
:0153CC00746C
:106C070090003DEEF0A3EFF0A3ECF0A3EDF0A3EBC3
:106C1700F0900042E0FBA3E0FAA3E0F91236EEFFA2
:106C2700D3947E4003026CC5EFC394205003026CDB
:106C3700C5900114E024FFFD900113E034FFFC90A0
:106C4700003DE0FEA3E0FFD39DEE9C50719001163E
:106C5700E024FFFB900115E034FFFA90003FE0FCD1
:106C6700A3E0FDD39BEC9A5055900111E0FBA3E004
:106C7700900050CBF0A3EBF0900042E0FBA3E0FACA
:106C87001236EE900052F0900041E0900053F090E1
:106C97000045E0900054F090010F1251BF90004161
:106CA700E0C313FF90003EE02FF090003DE034007A
:0F6CB700F0900043E475F0011237AD026C182223
:0874230090004AEFF0A3EDF028
:10742B00A312396B0000000190004BE0FF14F0EF4A
:10743B006020A3E0F8A3E0F9A3E0FAA3E0FB90003F
:10744B004AE0FFE4FCFDFE12382390004C12395F3A
:10745B0080D690004CE0FCA3E0FDA3E0FEA3E0FF90
:01746B0022FE
:0E66F20090003DEEF0A3EFF0A3ECF0A3EDF06E
:10670000E4900049F0900047F0900045E0FF9000D1
:1067100047E0FEC39F4003026802C3EF9E14FD7F63
:106720000A127423A804A905AA06AB07900041E049
:10673000FCA3E0FDA3E0FEA3E0FF1238AEE47B0A79
:10674000FAF9F81238AE900048EBF0A3E0705790D9
:106750000045E014FF900047E0FEC39F5048A3E0CF
:10676000703E900046E0F9C3138EF0A4FF90003E07
:10677000E02FFF90003DE035F0FEC00790003FE0C5
:10678000FCA3E0FD90010FE0FAA3E0FB900111E013
:10679000FFA3E0900050CFF0A3EFF0A37420804D52
:1067A0009000497401F0900046E0F9C313FFA3E0A4
:1067B000FEEF8EF0A4FF90003EE02FFF90003DE042
:1067C00035F0FEC00790003FE0FCA3E0FD90010F14
:1067D000E0FAA3E0FB900111E0FFA3E0900050CFAE
:1067E000F0A3EFF0900048E02430900052F0A3E9CD
:1067F000F0E4A3F0D0071251C4900047E004F00287
:02680000670926
:016802002273
:10489000900027ECF0A3EDF0A3EAF0A3EBF090007A
:0648A00025EEF0A3EFF08D
:1048A600900037EEF0A3EFF0900035E4F0A3743DEE
:1048B600F0E4900033F0A3F0900035E0FEA3E0FFB3
:1048C600900033E0FCA3E0FDC39FEC9E4003024A48
:1048D600B190002DE0FBA3E0FAA3E0F91236EEFF5B
:1048E600900AA375F022ED12399CEC75F022A425EE
:1048F60083F583E4936F6003024AA09000011237A8
:1049060007FF900033A3E0900AA475F02212399CA9
:10491600EC75F022A42583F583E4936F6003024AC5
:10492600A0900025E0FAA3E0FBFFAE02C006C00798
:10493600A3E0FCA3E0FDEB240FFBE43AFA9000278A
:10494600E0FEA3E0240FFFE43E900065F0A3EFF045
:10495600D007D006127074E4900031F0900031E078
:10496600C39420748094804003024AA0E4A3F0908C
:104976000032E0FFC39408748094804003024A9793
:10498600900030E07058A3E0FE900033E0FCA3E016
:10499600900A8375F02212399CEC75F022A42583C7
:1049A600F583E5822EF582E43583F583E493FD7C79
:1049B600007E007480A807088006CEA2E713CE13F7
:1049C600D8F8FFEE5CFEEF5D4E600590002980038F
:1049D60090002BE0FEA3E0FF1277FA024A8E9000C9
:1049E60029E0FFA3E090010FCFF0A3EFF090003194
:1049F600E0FF900033E0FCA3E0900A8375F02212FA
:104A0600399CEC75F022A42583F583E5822FF58287
:104A1600E43583F583E493FD7C00900032E0FF7E6D
:104A2600007480A807088006CEA2E713CE13D8F834
:104A3600FFEE5CFEEF5D4E6011900025E0FEA3E008
:104A4600FFA3E0FCA3E0FD127600900026E004F050
:104A56007006900025E004F0900037E0FEA3E0FF2A
:104A6600C3900026E09FFD900025E09EFCED6410BB
:104A76004C7015EEF0A3EFF0900028E004F07011F2
:104A8600900027E004F08009900032E004F002492B
:104A960075900031E004F0024962900034E004F0C1
:104AA6007006900033E004F00248BE900114E02442
:104AB600FFFB900113E034FFFA900116E024FFFE9D
:104AC600900115E034FF900065F0A3CEF0E4FDFC04
:054AD600FFFE027074F8
:104ADB00900027ECF0A3EDF0A3EAF0A3EBF090002D
:064AEB0025EEF0A3EFF040
:104AF100900037EEF0A3EFF0900035E4F0A37408D6
:104B0100F0E4900033F0A3F0900035E0FEA3E0FF65
:104B1100900033E0FCA3E0FDC39FEC9E4003024CF8
:104B2100FC90002DE0FBA3E0FAA3E0F91236EEFFC2
:104B31009012E575F04AED12399CEC75F04AA42506
:104B410083F583E4936F6003024CEB90000112370D
:104B510007FF900033A3E09012E675F04A12399CEA
:104B6100EC75F04AA42583F583E4936F6003024C4E
:104B7100EB900025E0FAA3E0FBFFAE02C006C00700
:104B8100A3E0FCA3E0FDEB2417FBE43AFA90002735
:104B9100E0FEA3E02417FFE43E900065F0A3EFF0F0
:104BA100D007D006127074E4900031F0900031E02B
:104BB100C39448748094804003024CEBE4A3F090CA
:104BC1000032E0FFC39408748094804003024CE2F9
:104BD100900030E07058A3E0FE900033E0FCA3E0C9
:104BE10090129D75F04A12399CEC75F04AA4258308
:104BF100F583E5822EF582E43583F583E493FD7C2C
:104C0100007E007480A807088006CEA2E713CE13A9
:104C1100D8F8FFEE5CFEEF5D4E6005900029800341
:104C210090002BE0FEA3E0FF1277FA024CD990002E
:104C310029E0FFA3E090010FCFF0A3EFF090003146
:104C4100E0FF900033E0FCA3E090129D75F04A1262
:104C5100399CEC75F04AA42583F583E5822FF58212
:104C6100E43583F583E493FD7C00900032E0FF7E20
:104C7100007480A807088006CEA2E713CE13D8F8E7
:104C8100FFEE5CFEEF5D4E6011900025E0FEA3E0BB
:104C9100FFA3E0FCA3E0FD127600900026E004F003
:104CA1007006900025E004F0900037E0FEA3E0FFDD
:104CB100C3900026E09FFD900025E09EFCED641866
:104CC1004C7015EEF0A3EFF0900028E004F07011A5
:104CD100900027E004F08009900032E004F0024BDC
:104CE100C0900031E004F0024BAD900034E004F0DC
:104CF1007006900033E004F0024B09900114E024A7
:104D0100FFFB900113E034FFFA900116E024FFFE4F
:104D1100900115E034FF900065F0A3CEF0E4FDFCB6
:054D2100FFFE027074AA
:104D2600900027ECF0A3EDF0A3EAF0A3EBF09000DF
:064D360025EEF0A3EFF0F2
:104D3C00900037EEF0A3EFF0900035E4F0A374048C
:104D4C00F0E4900033F0A3F0900035E0FEA3E0FF18
:104D5C00900033E0FCA3E0FDC39FEC9E4003024FA8
:104D6C004790002DE0FBA3E0FAA3E0F91236EEFF2A
:104D7C0090156D75F082ED12399CEC75F082A425BE
:104D8C0083F583E4936F6003024F36900001123772
:104D9C0007FF900033A3E090156E75F08212399CDA
:104DAC00EC75F082A42583F583E4936F6003024FC6
:104DBC0036900025E0FAA3E0FBFFAE02C006C00768
:104DCC00A3E0FCA3E0FDEB241FFBE43AFA900027E0
:104DDC00E0FEA3E0241FFFE43E900065F0A3EFF09B
:104DEC00D007D006127074E4900031F0900031E0DE
:104DFC00C39480748094804003024F36E4A3F090F7
:104E0C000032E0FFC39408748094804003024F2D5D
:104E1C00900030E07058A3E0FE900033E0FCA3E07B
:104E2C009014ED75F08212399CEC75F082A42583F8
:104E3C00F583E5822EF582E43583F583E493FD7CDE
:104E4C00007E007480A807088006CEA2E713CE135C
:104E5C00D8F8FFEE5CFEEF5D4E60059000298003F4
:104E6C0090002BE0FEA3E0FF1277FA024F24900093
:104E7C0029E0FFA3E090010FCFF0A3EFF0900031F9
:104E8C00E0FF900033E0FCA3E09014ED75F082128B
:104E9C00399CEC75F082A42583F583E5822FF5828D
:104EAC00E43583F583E493FD7C00900032E0FF7ED3
:104EBC00007480A807088006CEA2E713CE13D8F89A
:104ECC00FFEE5CFEEF5D4E6011900025E0FEA3E06E
:104EDC00FFA3E0FCA3E0FD127600900026E004F0B6
:104EEC007006900025E004F0900037E0FEA3E0FF90
:104EFC00C3900026E09FFD900025E09EFCED642011
:104F0C004C7015EEF0A3EFF0900028E004F0701157
:104F1C00900027E004F08009900032E004F0024E8B
:104F2C000B900031E004F0024DF8900034E004F0F6
:104F3C007006900033E004F0024D54900114E0240C
:104F4C00FFFB900113E034FFFA900116E024FFFE02
:104F5C00900115E034FF900065F0A3CEF0E4FDFC69
:054F6C00FFFE0270745D
:10436B00900017ECF0A3EDF0A3EAF0A3EBF09000B4
:06437B0015EEF0A3EFF0C7
:10438100900022EEF0A3EFF0E4A3F090001DE0FB1B
:10439100A3E0FAA3E0F91236EE70030246019000A1
:1043A10024E060030244C2900020E0FFC313FDC378
:1043B100900114E09DFD900113E09400FCD3900066
:1043C10016E09D900015E09C4003024601C3900158
:1043D10016E09FFF900115E09400FED3900018E0D5
:1043E1009F900017E09E40030246011236EEFF7EC9
:1043F10000D394807480948040089000247401F06C
:104401008089EF640D4E702E900020E0FF9000181F
:10441100E02FF0900017E03400F0900022E0FFA3BD
:10442100E0900015CFF0A3EFF090001EE475F001CD
:104431001237AD0244B5900020E0D39410748094FB
:1044410080900015E0FEA3E0FFA3E0FCA3E0FD9057
:10445100001BE0FBA3E0900050CB4024F0A3EBF065
:1044610090001DE0FBA3E0FAA3E0F91236EE900004
:1044710052F0A374101251B3900016E02408802C5E
:10448100F0A3EBF090001DE0FBA3E0FAA3E0F9122A
:1044910036EE900052F0900020E09000531251B39C
:1044A100900020E0C313FF900016E02FF09000155C
:1044B100E03400F090001EE475F0011237AD0243C4
:1044C1008C900020E0F9FF7E00C3900114E09FFD75
:1044D100900113E09EFCD3900016E09D900015E042
:1044E1009C4003024601C3900116E09FFF90011515
:1044F100E09EFE900017E0FCA3E0FDD39FEC9E4000
:1045010003024601E4900024F0E964207042900027
:1045110015E0FEA3E0FF90001BE0FBA3E090002B61
:10452100CBF0A3EBF090001DE0F9A3E0FAA3E0903B
:10453100002DC9F0A3EAF0A3E9F0900021E090007A
:1045410030F0900019E0FAA3E0FB124D260245E29B
:10455100900020E064189000157044E0FEA3E0FF95
:10456100A3E0FCA3E0FD90001BE0FBA3E090002B87
:10457100CBF0A3EBF090001DE0F9A3E0FAA3E090EB
:10458100002DC9F0A3EAF0A3E9F0900021E090002A
:1045910030F0900019E0FAA3E0FB124ADB8042E020
:1045A100FEA3E0FFA3E0FCA3E0FD90001BE0FBA362
:1045B100E090002BCBF0A3EBF090001DE0F9A3E01D
:1045C100FAA3E090002DC9F0A3EAF0A3E9F090006E
:1045D10021E0900030F0900019E0FAA3E0FB1248CE
:1045E1009090001EE475F0021237AD900020E0FFBC
:1045F100900016E02FF0900015E03400F002438C9B
:014601002296
:106ED500900008EEF0A3EFF0A3ECF0A3EDF0A3EA29
:046EE500F0A3EBF03B
:106EE900900010E0FBA3E0FAA3E0F91277B2EF7883
:106EF90003C333CE33CED8F9FFC3900114E09FFF0B
:106F0900900113E09EC313FEEF13FF900009E02FD9
:106F1900FF900008E03EFE90000AE0FCA3E0FD902F
:106F2900000EE0FBA3E090001BCBF0A3EBF0900078
:106F390010E0F9A3E0FAA3E090001DC9F0A3EAF07C
:106F4900A3E9F0900013E0900020F0900014E09085
:0E6F59000021F090000CE0FAA3E0FB02436B75
:1068D80090013EEEF0A3EFF0900142EBF0A3EAF056
:0B68E800A3E9F0900140ECF0A3EDF0FC
:1068F30090013EE0FAA3E0FFAE02C006C0072427E2
:10690300FBE43AFAA3E0FEA3E02427FFE43E900071
:1069130065F0A3EFF0D007D006127074E490014540
:10692300F0A3F0900146E025E0FF900145E033FE3F
:10693300900142E0FBA3E0FAA3E0F98F828E831279
:106943003707900148F0E92FF9EA3EFA9000011267
:106953003707900147F0FEA3E0FDEDFF1277FA90B1
:106963000146E004F07006900145E004F0C3900195
:1069730046E09440900145E06480948640A59001F0
:1069830014E024FFFB900113E034FFFA900116E0BA
:1069930024FFFE900115E034FF900065F0A3CEF0D4
:0869A300E4FDFCFFFE0270742C
:0B77DB001259A6122623124F7180F8ED
:1016F5007777772E53544341494D43552E636F6D8C
:1017050000322E34B4E7544654C6C1B2E2CAD4B34B
:10171500CCD0F200BAEABEA7BFC6BCBC0053544346
:10172500204D4355204C696D697465640054656CA2
:101735003A2038362D303531332D35353031323983
:101745003238007777772E53544341492E636F6DB6
:1017550000424C20546573740052454420004752A2
:1017650045454E2000424C55452000B2E2CAD433CF
:101775003A475549BED8D0CECCEEB3E4B2E2CAD48E
:1017850000B2E2CAD4343A475549BBADD4B2CCEE27
:10179500B3E4B2E2CAD400B2E2CAD4353A475549F5
:1017A50020547269616E676C65CCEEB3E4B2E2CA2F
:1017B500D400B2E2CAD4363AD3A2CEC4CFD4CABE7C
:1017C500B2E2CAD400365831323A61626364656662
:1017D5006768696A6B6C6D6E6F707172737475761C
:1017E5007778797A00365831323A41424344454652
:1017F5004748494A4B4C4D4E4F50303132333435C2
:101805003637383900365831323A7E21402324257F
:101815005E262A28295F2B7B7D3A3C3E3F2F7C2D77
:101825002B2E00385831363A616263646566676805
:10183500696A6B6C6D6E6F7071727374757677789B
:10184500797A00385831363A41424344454647484B
:10185500494A4B4C4D4E4F50303132333435363783
:10186500383900385831363A7E21402324255E2602
:101875002A28295F2B7B7D3A3C3E3F2F7C2D2B2E42
:1018850000B2E2CAD4373AD6D0CEC4CFD4CABEB29B
:10189500E2CAD40031365831363AC9EEDBDAB9FA44
:1018A500D0BEC8CBB9A4D6C7C4DCD3D0CFDEB9ABC4
:1018B500CBBEBBB6D3ADC4FA0031365831363A5734
:1018C500656C636F6D65BAEABEA7BFC6BCBC003266
:1018D500345832343AC9EEDBDAB9FAD0BED6D0CEB6
:1018E500C4B2E2CAD40033325833323AD7D6CCE543
:1018F500B2E2CAD400B2E2CAD4383ACDBCC6ACCF43
:10190500D4CABEB2E2CAD400515100566572746998
:1019150063616C00486F72697A6F6E74616C00B2B6
:10192500E2CAD4393AC6C1C4BBBDC7B6C8B2E2CA59
:10193500D400B2E2CAD431303A546F756368B2E26A
:10194500CAD420200052535400B2E2CAD4323AB667
:10195500C14944BACDD1D5C9ABD6B5B2E2CAD400D6
:1019650049443A30782578007265616420636F6C6C
:101975006F723A30782530347800FFFFFFFFFFFFA4
:10198500FFFFFFFFFFFFFFFFFFFFFFFFFFFFFFFF62
:10199500FFFFFFFFFFFFFFFFBEF7FFFFDEFF38C6BC
:1019A500928C8E6B6E6B107C96AD3CE7FFFFFFFF54
:1019B500FFFFFFFFFFFFFFFFFFFFFFFFFFFFFFFF32
:1019C500FFFFFFFFFFFFFFFFFFFFFFFFFFFFFFFF22
:1019D500FFFFFFFFFFFFFFFFFFFFFFFFFFFFFFFF12
:1019E500FFFFFFFFFFFFFFFF5DEF159D4F636C429C
:1019F5000A328829461925194521E8318E6B38C6E2
:101A0500FFFFFFFFFFFFFFFFFFFFFFFFFFFFFFFFE1
:101A1500FFFFFFFFFFFFFFFFFFFFFFFFFFFFFFFFD1
:101A2500FFFFFFFFFFFFFFFFFFFFFFFFFFFFFFFFC1
:101A3500FFFFFFFFFFFF36A51053104B51530F4B10
:101A45006C3AE93167212519E410A308620083087F
:101A5500CB529AD6FFFFFFFFFFFFFFFFFFFFFFFF00
:101A6500FFFFFFFFFFFFFFFFFFFFFFFFFFFFFFFF81
:101A7500FFFFFFFFFFFFFFFFFFFFFFFFFFFFFFFF71
:101A8500FFFF3CE77063B363B87CF56311434D32E8
:101A9500EA29882126190519051904110411E410EC
:101AA5008300A308728CFFFFFFFFFFFFFFFFFFFF0F
:101AB500FFFFFFFFFFFFFFFFFFFFFFFFFFFFFFFF31
:101AC500FFFFFFFFFFFFFFFFFFFFFFFFFFFFFFFF21
:101AD500DBDE4B3AF042356C544BB1322E2AEB210A
:101AE500A921671905190411041104110411041120
:101AF5000519E4104200AF73FFFFFFFFFFFFFFFF73
:101B0500FFFFFFFFFFFFFFFFFFFFFFFFFFFFFFFFE0
:101B1500FFFFFFFFFFFFFFFFFFFFFFFFFFFF5DEF82
:101B250009324C32104B8F324F2A2E2ACC19891983
:101B350089214719051904110411C410C410041191
:101B450004110411E41042003184FFFFFFFFFFFF81
:101B5500FFFFFFFFFFFFFFFFFFFFFFFFFFFFFFFF90
:101B6500FFFFFFFFFFFFFFFFFFFFFFFFFFFFEC5240
:101B750047194C320B2AEC21EC210C22915BEE4AE1
:101B8500061126190419E410E410A7296621A308F3
:101B9500051904110411E4108200F7BDFFFFFFFFD2
:101BA500FFFFFFFFFFFFFFFFFFFFFFFFFFFFFFFF40
:101BB500FFFFFFFFFFFFFFFFFFFFFFFF35A58308C7
:101BC500882188218921AA218A216B42718CFFFFF6
:101BD500728C83080411C4082942FBDE5DEFEC5AC0
:101BE50083080411041104118308E831DFFFFFFFA6
:101BF500FFFFFFFFFFFFFFFFFFFFFFFFFFFFFFFFF0
:101C0500FFFFFFFFFFFFFFFFFFFFBEF7C731C41058
:101C15002519261947194719A8298A52284A55AD61
:101C2500FFFFE831A30805194D6B4D6BFFFF7DEFF5
:101C35004521C410041104110411620076ADFFFFA3
:101C4500FFFFFFFFFFFFFFFFFFFFFFFFFFFFFFFF9F
:101C5500FFFFFFFFFFFFFFFFFFFF96B562000411C7
:101C6500041905110519C4088B4AB6B55DEFF7BD12
:101C7500FFFF8E6B62002942AA5A0842FFFFFFFF51
:101C8500CC528308041104110411A308AD52FFFFBF
:101C9500FFFFFFFFFFFFFFFFFFFFFFFFFFFFFFFF4F
:101CA5001CE7FFFFFFFFFFFFFFFF4E63620004110C
:101CB50004110411E41062008E63FFFFFFFFFFFFB4
:101CC500FFFFCF730100F39C2C6396B5FFFFFFFF69
:101CD5002D5B8300041104110411E41067213DEF0D
:101CE500FFFFFFFFFFFFFFFFFFFFF8BDB7B59EEF4B
:101CF500CB52B394FFFFFFFFDFFFE831A3080411C8
:101D0500041104110411A3084942FFF7FFF7FFFF6F
:101D1500FFFF6A4A01007284FFFFFFFFFFF7DFEF55
:101D2500093AA3080411041104110411051118BE80
:101D3500FFFFFFFFFFFFFFFFFFFFF07B6200E831C2
:101D4500C731410035A5FFFF5DEF4621C4100411E1
:101D5500041104110411E410A308769DFFF7FFFF99
:101D6500B7ADA308A308C7319EE7FFF7FFF776A530
:101D7500A308E4100411041104110511051135A57A
:101D8500FFFFFFFFFFFFFFFFFFFFDBDEA72983004C
:101D9500C410C410C4101CE79EEF0511E410041113
:101DA5000411041104110419C408E510D16BD16B99
:101DB500C5086400A50843002B32779DB384251917
:101DC500C410041104110411041125192609359DA7
:101DD500FFFFFFFFFFFFFFFFFFFFFFFFAF73620086
:101DE5000419051982000D5B8E9B62100511041103
:101DF50004110419E41085000511C439815A407B8A
:101E0500229C43AC03A4839B82728249C218A4001E
:101E1500C500E41004190411051947196711EC5A96
:101E2500BEFFFFFFFFFFFFFFFFFFDFFFDBDEC4108D
:101E3500E41004110511A41801C08388E4000519F4
:101E45000419C5084421438323D542FEE4FE27FF38
:101E550007FFA4FE64FE03FEA3FDE2FC42EC83B390
:101E65002462E510C40804192619A81987210090D1
:101E7500D3BCFFFFFFFFFFFFFFFFDFFFFFFF107C6E
:101E8500420005190511832801D044F8A348E40050
:101E9500C508445A02EDE2FD02FE66FE74FFB8FF76
:101EA50073FFE7F6A6F645F6A4F5C3FC62FCC2FC93
:101EB500C2FCE3CBC449061188198701A49001F837
:101EC500EC9AFFFFFFFFFFFFFFFFFFFFFFFFBEF7DE
:101ED500E83183000509824001C023F885F0A34855
:101EE500A400445A02FD23CCC2DC04FE28FE48F6B9
:101EF50046F624F6E4F564FDE3FC62FCC2FC02E46C
:101F050002DCE2FCA47A48016701C47824F802F8EF
:101F150084B07DE7FFFFFFFFFFFFFFFFFFFFFFFF30
:101F2500DBDE2519A300C43802E022D844F8A6F860
:101F3500A4786300432183728339829B21F561FD77
:101F450022FDE2FCA2FC42FC42FC42FC22AB8341A6
:101F5500C392045226012519A49844F823F802F8DF
:101F6500A4D09EEFFFFFFFFFFFFFFFFFFFFFFFFF77
:101F7500FFFF9AD68729A50043B822F823E065F824
:101F8500E8F807C983484200A30084006329A27AC0
:101F950062B3A2CB62D302BB828A8339A400E50077
:101FA500E500E508C46064D844F824F823F802F88D
:101FB5008388DBC6FFFFFFFFFFFFFFFFFFFFFFFF7C
:101FC500FFFFFFFF3DE7505B083123E843F844F08E
:101FD50065F809F9ABF989D10689A34842180200C9
:101FE500420061008200620062008300A320C450A9
:101FF500A58885D865F844F844F823F823F803D074
:102005008210C7295DEFFFFFFFFFFFFFFFFFFFFF07
:10201500FFFFFFFFFFFFFFFF6C32A53802D823F853
:1020250065F866F8A7F84AF90CFA4DFA4CEA0BD2AE
:10203500A9B968B147A927B107B907D1E7E8C7F832
:10204500A7F865F865F844F823F803F802D0A32843
:102055000509C408EC5AFFFFFFFFFFFFFFFFFFFF65
:10206500FFFFFFFFFFFFFBDE0519C400A741E6C028
:1020750003F886F8A7F887F886F8C7F829F98AF9E2
:10208500ABF9ABF98BF96AF929F908F9C7F8A6F89C
:1020950086F865F864F823F802F006B12529E4000E
:1020A500E41025192519149DFFFFFFFFFFFFFFFF12
:1020B500FFFFFFFFFFFF96AD620082083595BACEA0
:1020C5008BA244D025F887F8A7F8C7F8A7F887F8B2
:1020D50086F886F886F887F8A7F8A7F8A6F885F8A9
:1020E50065F864F824F064B80D93BBB6CF63830834
:1020F5000411E4106621493A5DEFFFFFFFFFFFFF82
:10210500FFFFFFFFFFFFD3944200E410BBCEFFFFAC
:10211500BEE776B5CCAA07C145E045F846F866F8AE
:1021250086F886F886F886F865F845F865F865E86E
:1021350044D043A8018882903CD7FFEF559583088A
:102145000411041105194619B394FFFFFFFFFFFFA2
:10215500FFFFFFFFFFFFB394410086215DDFFFFF17
:10216500FFFFFFFFDFE77AC6D3B44EB32AC268D1BB
:10217500E6E0A6E8A5E8A5E8E6D888C906A922A864
:1021850002A800A000C800D8F7E5FFE7F8ADC41025
:10219500E4100411E41005118B4AFFFFFFFFFFFF58
:1021A500FFFFFFFFFFFF55A54100A7295DDFFFF7F3
:1021B500FFFFFFFFFFFFFFFFFFFFFFEF7DDFDBCE31
:1021C50059CEF8CDD7CDF7C579CEFBBEABA203F07E
:1021D50045F842D043E800F072D4FFDF39AEE41091
:1021E500E4100411E41005118729FFFFFFFFFFFF2D
:1021F500FFFFFFFFFFFF59CE830846211CD7FFF7DE
:10220500FFFFFFFFFFFFFFFFFFFFFFFFFFFFFFFFD9
:10221500FFFFFFFFFFFFFFFFFFFFFFEF8BBA04F894
:1022250045F862E044F000F88EDBFFDFF8A5C41046
:10223500E410E4100411E4102519FFFFFFFFFFFF70
:10224500FFFFFFFFFFFFBEF78729830839B6FFF7BA
:10225500DFF7FFFFFFFFFFFFFFFFFFFFFFFFFFFFB1
:10226500FFFFFFFFFFFFFFFFFFFFBEE74ABA03F8CF
:1022750045F864F844F800F86EE3FFD7F48C83085A
:102285000411E410E410E4100519FFFFFFFFFFFF40
:10229500FFFFFFFFFFFFFFFFEF7300007284FFEFFB
:1022A500BEEFDFFFFFFFFFFFFFFFFFFFFFFFFFFFAA
:1022B500FFFFFFFFFFFFFFFFFFFFDFE78BBA03F81D
:1022C50045F845F823F800F8D3D4FFD74E5B210035
:1022D500293A55A58308C4102519FFFFFFFFFFFF05
:1022E500FFFFFFFFFFFFFFFFFBDEA308E8319EDFD7
:1022F5009EE7BFEFFFFFFFFFFFFFFFFFFFFFFFFFB2
:10230500FFFFFFFFFFFFFFFFFFFFFFF751BC02E0ED
:1023150003F803F043E0ECC27ECFFCBE462121006A
:10232500D394FFFF518400008729FFFFFFFFFFFFC4
:10233500FFFFFFFFFFFFFFFFFFFF51840000F48C4D
:10234500FFEF9EE7BFEFDFFFFFFFFFFFFFFFFFFF91
:10235500FFFFFFFFFFFFFFFFFFFFFFFF3DDF55BD56
:1023650052BC72BCB7B55DC7FFDFF06B0000093A20
:10237500BFF7FFFFFFFF149D55A5FFFFFFFFFFFF01
:10238500FFFFFFFFFFFFFFFFFFFFFFFFAC4AA408B2
:10239500BBBEDFE77EE7BEEFDFF7DFFFFFFFFFFF37
:1023A500FFFFFFFFFFFFFFFFFFFFDFFFDFF7FFEF90
:1023B500DFDFBFD79ED7DFDFD8A583082611DBD6A1
:1023C500FFFFFFFFFFFFFFFFFFFFFFFFFFFFFFFF18
:1023D500FFFFFFFFFFFFFFFFFFFF79EE8BDC2131E2
:1023E500A9213DCFBFDF7EDF9EE7BEEFBFEFDFF761
:1023F500DFF7DFF7DFF7DFF7BFEFBEEF9EE77EDF43
:102405005ED75ED7DFDF9AB626194208EDA3BFFF78
:10241500FFFFFFFFFFFFFFFFFFFFFFFFFFFFFFFFC7
:10242500FFFFFFFFFFFFFFFF74DDC0DB00FE42EE95
:10243500024289217BB6DFDF7ED77EDF7EDF9EE726
:102445009EE79EE79EE79EE77EDF7EDF5DD75DD751
:102455009EDFFFE7F8A50711E31802C560FDE6D387
:10246500DBEEFFFFFFFFFFFFFFFFFFFFFFFFFFFFAC
:10247500FFFFFFFFFFFF9EF784BAC1FC42FE82FE0D
:10248500A2FE8183452174745EC7DFDF7ED75ED7E8
:102495005DD75ED75ED75DD75DD75ED79EDFFFE799
:1024A5003DC7F1638408425226E629FF86FEE0F324
:1024B5006AC3FFFFFFFFFFFFFFFFFFFFFFFFFFFFF8
:1024C500FFFFFFFFFFFF18DEC1D2A2FD22FE42FE85
:1024D50042FE62FEE2D4416A494253743BA63EC7BE
:1024E500BFD7BFD7BFD7BFDFBFD73EC71AA6F263D7
:1024F500A729824122B462FE83FEAAFE0FFF67FD73
:1025050063BA3CEFFFFFFFFFFFFFFFFFFFFFFFFF8A
:10251500FFFFFFFFFFFF9AE680D221FDC2FDE2F536
:10252500C2F582F582FD62FD61DC219B846AE96A60
:102535002C63AF6311746E632C63895A0452817ADC
:10254500C2CBE2FC62FD82FDC2FDC2FDE4FD24FDBD
:1025550062CA1CE7FFFFFFFFFFFFFFFFFFFFFFFF53
:10256500FFFFFFFFFFFFFFFFB1CC81D2C0F3C1FC2E
:1025750002FD02FDE2FCC2FCC2FC81FC80FBC0C97D
:10258500A48135AD59CE719C218100DAA1FB82FC75
:10259500A2FC82FCA2FC02FD22FDE2FC00FC60DA4A
:1025A50090CCFFFFFFFFFFFFFFFFFFFFFFFFFFFFD8
:1025B500FFFFFFFFFFFFFFFFFFFF59DE0DC406CB47
:1025C500E4D203DB03DBE3DAC3D2A4C209B3D2BC92
:1025D5009EF7FFFFFFFFFFFFFBE60EB4A6BA83D20F
:1025E500E3E202EB22EB22E303DBE4D26AC3B6D5D6
:1025F500FFFFFFFFFFFFFFFFFFFFFF1910FF191987
:1026050000000000000000000000000000000000C5
:0E2615000000000000000000000000000000B7
:1074F8004A0105F80007E0001FFFE0F81F5000F5FB
:10750800F800F81F07E001CF001F0000841F0000EB
:066803007BFF7A197937D2
:10680900900005EBF0A3EAF0A3E9F074FFFFFE1294
:106819006FF3900113E0FAA3E0FB90000EE4F0A3FC
:106829007414F0A3E4F0A3741FF0E4FDFCFFFE125E
:1068390064E1900115E0FEA3E0FF24ECFDEE34FFD6
:10684900FC900113E0FAA3E0FB90000EEEF0A3EF39
:10685900F0A3E4F0A3741FF0E4FFFE1264E174FFF7
:1068690090010FF0A3F090000EE4F0A3741FF090D4
:106879000005E0F9A3E0FAA3E0900010C9F0A3EA4B
:10688900F0A3E9F0A37410F0A37401F074FFFBFA0C
:106899007D027C00E4FFFE126ED5900116E024EE25
:1068A900FD900115E034FFFC90000EE4F0A3741F85
:1068B900F0A374FFF0A37416F0A374F5F0A3741099
:0F68C900F0A37401F074FFFBFAE4FFFE026ED53A
:106B44007BFF7A17790612680990000EE4F0A374AB
:106B54001FF0A374FFF0A37417F0A37419F0A374C7
:106B640010F0A37401F07B007AF87D1E7C00E4FF32
:106B7400FE126ED590000EE4F0A3741FF0A374FF10
:106B8400F0A37417F0A37422F0A37410F0A374019B
:106B9400F07B007AF87D3C7C00E4FFFE126ED59019
:106BA400000EE4F0A3741FF0A374FFF0A37417F0B5
:106BB400A37432F0A37410F0A37401F07B1F7AF86D
:106BC4007D5A7C00E4FFFE126ED590000EE4F0A323
:106BD400741FF0A374FFF0A37417F0A37448F0A318
:106BE4007410F0A37401F07B1F7A007D787C00E4BC
:106BF400FFFE126ED57FDC7E051277417FDC7E05B9
:036C0400027741D3
:105E4B00900113E0FAA3E0FBA3E0FFA3E090000EA8
:105E5B00CFF0A3EFF074FFA3F0A3F0E4FDFCFFFE83
:105E6B001264E190001B74FFF0A374E0F0A374FFC5
:105E7B00F0A37417F0A37456F0A37410F0A374017D
:105E8B00F07B1F7A007D1E7C007F147E0012436B1B
:105E9B007F207E03127741900113E0FAA3E0FBA36E
:105EAB00E0FFA3E090000ECFF0A3EFF0A374F8F0A7
:105EBB00A3E4F0FDFCFFFE1264E190001B74FFF005
:105ECB00A374E0F0A374FFF0A37417F0A3745EF057
:105EDB00A37410F0A37401F07B1F7A007D1E7C006D
:105EEB007F147E0012436B7F207E0312774190015B
:105EFB0013E0FAA3E0FBA3E0FFA3E090000ECFF0CA
:105F0B00A3EFF0A37407F0A374E0F0E4FDFCFFFE35
:105F1B001264E190001B74FFF0A374E0F0A374FF14
:105F2B00F0A37417F0A37463F0A37410F0A37401BF
:105F3B00F07B1F7A007D1E7C007F147E0012436B6A
:105F4B007F207E03127741900113E0FAA3E0FBA3BD
:105F5B00E0FFA3E090000ECFF0A3EFF0A3E4F0A3DB
:105F6B00741FF0E4FDFCFFFE1264E190001B74FF54
:105F7B00F0A374E0F0A374FFF0A37417F0A3746A9A
:105F8B00F0A37410F0A37401F07B007AF87D1E7CF3
:0F5F9B00007F147E0012436B7F207E030277414C
:1053CD00E4900174F07BFF7A1779701268099001EF
:1053DD0013E0FAA3E0FB900116E024ECFE9001151A
:1053ED00E034FF90000EF0A3CEF074FFA3F0A3F015
:1053FD007D147C00E4FFFE1264E1E4900174F090F2
:10540D000174E0C394057480948040030254C6E097
:10541D00FD25E02405F582E43401F583E0FFA3E0EA
:10542D0090010FCFF0A3EFF0900113E0C313FEA393
:10543D00E01324B0FBEE34FFFAED75F00FA4FDACD4
:10544D00F02BFFEC3AFEC006C007A3E0C313FEA38A
:10545D00E01324B0FFEE34FFCF2DFDEF3CFCC00474
:10546D00C005900113E0C313FCA3E013FD9001747C
:10547D00E0F975F00FA42DFFE5F03CCF24ECFBEF28
:10548D0034FFFA900115E0C313FCA3E013FDE97599
:10549D00F00FA42DFFE5F03CCF24ECCF34FF9001AD
:1054AD004FF0A3EFF0D005D004D007D006126D82D7
:1054BD00900174E004F002540C7FDC7E05127741FC
:1054CD00900114E024FFFB900113E034FFFA9001EA
:1054DD0016E024ECFE900115E034FF90000EF0A3D1
:1054ED00CEF074FFA3F0A3F07D147C00E4FFFE1258
:1054FD0064E1E4900174F0900174E0C3940574804C
:10550D00948040030255BEE0FD25E02405F582E4BC
:10551D003401F583E0FFA3E090010FCFF0A3EFF08E
:10552D00900113E0C313FEA3E01324B0FBEE34FF90
:10553D00FAED75F00FA4FDACF02BFFEC3AFEC006B2
:10554D00C007A3E0C313FEA3E01324B0FFEE34FFA6
:10555D00CF2DFDEF3CFCC004C005900113E0C3133B
:10556D00FCA3E013FD900174E0F975F00FA42DFF7D
:10557D00E5F03CCF24ECFBEF34FFFA900115E0C3CE
:10558D0013FCA3E013FDE975F00FA42DFFE5F03C2E
:10559D00CF24ECCF34FF900157F0A3EFF0D005D01E
:1055AD0004D007D0061276A1900174E004F00255E4
:0855BD00047FDC7E050277414A
:105CD800E4900175F07BFF7A1779861268099001C4
:105CE80013E0FAA3E0FB900116E024ECFE90011506
:105CF800E034FF90000EF0A3CEF074FFA3F0A3F001
:105D08007D147C00E4FFFE1264E1E4900175F090DC
:105D18000175E0C3940574809480506A900113E083
:105D2800C313FEA3E01324B0FDEE34FFFC9001750D
:105D3800E0F975F019A4FBAAF02DFFEA3CFEC006B5
:105D4800C007900115E0C313FEA3E01324CEFFEEB5
:105D580034FFCF2BFDEF3AFCE925E02405F582E47A
:105D68003401F583E0FAA3E0FB900047E4F0A37464
:105D78001EF0E4A3F0A3F0D007D0061255C5900199
:105D880075E004F080897FDC7E051277419001146C
:105D9800E024FFFB900113E034FFFA900116E024A1
:105DA800ECFE900115E034FF90000EF0A3CEF074E5
:105DB800FFA3F0A3F07D147C00E4FFFE1264E1E48D
:105DC800900175F0900175E0C3940574809480503B
:105DD8006B900113E0C313FEA3E01324B0FDEE346F
:105DE800FFFC900175E0F975F019A4FBAAF02DFFEE
:105DF800EA3CFEC006C007900115E0C313FEA3E00D
:105E08001324CEFFEE34FFCF2BFDEF3AFCE925E05B
:105E18002405F582E43401F583E0FAA3E0FB900061
:105E280047E4F0A3741EF0A3E4F0A304F0D007D075
:105E3800061255C5900175E004F080887FDC7E0568
:035E48000277419D
:10460200E4900176F07BFF7A17799C126809900199
:1046120013E0FAA3E0FB900116E024ECFE900115F2
:10462200E034FF90000EF0A3CEF074FFA3F0A3F0ED
:104632007D147C00E4FFFE1264E1E4900176F090C8
:104642000176E0F9C39405748094804003024746E2
:10465200E925E02405F582E43401F583E0FFA3E0D7
:1046620090010FCFF0A3EFF0900113E0C313FAA370
:10467200E013FB24B0FDEA34FFFCE975F014A42D2D
:10468200FFE5F03CFEC006C007A3E0C313FEA3E0B3
:104692001324ECFDEE34FFFCE975F00FA42DFDE5CB
:1046A200F03CFCC004C005EB24CDFDEA34FFFCE97C
:1046B20075F014A42DFBE5F03CFAC002C003900192
:1046C20015E0C313FEA3E01324B7FDEE34FFFCE9AB
:1046D20075F00FA42DFDE5F03CFCC005C00490016F
:1046E20013E0C313FEA3E01324EBFDEE34FFFCE959
:1046F20075F014A42DFDE5F03CFCA3E0C313FEA36A
:10470200E01324ECFBEE34FFFAE975F00FA42BFE64
:10471200E5F03A90013CF0A3CEF090013AECF0A320
:10472200EDF0900138D0E0F0A3D0E0F0D003D00259
:10473200D005D004D007D00612716A900176E00449
:10474200F00246417FDC7E05127741900114E0249D
:10475200FFFB900113E034FFFA900116E024ECFE17
:10476200900115E034FF90000EF0A3CEF074FFA389
:10477200F0A3F07D147C00E4FFFE1264E1E49001FA
:1047820076F0900176E0F9C394057480948040033A
:10479200024889E925E02405F582E43401F583E045
:1047A200FFA3E090010FCFF0A3EFF0900113E0C35D
:1047B20013FAA3E013FB24B0FDEA34FFFCE975F021
:1047C20014A42DFFE5F03CFEC006C007A3E0C3130E
:1047D200FEA3E01324ECFDEE34FFFCE975F00FA418
:1047E2002DFDE5F03CFCC004C005EB24CDFDEA3410
:1047F200FFFCE975F014A42DFBE5F03CFAC002C001
:1048020003900115E0C313FEA3E01324B7FDEE34B9
:10481200FFFCE975F00FA42DFDE5F03CFCC005C0DE
:1048220004900113E0C313FEA3E01324EBFDEE3466
:10483200FFFCE975F014A42DFDE5F03CFCA3E0C3F8
:1048420013FEA3E01324ECFBEE34FFFAE975F00F3C
:10485200A42BFEE5F03A9000B6F0A3CEF09000B49F
:10486200ECF0A3EDF09000B2D0E0F0A3D0E0F0D0F5
:1048720003D002D005D004D007D0061239EE900141
:0E48820076E004F00247847FDC7E0502774179
:1069AB007BFF7A1779B712680990010F74F8F0A37F
:1069BB00E4F0900111F0A3741FF090004274FFF00B
:1069CB00A37417F0A374CAF0E4A3F07B0C7D1EFC38
:1069DB007F0AFE126C0790004274FFF0A37417F04D
:1069EB00A374EAF0A37401F07B0C7D2D7C007F0A6D
:1069FB007E00126C0790004274FFF0A37418F0A392
:106A0B00740AF0E4A3F07B0C7D3CFC7F0AFE126C55
:106A1B000790004274FFF0A37418F0A37428F0E4FD
:106A2B00A3F07B107D50FC7F0AFE126C0790004296
:106A3B0074FFF0A37418F0A37448F0A37401F07BF7
:106A4B00107D647C007F0A7E00126C0790004274FC
:106A5B00FFF0A37418F0A37468F0E4A3F07B107D2F
:0F6A6B0078FC7F0AFE126C077FDC7E0502774104
:106CC6007BFF7A18798612680990001B74FFF0A37F
:106CD60074E0F0A374FFF0A37418F0A37499F0A302
:106CE6007410F0E4A3F07B1FFA7D1EFC7F0AFE12EF
:106CF600436B90001B74FFF0A374E0F0A374FFF0E5
:106D0600A37418F0A374BEF0A37410F0E4A3F07B90
:106D16001FFA7D32FC7F0AFE12436B90001B74FF44
:106D2600F0A374E0F0A374FFF0A37418F0A374D476
:106D3600F0A37418F0A37401F07B1F7A007D467CE3
:106D4600007F0A7E0012436B90001B74FFF0A37451
:106D5600E0F0A374FFF0A37418F0A374EBF0A3742F
:106D660020F0A37401F07B1F7A007D647C007F0A0B
:0C6D76007E0012436B7FDC7E050277413B
:106A7A007BFF7A1879FA1268097BFF7A19797F7D88
:106A8A001E7C007F1E7E001268D890001B74FFF0E7
:106A9A00A374E0F0A374FFF0A37419F0A3740DF0CB
:106AAA00A37410F0A37401F07B1F7A007D4B7C0065
:106ABA007F2A7E0012436B7BFF7A19797F7D1E7CC9
:106ACA00007F5A7E001268D890001B74FFF0A374EE
:106ADA00E0F0A374FFF0A37419F0A3740DF0A3748B
:106AEA0010F0A37401F07B1F7A007D4B7C007F6657
:106AFA007E0012436B7BFF7A19797F7D1E7C007FB3
:106B0A00967E001268D890001B74FFF0A374E0F020
:106B1A00A374FFF0A37419F0A3740DF0A37410F01A
:106B2A00A37401F07B1F7A007D4B7C007FA27E005C
:0A6B3A0012436B7FDC7E05027741F9
:106E2C00E4900159F0785A7C017D017BFF7A257939
:106E3C00FFFE7F061236C8E4900159F0900159E02C
:106E4C00FFC3940274809480507A1272547BFF7A40
:106E5C00197924126809900159E075F003A4245A99
:106E6C00F582E43401F583E0F9A3E0FAA3E09000A5
:106E7C001DC9F0A3EAF0A3E9F090001B74FFF0A386
:106E8C0074E0F09000207410F0A37401F07B1F7A72
:106E9C00007D1E7C007F147E0012436B7BFF7A19F1
:106EAC00797F7D327C007F1E7E001268D87FE87E61
:106EBC00031277417FE87E03127741900159E00479
:096ECC00F0026E487F01027254CD
:104F7100E4900000F0A3F0A3F0A3F0A3F012680303
:104F8100900114E024E8FF900113E034FFFE90004B
:104F91004274FFF0A37419F0A3744AF0A37401F0F2
:104FA1007B10E4FDFC126C07900113E0FCA3E0FD13
:104FB10024CCFFEC34FFFEED24E2FBEC34FFFA904D
:104FC100000EE4F0A37412F0A374F8F0A3E4F07DF2
:104FD10002FC1264E190010F74F8F0A3E4F0126195
:104FE10001EF70030251A9900113E0FEA3E0FF90CD
:104FF1000126E0FCA3E0FDC39FEC9E50E19001156A
:10500100E0FEA3E0FF900128E0FAA3E0FBC39FEAE2
:105011009E50CB900114E024E8FF900113E034FF8F
:10502100FED3ED9FEC9E407BEB9410EA940050730D
:10503100126803900114E024E8FF900113E034FFAB
:10504100FE90004274FFF0A37419F0A3744AF0A318
:105051007401F07B10E4FDFC126C07900003E0FF8B
:10506100A3E090010FCFF0A3EFF0900113E0FCA3B8
:10507100E0FD24CCFFEC34FFFEED24E2FBEC34FF39
:10508100FA90000EE4F0A37412F090010FE0FDA37A
:10509100E0900010CDF0A3EDF07D027C001264E100
:1050A100024FDF900113E0FEA3E0FF24C4FDEE34C4
:1050B100FFFC900126E0FAA3E0FBD39DEA9C50039C
:1050C10002518DEF24E2FFEE34FFFEC3EB9FEA9E17
:1050D100400302518DC3900129E09414900128E00E
:1050E1009400400302518D900113E0FCA3E0FD24E4
:1050F100CCFFEC34FFFEC006C007ED24E2FBEC342C
:10510100FFFA90000EE4F0A37412F0900001E0FEAB
:10511100A3E0FF7C007D05123758ED25E0FFEC335D
:10512100FE74052FF58274013EF583E0FFA3E09044
:105131000010CFF0A3EFF0D007D0067D027C001263
:1051410064E1900001E475F0011237C3AFF0FE7C19
:10515100007D05123758ED25E0FFEC33FE74052F75
:10516100F58274013EF583E0FFA3E090010FCFF0DB
:10517100A3EFF090010FE0FFA3E0900003CFF0A3B5
:10518100EFF07F0A7E00127741024FDF900126E0A7
:10519100FEA3E0FFA3E0FCA3E0FD90010FE0FAA372
:1051A100E0FB1271E0024FDF7F057E0012774102C2
:0251B1004FDFCE
:105B550078D67C007D017BFF7A2679057E007F0A59
:105B65001236C878E17C007D017BFF7A26790F7EAD
:105B7500007F141236C87BFF7A19794E1268099096
:105B85000113E0FAA3E0FB900116E024ECFE90017E
:105B950015E034FF90000EF0A3CEF074FFA3F0A340
:105BA500F07D147C00E4FFFE1264E11275A2900002
:105BB5007F74FFF0A37419F0A37465F0A3EEF0A34E
:105BC500EFF07B017A0079D6123F4D90001B74FFF0
:105BD500F0A374E0F0A37401F0A37400F0A374D6ED
:105BE500F0A37410F0A37401F07B1F7A007D197C7B
:105BF500007F327E0012436BE49000E0F09000E0FD
:105C0500E0FFC39407748094804003025CD1EF25C4
:105C1500E024F5F582E43400F583E0FDA3E090018E
:105C25000FCDF0A3EDF0EF75F019A4FFAEF0242D24
:105C3500FDE43EFCEF2441FFE43E900157F0A3EF65
:105C4500F07B327A007F1E7E001276A19000E0E0A4
:105C550075F019A42437FDE435F0FC7F287E001289
:105C650073D79000D4EEF0A3EFF090007F74FFF0AF
:105C7500A37419F0A3746DF0A3EEF0A3EFF07B010C
:105C85007A0079E1123F4D9000E0E075F019A42407
:105C95002FFDE435F0FC90001B74FFF0A374E0F0D9
:105CA500A37401F0A37400F0A374E1F0A37410F0E1
:105CB500A37401F090010FE0FAA3E0FB7F3C7E00A6
:105CC50012436B9000E0E004F0025C027FDC7E058D
:035CD50002774112
:107741007D047C0CED1D70011C144C70F7EF1F7053
:06775100011E144E70EA57
:01775700220F
:10767B00E4FDFCC3ED9FEE6480F8EC64809850153C
:10768B00E4FBFA0BBB00010AEB64014A70F50DBD7C
:05769B0000010C80DE7F
:0176A00022C7
:03000000026F6725
:0C6F6700787FE4F6D8FD758121026FAE42
:02782100000065
:0A75180042010F0000420111FFFFC5
:10778600C2B4C2C5C2C28FE8D2C200C2C2AF058FA0
:06779600E8D2C2D2B422C9
:10779C00C2B4D2C5C2C28FE8D2C200C2C2AF058F7A
:0677AC00E8D2C2D2B422B3
:05775800E0FCA3E0FDD0
:10775D00AB05AA04AD07E4FF127786EAFFAD03027D
:02776D00779C07
:0977F100AD07AC06ECFF02779C29
:0B77E600C2B4C2C28FE8D2C2D2B422EB
:1077C700C2B4C2C47F017E0012767BAFE87E00D2CE
:0377D700C4D2B465
:0177DA00228C
:05781200C2C50277E68B
:05781700D2C50277E676
:05781C00D2C50277C790
:0977FA00AD07AC06ECFF02779C20
:1076E800AA07ED54FC75F008A4FDEA54F845F0FE2D
:0F76F800EDFFEB54F8131313541FFDEF4DFF225A
:10732100D2C5C2B4C2C47F017E0012767BAFE890A1
:10733100016CE4F0A3EFF0D2C400C2C47F017E006F
:1073410012767BAFE890016CE4F0A3EFF0D2C400B9
:10735100C2C47F017E0012767BAFE890016EE4F03B
:10736100A3EFF0D2C400C2C47F017E0012767BAFCE
:0E737100E8AD07D2C4D2B490016FE0FEEDFF8C
:01737F0022EB
:10746C00900167EBF0A3EAF0A3E9F012781275E84B
:10747C00FFE4F5CC75CBFF90016A74FFF5F0123781
:10748C00C345F0601912781C900167E0FBA3E4750A
:10749C00F0011237C3A9F0FAEF12373480D975CC4A
:0874AC00FFE4F5CB75E8FF22B7
:086FF30090003DEEF0A3EFF069
:106FFB00900114E024FFFB900113E034FFFA9001A1
:10700B0016E024FFFE900115E034FF900065F0A31D
:10701B00CEF0E4FDFCFFFE127074E490003FF0A391
:10702B00F0900113E0FEA3E0FFC3900040E09F90BF
:10703B00003FE09E5032E4FBFAD3900116E09B90A8
:10704B000115E09A401290003DE0FEA3E0FF12779D
:10705B00FA0BBB00010A80E1900040E004F070C124
:08706B0090003FE004F080B941
:0170730022FA
:10760000AB07AA068D828C83C006C007AE83AF820B
:10761000900065EEF0A3EFF0D007D00612707490E2
:0A762000010FE0FEA3E0FF0277FA7D
:0873D700900170EEF0A3EFF04D
:1073DF00D3900114E09F900113E09E400DD39001D4
:1073EF0016E09D900115E09C5004E4FEFF227F22E1
:1073FF00127812900170E0FEA3E0FF12770775E894
:10740F00FFE4F5CC75CBFF12732175CCFFE4F5CB00
:03741F0075E8FF0E
:017422002247
:1075D40075CCFFE4F5CBF592F59175962875951069
:1075E40075B21075B14075B43CF5B343C80875CA9B
:0C75F4000CF5C9D2CAD2A5D2A3D2A522A0
:10772600D2B47F327E00127741C2C37F967E0012AA
:0B7736007741D2C37F327E0002774112
:1059A6001275D41277267F967E001277417DF07CA1
:1059B600787FE512775D7D007C017F0112775D7D42
:1059C600007C077F0212775D7D307C107F031277A3
:1059D6005DE4FDFC7F0412775D7402FDFC7F081216
:1059E600775DE4FDFC7F0912775DE4FD7F0A12779F
:1059F6005DE4FD7F0C12775DE4FD7F0D12775DE4BB
:105A0600FD7F0F12775DE4FD7F1012775D7D077FC6
:105A16001112775DE4FD7F1212775DE4FD7F1312AC
:105A2600775DE4FD7F0712775D7D907C167F10120F
:105A3600775D7D277C027F1112775D7F0A7E0012DB
:105A460077417D9D7C007F1212775D7F0A7E001272
:105A560077417D007C197F1312775D7F0A7E0012E5
:105A660077417D257C007F2912775D7D0D7F2B1286
:105A7600775D7D077F3012775D7403FDFC7F311201
:105A8600775D7D037C007F3212775D7D067C027F29
:105A96003512775D7D087C007F3612775D7D067C4A
:105AA600047F3712775D7D041C7F3812775D7D0792
:105AB6007C007F3912775D7D027C067F3C12775D24
:105AC6007D087C007F3D12775DE4FD7F5012775D97
:105AD6007DEF7F5112775DE4FD7F5212775D7D3F4A
:105AE6000C7F5312775D7D007CA77F6012775D7D0A
:105AF600017C007F6112775DE4FD7F6A12775DE4C9
:105B0600FD7F8012775DE4FD7F8112775DE4FD7F86
:105B16008212775DE4FD7F8312775DE4FD7F841258
:105B2600775DE4FD7F8512775D7D107F9012775D4E
:105B36007D007C067F9212775D7D337C017F0712A4
:0F5B4600775D7D221CE4FF12775D7F01027254B0
:0870740090005FEEF0A3EFF0C5
:10707C00AE04AF05900067EEF0A3EFF0900065E072
:10708C00FFA3E090006BCFF0A3EFF090005FE0FF68
:10709C00A3E0900069CFF0A3EFF0AF0390006DEA8E
:1070AC00F0A3EFF07F5012775D90006B7F51127759
:1070BC00589000697F5212775890006DE0FCA3E065
:1070CC00FD7F5312775D900067E0FCA3E0FD7F200D
:1070DC0012775DA3E0FCA3E0FD7F2112775D7F2298
:0370EC0002781215
:10770700AB07AA068D828C83C006C007AE83AF8203
:0F771700900065EEF0A3EFF0D007D0060270747B
:1072540090011EE4F0A37450F0A3E4F0A37452F080
:1072640090011AE4F0A37422F0A3E4F0A37422F0D2
:10727400EF14600304801F9001137401F0A37440A1
:10728400F0A3E4F0A374F0F07D387C107F03127750
:107294005DE4FDFC801E900113E4F0A374F0F0A300
:1072A4007401F0A37440F07D307C107F0312775D8D
:0A72B4007D007C017F0112775D224E
:1075A20078727C017D017BFF7A7879217E007F02EF
:1075B2001236C87B017A01797290016AE4F0A374F1
:1075C20002F0E4FF12746C900172E0FEA3E0FDEDA4
:0175D200FFB9
:0175D3002295
:1075370056583A0056793A004348583A0043485952
:107547003A0041646A757374204F4B2100546F757C
:10755700636820416E79776865726520546F2043B0
:087567006F6E74696E7565001A
:1075220042012E3D054201302BD54201220F32424B
:0475320001240154DB
:06780C00A2B6E433FF22E6
:09780300D2CAD2A5D2A3D2A5225B
:1076C600E4FEC2A5EEC39408748094805013EF259F
:1076D600E0FF92A3C2A5000000D2A50000000E8024
:0176E600E3C0
:0176E7002280
:10762A00E4FDFFFEEDC3940C74809480501BEF259B
:10763A00E0FFEE33FED2A5000000C2A50000003034
:09764A00A404EF4401FF0D80DBF4
:017653002214
:10776F00C2CA1276C6D2A500000000C2A500000052
:06777F000012762AD2CAB6
:0177850022E1
:025FAA00A90745
:105FAC00E4900078F0A3F0FBFAAF0112776FAC0627
:105FBC00AD07EB25E0FFEA33FE745A2FF58274002F
:105FCC003EF583ECF0A3EDF00BBB00010AEB640F84
:105FDC004A70D6E4FAFBEB2401FEE43A900058F048
:105FEC00A3CEF0900058E0FEA3E0FFC3940FEE9414
:105FFC000040030260A6EF25E0FFEE33FE745A2F3B
:10600C00F58274003EF583E0FCA3E0FDEB25E0FF98
:10601C00EA33FE745A2FF58274003EF583E0FEA33A
:10602C00E0FFD39DEE9C405E90007AEEF0A3EFF083
:10603C00900059E025E0FF900058E033FE745A2F91
:10604C00F58274003EF583E0FCA3E0FDEB25E0FF58
:10605C00EA33FE745A2FF58274003EF583ECF0A3FC
:10606C00EDF090007AE0FCA3E0FD900059E025E013
:10607C00FF900058E033FE745A2FF58274003EF501
:10608C0083ECF0A3EDF0900059E004F06003025FA4
:10609C00EF900058E004F0025FEF0BBB00010AEB3D
:1060AC00640E4A6003025FE2E4900078F0A3F0FA19
:1060BC007B05EB25E0FFEA33FE745A2FF582740062
