:100AAC000D0A55415254312054696D656F7574208F
:100ABC007265636569766520656E64210D0A004C6C
:100ACC00434D206175746F20646973706C61792E6D
:100ADC002E2E0D0A004D61785F61646472203D20FA
:100AEC00256C752C20466C6173685F6164647220A0
:100AFC003D20256C750D0A00537461727420466C90
:100B0C0061736820436869702045726173652E2E8D
:100B1C002E0D0A00466C617368204368697020458D
:100B2C0072617365204F4B210D0A00526561647927
:100B3C0020746F20726563656976652064617461E9
:060B4C002E2E2E0D0A0002
:10053A0043BA80120E831210F01210D1120FB37F39
:10054A0001120DA4D2AF120BDE120EE512077D7B4B
:10055A00007A007908751100751204E4FFFE120E84
:10056A00B4AF09E4FCFDFE7810120075C004C005A2
:10057A00C006C007AF08E4FCFDFE7818120075D06B
:10058A0003D002D001D000EF4BFFEE4AFEED49FD49
:10059A00EC48FCC004C005C006C007AF0AE4FCFD75
:1005AA00FE7808120075D003D002D001D000EF4BBC
:1005BA00FBEE4AFAED49F9EC48F8EB450BF537EA58
:1005CA00F536E9F535E8F53474FFFFFEFDFCAB3787
:1005DA00C31200517008F537F536F535F534200E9B
:1005EA004320117A201577D3E53D9400E53C940029
:1005FA00406C120E52D21590FA7174A0F0E42543A1
:10060A00F543E5423401F542E43541F541E435402C
:10061A00F540AF43AE42AD41FC75100175110012B1
:10062A000D5B803A300E37201134301231C212126B
:10063A00019EAF43AE42AD41AC4075100175110049
:10064A00120D0FE42543F543E5423401F542E43542
:10065A0041F541E43540F54090FA3974A0F0200B99
:10066A00030205E8C20B120925300F580539E5398E
:10067A0070020538C394E8E53894034047E4F53836
:10068A00F539C20EAF37AE36AD35AC34AB43AA42FC
:10069A00A941A840120051400BE4F543F542F54147
:1006AA00F540C210753C02753D5812000E120EE557
:1006BA00120FB3AF43AE42AD41AC40751001751194
:1006CA0000120D5BD3E544940074809480500302B9
:1006DA0005E81544E54460030205E812019EAF43AC
:1006EA00AE42AD41AC4090FA3CE0751000F51112F3
:1006FA000D0F90FA3CE0FFE4FCFDFEE5432FF543C5
:10070A00EE3542F542ED3541F541EC3540F540858F
:10071A004337854236854135F53490FA39E4F07B22
:10072A00FF7A0A79AC120240AF37AE36AD35AC3437
:10073A0078181200628F08AF37AE36AD35AC347810
:10074A00101200628F09AF37AE36AD35AC34780877
:10075A001200628F0A85370BE4FFFE1210AD7B0090
:10076A007A007908751100751204E4FFFE120E1B57
:03077A000205E88D
:10019E00301017C210740090FA3DF0A37400F07482
:1001AE000190FA25F0A37400F022D210740190FA97
:1001BE003DF0A37400F0740090FA25F0A37400F0E3
:0101CE00220E
:100E5200301017C210740190FA75F0A37400F07488
:100E62000090FA27F0A37400F022D210740090FAD6
:100E720075F0A37400F0740190FA27F0A37400F0E7
:010E8200224D
:101056007DAC7C0DED1D70011C144C70F7EF1F70FC
:06106600011E144E70EAA9
:01106C002261
:100E8300E4F593F594F591F592F595F596F5B1F5AD
:100E9300B2F5B3F5B4F5C9F5CAF5CBF5CCF5E1F583
:100EA300E275CCFFF5CB75B210F5B175B43CF5B373
:010EB300221C
:0E10F000758E80758C77758A48D2A9D28C22B5
:03000B000201CF20
:0301CF00D20B321E
:1009250020B273300C03020A1A0531E53170020555
:1009350030C394E8E53094034049C209D20C7BFFEB
:100945007A0A79CB12024090FA21E4F0A3F090FAEA
:1009550039F0A3F0D20FF543F542F541F540C21049
:10096500753C02753D5812000E120EE5120FB3AF1D
:1009750043AE42AD41AC40751001751100120D5BDF
:10098500020A1AC3E531941EE53094005003020AA9
:100995001AD209020A1A300975C20990FA21E4F03F
:1009A500A3F090FA39F0A3F0C20EC20F7BFF7A0ACA
:1009B50079E185371285361185351085340F8543E4
:1009C50016854215854114854013120240AF37AE96
:1009D50036AD35AC34AB43AA42A941A840C3120099
:1009E50051400BE4F543F542F541F540C210753C25
:1009F50002753D5812000E120EE5120FB3AF43AE4D
:100A050042AD41AC40751001751100120D5BE4F566
:100A150030F531C20C20B365300D03020AAB053346
:100A2500E53370020532C394E8E53294034040C2D1
:100A35000AD20D90FA71E4F0A3F090FA21F0A3F038
:100A450090FA39F0A3F0D20EC210F543F542F54104
:100A5500F540F537F536F535F5347BFF7A0B790436
:100A65001202401210C07BFF7A0B7920020240C3AC
:100A7500E533941EE5329400402CD20A22300A1F39
:100A8500C20AD20E853743853642853541853440C5
:100A95007BFF7A0B7937120240120F44120EE5E400
:070AA500F532F533C20D220A
:1000EB00CEB4BCECB2E2B5BD504D32354C563034CB
:1000FB00302F573235583430434C2F573235513817
:10010B00304256210D0A00BCECB2E2B5BD504D3267
:10011B00354C56303430210D0A00BCECB2E2B5BD83
:10012B00573235583430434C210D0A00BCECB2E247
:10013B00B5BD5732355138304256210D0A00D6C65F
:10014B00D4ECC9CC494431203D2030782530326283
:10015B0058000D0A202020202020494432203D2029
:10016B0030782530326258000D0A202020C9E8B1C2
:10017B00B84944203D20307825303262580D0A00B2
:02113800C110E4
:100EE50090FA21E4F0A3F090FA2074E5F090FA234B
:100EF50074FFF0740190FA25F0A37400F07400A358
:100F0500F0A37400F0A37401F090FA217481F0222B
:100BDE00E5A254F34404F5A243CE8043CE4053CE57
:100BEE00DF43CE1053CEF753CEFB53CEFCC2A5D26D
:100BFE00A375CDC0120CC2120CC2E53B70087BFF70
:100C0E007A0079EB804CE53B640170087BFF7A013A
:100C1E007912801AE53B640270087BFF7A01792510
:100C2E00800CE53B640370097BFF7A017937120271
:100C3E00407BFF7A017949853E0F1202407BFF7A95
:100C4E0001795D853F0F1202407BFF7A0179738532
:060C5E003A0F12024022D1
:0C1119008FCFE5CD548060FA75CDC02268
:0F10E10075CFFFE5CD548060FA75CDC0AFCF223B
:100CC200C2A27FAB121119E4FF12111912111912EB
:100CD20011191210E18F3E1210E18F3A1210E18FBA
:100CE2003FD2A2E53E649D7009EF647F7004753BBC
:100CF2000122AF3A7E00EF64127004753B0222EFCC
:0D0D020064134E7004753B0322E4F53B22A0
:0C110C00C2A27F051211191210E1D2A23C
:0111180022B4
:10106D0012110CD3EF94007480948050F3C2A27FC0
:07107D0006121119D2A22294
:1010C000E53B600C12106DC2A27FC7121119D2A2AB
:0110D00022FD
:100D5B008F0F8E0E8D0D8C0CE5114510603AE53B17
:100D6B0060362011FD12110CD3EF94007480948027
:100D7B0050F3C2A27F03121119AF0D121119AF0E4E
:100D8B00121119AF0F121119D211E5111490FA2388
:090D9B00F090FA21E04440F0223E
:100D0F008F0F8E0E8D0D8C0CE5114510603DE53B60
:100D1F0060392011FD12110CD3EF94007480948070
:100D2F0050F312106DC2A27F02121119AF0D1211E2
:100D3F0019AF0E121119AF0F121119D211E51114AB
:0C0D4F0090FA23F090FA21E04440F022DA
:03018B00021084DB
:10108400C0E0C083C08290FA22E4F0C211D2A2D0A0
:0610940082D083D0E0329F
:080003008F993099FDC299228A
:05018E00AE07020003B2
:100F440090FA39E4F090FA387480F090FA3AE4F0C8
:100F5400A374FFF0740090FA3DF0A37400F090FACB
:050F64003974A1F02228
:100FF300AD07AC06538EEF538EF7438E048CD6AFFA
:0A100300058FD753AFFB438E102278
:100DA400EF6402700C438E017FB57EFF120FF38057
:100DB40018C28E538EFE438E405389BF5389CF751C
:100DC4008DFF758BB5C2ABD28EE598543F4440F588
:0C0DD40098D2ACD29C53A23FE4F544221C
:0300230002112F98
:09112F00309805C2987544643241
:03019300020F69EF
:100F6900C0E0C083C08290FA32E030E006E054FE6F
:100F7900F0D21390FA32E030E204E054FBF0D08270
:050F8900D083D0E0322E
:03019B00020F8EC2
:100F8E00C0E0C083C08290FA3AE030E006E054FE42
:100F9E00F0D21290FA3AE030E104E054FDF0D08243
:050FAE00D083D0E03209
:04113A00022300008C
:10000E00852712852813AB26AA25E4FDFCFFFE12D8
:05001E000DE0C2B42258
:10109A0090FE54EFF0C2B490FE527484F02014FD16
:0310AA00D2B4229B
:0510260012109AE4FF26
:10102B0090FE54EFF0C2B490FE527485F02014FD84
:03103B00D2B4220A
:0A112500AE0512109AAF0602102B5F
:05019600AF2C02109ADD
:1010D10090FE507484F0A37409F090FE53E4F02262
:100FB30090FA71E4F090FA7374FFF0740090FA758C
:100FC300F0A37400F090FA72E4F090FA707482F077
:050FD300A37480F02270
:100FD800D2B47F327E00121056C2C37F967E0012B2
:0B0FE8001056D2C37F327E000210566C
:10077D00120FD87FCF1210267FD912102B7F301277
:10078D00102B7FED12109A7F6412102B7F03121025
:10079D002B7F1212102B7F8112102B7FE812109AD3
:1007AD007F8512102B7F1012102B7F7A12102B7F4A
:1007BD00CB12109A7F3912102B7F2C12102BE4FFC5
:1007CD0012102B7F3412102B7F0212102B7FF71279
:1007DD00109A7F2012102B7FEA12102612102B7FF9
:1007ED00C012109A7F1B12102B7FC112109A7F120C
:1007FD0012102B7FC512109A7F0812102B7F261214
:10080D00102B7FC712109A7FB712102B7F36121044
:10081D009A7F0812102B7F3A12109A7F5512102BC7
:10082D007FB11210267F1A12102B7FB612109A7FED
:10083D000A12102B7FA212102B7FF21210267F2688
:10084D0012109A7F0112102B7FE012109A7F0F1257
:10085D00102B7F1D12102B7F1A12102B7F0A1210D6
:10086D002B7F0D12102B7F0712102B7F4912102B8F
:10087D007F6612102B7F3B12102B7F0712102B7FE0
:10088D001112102B7F0112102B7F0912102B7F05D7
:10089D0012102B1F12102B7FE11210267F18121031
:1008AD002B7F1D12102B7F0212102B7F0F12102B7E
:1008BD007F0412102B7F3612102B7F1312102B7FFB
:1008CD004C12102B7F0712102B7F1312102B7F0F42
:1008DD0012102B7F2E12102B0F12102B7F051210C2
:1008ED002B7F2B12102612102B0F12102B7F3F1265
:1008FD00102B7F2A12102612102B12102B7FEF12A5
:10090D00102B7F1112109A7F787E001210567F29BE
:08091D0012109AE4FF020C64C1
:100DE0008E0C8F0DAF2E12109AE50CFF12102BAF48
:100DF0000D12102BAF0212102BAF0312102BAF2FBE
:100E000012109AAF0412102BAF0512102BE512FF2F
:0B0E100012102BAF1312102B020196E2
:100C6400752E2A752F2B752C2C752D2EEF14601ACA
:100C7400146027146034240370437525007526F02E
:100C84007527017528407D08802E7525017526403D
:100C94007527007528F07DB8801E7525007526F02F
:100CA4007527017528407DD8800E7525017526406D
:0E0CB4007527007528F07D687F361211252205
:0301DB0002103ED1
:10103E00C0E0C083C08290FE53E030E004E4F0C212
:08104E0014D082D083D0E032FF
:0301D300020F1503
:100F1500C0E0C083C08290FA72E030E01BC215E5E4
:100F25003D153D7002153CE53D453C700690FA7156
:0F0F3500F0D2B490FA72E4F0D082D083D0E032E0
:0E10FE00E4F5C7F5C5F5C675C3FF75C4FF223E
:06100D008CC3AF058FC487
:10101300A2AF92D5C2AF75C65A75C6A50000A2D5B8
:0310230092AF2267
:100EB400AD07AC0675C78075F52375C50112100D15
:100EC400E5C212003F0DBD00010C740129F9E43A9A
:100ED400FAE51215127002151114451170DF021093
:010EE400FE0F
:1010AD00AD07AC0675C78075F52375C50312100D18
:0310BD000210FE20
:100E1B00AD07AC0675C78075F52375C5028CC3AFDE
:100E2B00058FC4120026F5C21210130DBD00010C64
:100E3B00740129F9E43AFAE512151270021511142E
:070E4B00451170D90210FEF1
:03000000020B529E
:0C0B5200787FE4F6D8FD758144020B9911
:10002600BB010689828A83E0225002E722BBFE02D8
:09003600E32289828A83E493220B
:10003F00BB010689828A83F0225002F722BBFE01A0
:02004F00F3229A
:10005100EB9FF5F0EA9E42F0E99D42F0E89C45F005
:01006100227C
:10006200E8600FECC313FCED13FDEE13FEEF13FF7C
:03007200D8F122A0
:10007500E8600FEFC333FFEE33FEED33FDEC33FCE9
:03008500D8F1228D
:1001DE00E51B240FF8E6051B22780C300702780F7A
:1001EE00E475F0011200B50200262000EB7F2ED23E
:1001FE00008018EF540F2490D43440D4FF30040BF9
:10020E00EF24BFB41A0050032461FFE51C600215F1
:10021E001C051FE51F7002051E30070D780CE475D6
:10022E00F0011200B5EF02003F02018E7403D207F7
:10023E008003E4C207F51B8B0C8A0D890EE4F51CB6
:10024E00F51EF51FE51C60077F2012021980F5755B
:10025E001DFFC201C200C202C203C205C206C2080D
:10026E001201E7FF700D3007057F0012022AAF1F43
:10027E00AE1E22B4255FC2D5C2041201E7FF24D000
:10028E00B40A00501A75F00A781C30D50508B6FF6E
:10029E000106C6A426F620D5047002D20380D92406
:1002AE00CFB41A00EF5004C2E5D20402042AD201E0
:1002BE0080C6D20080C0D20280BCD2D580BAD20510
:1002CE0080B47F201202192002077401B51C004071
:1002DE00F11201DEFF120219020252D208D206807A
:1002EE00951201DEFB1201DEFA1201DEF94A4B70A5
:1002FE000679FB7A047BFF20022EE51C602A7E0025
:10030E008E8275830012008860060EEE651D70F0F9
:10031E00C2D5EBC0E0EAC0E0E9C0E0EE120471D055
:10032E00E0F9D0E0FAD0E0FB120026FF60AAEBC0A5
:10033E00E0EAC0E0E9C0E0120219D0E02401F9D0F1
:10034E00E03400FAD0E0FBE51D0460DCD51DD98059
:10035E00877BFF7A04796DD202809C7910800279B6
:10036E0008C206C2088008D2D5790A8004790AC26A
:10037E00D5E51D047002F51DE4FAFDFEFF1201DE47
:10038E00FC7B082001131201DEFD7B1030000A12E7
:10039E0001DEFE1201DEFF7B20EC3382D592D550BA
:1003AE0013C3E43000069FFFE49EFEE42001039D8C
:1003BE00FDE49CFCE4CBF8C201EC700CCFCECDCCAE
:1003CE00E824F8F870F38017C3EF33FFEE33FEED39
:1003DE0033FDEC33FCEB33FB994002FB0FD8E9EB1A
:1003EE00300105F8D0E0C448B201C0E00AEC4D4E31
:1003FE004F78207B0070C2EAB51D0040BCC0E012F1
:10040E000473D0F0D0E0200104C4C0E0C4B201C037
:10041E00F0120202D0F0D5F0EB0202521200C50229
:10042E00EF5303695802C04C02BC42036D4F037573
:0F043E004403754902D543037B55035F46035FB3
:10044D0045035F47051B5002C42D02C82E02EB2B3E
:10045D0002CC2302E92005042A028448000002E3AD
:10046D003F3F3F00790AA2D5200314300509B9108A
:10047D00020404B9080104A2D5200602500104208B
:10048D0002689202B51C005034C0E07F2030031981
:10049D007F30A20272067205500F1204CAC202C248
:1004AD0006C205C2087F30800F300503E9C0E01297
:1004BD000219300503D0E0F9D0E0B51CCC3005179A
:1004CD007F30B9100C1202197F583004077F7880E5
:1004DD0003B908031202193002057F2D0202197F9C
:1004ED00202008F87F2B2006F322920280CF286E61
:1004FD00756C6C2900D2011201DE3001F8C2017851
:10050D001C30D50108F60202842D504349581201C2
:10051D00DE2403B405004001E49005169312020A8F
:0D052D00743A12020AD203751C040203691D
:100B5E0002053AE493A3F8E493A34003F68001F26E
:100B6E0008DFF48029E493A3F85407240CC8C33398
:100B7E00C4540F4420C8834004F456800146F6DF67
:100B8E00E4800B0102040810204080901138E47EAE
:100B9E00019360BCA3FF543F30E509541FFEE4935C
:100BAE00A360010ECF54C025E060A840B8E493A323
:100BBE00FAE493A3F8E493A3C8C582C8CAC583CA4E
:100BCE00F0A3C8C582C8CAC583CADFE9DEE780BE06
:01113E0000B0
:10008800BB010CE58229F582E5833AF583E022502D
:1000980006E92582F8E622BBFE06E92582F8E22277
:0D00A800E58229F582E5833AF583E4932291
:1000B500FAE6FB0808E6F925F0F618E6CA3AF6224C
:1000C500D083D082F8E4937012740193700DA3A3CA
:1000D50093F8740193F5828883E4737402936860DE
:0600E500EFA3A3A380DFDE
:00000001FF
