:1001DE000000000000000000000000000000040409
:1001EE0004040404000004000014140A00000000BB
:1001FE0000000000000024243F2412123F121200BF
:10020E0000081C2A0A0C18282A2A1C08000012159D
:10021E000D0D162C2C2A12000000040A0A063215A7
:10022E001549360000060402000000000000000020
:10023E0000201010080808080810102000020404FE
:10024E000808080808040402000000082A1C1C2ADA
:10025E00080000000000000808087F0808080000D9
:10026E000000000000000000000604020000000074
:10027E0000003F0000000000000000000000000031
:10028E0000060600002010100808040404020201F3
:10029E0000001C222222222222221C000000080C16
:1002AE000808080808081C0000001C22222010085C
:1002BE0004223E0000001C222020182020221C00B8
:1002CE0000001010181414123E10380000003E02E8
:1002DE00021E222022221C0000001824021A2622AE
:1002EE0022221C0000003E221010100808080800F0
:1002FE0000001C2222221C2222221C0000001C2292
:10030E002222322C20120C000000000000040000FB
:10031E0000000400000000000008000000000808B3
:10032E000000201008040204081020000000000045
:10033E00003F003F000000000000020408102010E3
:10034E000804020000001C222220100808000800E9
:10035E0000003C425955555539423C0000000808F2
:10036E001414141C2222770000001F2222221E22A7
:10037E0022221F0000003C220101010101221C006B
:10038E0000000F122222222222120F0000003F2212
:10039E0002121E1202223F0000003F2202121E1203
:1003AE000202070000001C120101013911120C009B
:1003BE000000772222223E222222770000003E08F1
:1003CE000808080808083E0000003E08080808084B
:1003DE0008080809000037120A060E0A1212370022
:1003EE00000007020202020202223F0000007736DE
:1003FE0036362A2A2A2A6B0000007726262A2A2A2F
:10040E003232270000000C122121212121120C0072
:10041E0000001F2222221E020202070000000C1200
:10042E00212121212D121C3000001F22221E0A1212
:10043E001222670000003C220204182020221E0017
:10044E0000003E2A0808080808081C000000772251
:10045E002222222222221C000000772222141414AF
:10046E001408080000006B2A2A2A2A3614141400D5
:10047E0000003312120C0C0C121233000000772203
:10048E001414080808081C0000003E121008080882
:10049E0004243E0000380808080808080808083830
:1004AE00000002020404080810102020000E0808A4
:1004BE00080808080808080E0814000000000000CC
:1004CE00000000000000000000000000000000001E
:1004DE000608000000000000000000000000000000
:1004EE00001C223824227C0000000302021E22225D
:1004FE0022221E0000000000003C220202221C00EC
:10050E0000003020203C222222227C00000000002D
:10051E00001C223E02221C0000001824041F0404AA
:10052E0004041E0000000000003C12120C021C22EB
:10053E0000000302021A2622222277000000080081
:10054E00000E080808083E0000001000001C1010E5
:10055E001010101000000302023A120A0E12370099
:10056E0000000E080808080808083E0000000000F9
:10057E00001F2A2A2A2A6B0000000000001B2622D8
:10058E002222770000000000001C222222221C00E2
:10059E0000000000001F222222221E020000000086
:1005AE00003C222222223C200000000000360C04D7
:1005BE0004041E0000000000003C220C10221E004D
:1005CE0000000004041F04040424180000000000AE
:1005DE000033222222326C0000000000006322222F
:1005EE001414080000000000006B2A2A2A141400BC
:1005FE00000000000037120C0C123B00000000003F
:10060E00007722141408080800000000003E1208AB
:10061E0008243E000030101010100810101010307A
:10062E00080808080808080808080808000604044E
:10063E0004040804040404062C1200000000000048
:10064E00000000000000000000000000000000009C
:10065E00000000000000000000000000000000008C
:10066E000000000808080808080800000808000034
:10067E0000482424120000000000000000000000CA
:10068E000000004848487E2424247E2424240000B0
:10069E000000103C5252121C30505052523C10105E
:1006AE00000000222515150D2A5854545222000020
:1006BE000000000C1212120A76252919916E000004
:1006CE00000604040200000000000000000000000C
:1006DE0000402010100808080808081010204000DC
:1006EE000002040808101010101010080804020070
:1006FE000000000008086B1C1C6B080800000000BE
:10070E000000000000101010FE101010000000007D
:10071E0000000000000000000000000006040402BB
:10072E0000000000000000007E000000000000003D
:10073E00000000000000000000000000060600009F
:10074E0000004020202010100808080404020200B7
:10075E000000001824424242424242422418000045
:10076E00000000101C10101010101010107C000053
:10077E000000003C4242424020100804427E00002D
:10078E000000003C4242402018204042423C000003
:10079E0000000020303028242422FE2020F8000003
:1007AE000000007E0202021E22404042221C000077
:1007BE00000000182402023A464242424438000029
:1007CE000000007E422020101008080808080000D3
:1007DE000000003C4242422418244242423C0000A7
:1007EE000000001C22424242625C4040241800007D
:1007FE00000000000000181800000000181800008B
:10080E0000000000000000080000000000080808BA
:10081E0000000040201008040204081020400000D0
:10082E000000000000007E00007E000000000000BE
:10083E0000000002040810204020100804020000EE
:10084E000000003C42424620101010001818000014
:10085E000000001C225A55555555553A423C000091
:10086E000000000808181414243C224242E700003D
:10087E000000001F2222221E22424242221F00009E
:10088E000000007C4242010101010142221C0000D5
:10089E000000001F2242424242424242221F0000FA
:1008AE000000003F4212121E12120242423F00008E
:1008BE000000003F4212121E121202020207000036
:1008CE000000003C2222010101712122221C0000A5
:1008DE00000000E7424242427E42424242E70000AE
:1008EE000000003E0808080808080808083E000036
:1008FE000000007C10101010101010101010110FAE
:10090E000000007722120A0E0A121222227700002D
:10091E00000000070202020202020202427F0000F1
:10092E000000007736363636362A2A2A2A6B000021
:10093E00000000E346464A4A5252526262470000A5
:10094E000000001C2241414141414141221C000056
:10095E000000003F424242423E02020202070000F5
:10096E000000001C224141414141414D321C6000BA
:10097E000000003F4242423E1212222242C70000B5
:10098E000000007C4242020418204042423E000019
:10099E000000007F4908080808080808081C000025
:1009AE00000000E74242424242424242423C0000C4
:1009BE00000000E742422224241414180808000004
:1009CE000000006B2A2A2A2A2A3614141414000056
:1009DE00000000E7422424181818242442E70000DF
:1009EE00000000772222141408080808081C0000D2
:1009FE000000007E2120101008040442423F000037
:100A0E000078080808080808080808080808780088
:100A1E0000000204040408080810102020204040A2
:100A2E00001E1010101010101010101010101E00BC
:100A3E00001824000000000000000000000000006C
:100A4E00000000000000000000000000000000FF99
:100A5E00000608000000000000000000000000007A
:100A6E00000000000000001C22302C22326C00001E
:100A7E00000000000302021A26424242261A00001B
:100A8E00000000000000003844020202443800005A
:100A9E00000000006040407C4242424262DC0000A6
:100AAE00000000000000003C42427E02423C00007A
:100ABE00000000003048083E08080808083E000004
:100ACE00000000000000007C22221C023C42423C3E
:100ADE00000000000302023A4642424242E7000092
:100AEE000000000C0C00000E08080808083E00006C
:100AFE000000003030000038202020202020221E50
:100B0E000000000003020272120A0E122277000089
:100B1E00000000080E08080808080808083E000033
:100B2E00000000000000007F9292929292B70000A7
:100B3E00000000000000003B4642424242E7000037
:100B4E00000000000000003C42424242423C0000D5
:100B5E00000000000000001B26424242261A020737
:100B6E00000000000000005864424242645840E019
:100B7E0000000000000000774C040404041F000075
:100B8E00000000000000007C42023C40423E00009B
:100B9E00000000000008083E080808084830000061
:100BAE0000000000000000634242424262DC00008E
:100BBE000000000000000077222214140808000034
:100BCE0000000000000000DB91525A2A242400008D
:100BDE00000000000000006E241818182476000093
:100BEE0000000000000000E7422424181808080640
:100BFE00000000000000007E22100808447E000065
:100C0E0000C0202020202020102020202020C000E6
:100C1E0010101010101010101010101010101010C6
:100C2E00000304040404040408040404040403007C
:100C3E00045A200000000000000000000000000028
:100C4E000000000000000000000000000000000096
:100C5E00000027FC140414A48110420840401040E8
:100C6E0017FC2040E0E0215022482C462040004056
:100C7E00C9EE11041124112411241124FD24112470
:100C8E0011241124112411241D24E12442240204D0
:100C9E000404DBDA00007FFC400440045FF44104EE
:100CAE0041044FE44104414441245FF440044004B4
:100CBE007FFC4004B9FA08200820FFFE0820082017
:100CCE00020001000080040824042402440284105F
:100CDE00041003F00000D0BE01000100010001006D
:100CEE000100010002800280044004400820082018
:100CFE001010200840048002C8CB000000007FFCCA
:100D0E0001000100010001000100010001000100CD
:100D1E0001000100FFFE00000000B9A420003E7C8F
:100D2E0048440844FF441444227C40001FF0101035
:100D3E0010101FF0101010101FF01010D6C710401A
:100D4E0024444248FF70014000427E42423E42002F
:100D5E007E44424842707E4042424A42443EC4DC97
:100D6E0008101D10F09010901010FD10109038907B
:100D7E003410501E53F09010101010101010101050
:100D8E00BFC610201020102013FEFC2010201020B3
:100D9E0015FC18843088D0481050102010505188FF
:100DAE002606BCBC02000200FFFE040004000FF089
:100DBE00081018102FF0481088100FF008100810A7
:100DCE0008500820D3D000007BF84A08520853F888
:100DDE00620852084BF84A444A486A305220421080
:100DEE00428843064200CFDE008004800480084023
:100DFE0008401020201042088206040004400820FB
:100E0E0010203FF010100000B9AB00003FF80008B2
:100E1E0000087FE8000800081F88108810881088D6
:100E2E0010881F88108800280010CBBE0200010019
:100E3E007FFE4002820402007FFC040004800880D2
:100E4E0009001100222044108FF80408BAEA0FE0BE
:100E5E00082008200FE0082008200FE000007EFC8C
:100E6E00428442847EFC428442847EFC4284BEA73D
:100E7E0000800080FC8004FC050449082A401440D0
:100E8E00104028A024A04510811002080404080276
:100E9E00BBB600002080133C122402240224F2244C
:100EAE001224122412B4132812201020282047FED8
:100EBE000000D3AD0900090011FC320454489950CA
:100ECE001148124414441140108002005104511272
:100EDE0090120FF0C4FA10401040204023FC4840FE
:100EEE00FA48124822484248FBF84048004018424F
:100EFE00E042403E0000B4BF080008001FE0202082
:100F0E004040BFF82108210821083FF820002002A8
:100F1E00200220021FFE0000C9AB2040204027FC0B
:100F2E00204023F8FA0823F8220823F8220823F891
:100F3E003A08EFFE411002080404CCEE0200010054
:100F4E00FFFE04000400082010103FF8044804407F
:100F5E0004400440084408441044603CB3E42000BC
:100F6E0021FE3D005100910011FC1104FF041104FB
:100F7E00110411FC29002500450041FE8000BED859
:100F8E0000007F8412041208121012221202FFC4F3
:100F9E00120812101222120222042208421082603B
:100FAE00D0CE0000FFFE000000004FE4492449248B
:100FBE004FE44924492449244FE4400440047FFC73
:100FCE000004BBAD00007FFC40044FE448244FE416
:100FDE0040045FF450145114511452944444482464
:100FEE007FFC4004D4B2000000007FFC0000000033
:100FFE00000000003FF800000000000000000000AC
:10100E00FFFE00000000C800080008001FE02020BE
:10101E004040BFF8210821083FF8210821083FF879
:10102E002108410841288010BDC700007FFC420402
:10103E00420447E44C445284410446C4783C430481
:10104E004084460441847FFC4004CDBC00401040E7
:10105E001040104010401FFC1000100010001FE048
:10106E00102010201020202020204020C6AC000090
:10107E001FF0101010101FF0101010101FF0044071
:10108E0044442444144814500440FFFE0000CFD4BE
:10109E0000003FF80000000000000000FFFE01000D
:1010AE000100111011082104410281020500020005
:1010BE00CABE08200820FFFE0820001000F83F00DE
:1010CE001110082001007FFC054009203118C106CF
:1010DE000100B2CB1010082004403FF8210821086F
:1010EE003FF8210821083FF801000100FFFE010032
:1010FE0001000100B5A501000100010001003FF84B
:10110E00210821082108210821083FF821080100A3
:10111E00010001000100D6D008200820FFFE0820A3
:10112E00010001001FF0111011101110FFFE0280BE
:10113E00044008203018C006D3A2020001000100AE
:10114E00FFFE10101010082008200440028001003D
:10115E000280044008203018C006CEC41040102073
:10116E0023FE22024800F9FC1000200043FEF82066
:10117E00412801241A22E42240A00040D7DB0100BE
:10118E0001000280044008203018CFE60000000065
:10119E001FF010101010101010101FF01010BACFFA
:1011AE00020001007FFC00001FF010101FF0000075
:1011BE007FFE40028FE40820082010222022C01E4D
:1011CE00C1C1010000803FFE222022203FFC2220D0
:1011DE00222023E020002FF02410422041C0863030
:1011EE00380EB6C8000427C414441454855445540C
:1011FE004554155415542554E55421042284224493
:10120E0024140808B2E2002820241024102007FE1F
:10121E000020F02017E0112011101110151019CA1E
:10122E00170A02060002CAD408001DFCF1041104BC
:10123E001104FDFC1000300039FE5420542091FCA6
:10124E001020102013FE1000B3CC010000803FFED2
:10125E00200023F8201020A020402FFE2042204402
:10126E0020404040404081400080D0F2000047FCCA
:10127E002444244405F40444E44427FC240425F4C3
:10128E0025142D1435F4240404140808B5F70100B0
:10129E0021081108091009200100FFFE0440044036
:1012AE0004400440084208421042203EC000B9E209
:1012BE000808481C49E0490049007DFC414441446E
:1012CE00794449284928491049104A284A448C82B1
:1012DE00B0E6100013FC11041104FD0410883088D0
:1012EE0038885450545090201020105010881104FB
:1012FE001602C8A80208071C38E0208020803E8015
:10130E0022FE228822883E882088208841084108B3
:10131E0082080408CBF902000200FFFE040004005C
:10132E000FF0081018102FF0481088100FF008104A
:10133E00081008500820D3D000003FF820082008DD
:10134E003FF8241022202FF8222022203FFC2220BA
:10135E004220442084200820C6C104407FFC044063
:10136E001FF010101FF010101FF00400FFFE1110E0
:10137E003FF8D116115011200100C4BB20801080FF
:10138E0010FE0100FE0021FC20243C2424A024A0F9
:10139E0024BC24A024A04560553E8A00D000202005
:1013AE0020202020FDFC4020504093FEFC40108069
:1013BE0011FC1C04F0885050102010101010D7AAE9
:1013CE000040004000400040FFFE00400040004052
:1013DE00104008400840004000400040014000809E
:1013EE00B4E70020202011FC1020002003FEF002A4
:1013FE00109410501110109013FE142818441082DF
:10140E000302B6C104000E007800087C0844FF44B5
:10141E00084418441C442A442A444844887C0844FE
:10142E0008000800BACD100008FE7F102220147CA0
:10143E007F444454485452544454485451544228BE
:10144E00442488423082D1D5084008400FFC104019
:10145E00104033F8320853F8920813F8120813F8B4
:10146E00120812081FFE1000D6B500000000000082
:10147E001800000CFFFC06C00C00C00C00C8CC000D
:10148E0018607030303860180CC310000300000371
:10149E000000FFFE040F80061BC00C1BC00C336047
:1014AE0018733018E31839C30C318304100300008D
:1014BE000000C9EE0000000000000C300C0C300CD7
:1014CE000C31880C31880C31880C31887FB1880C36
:1014DE0031880C31880C31880C31880C31880C31F4
:1014EE00880C31880F31887C618860618800618842
:1014FE0000C00801800C000000000000DBDA0000D4
:10150E00000000003FFFFC3FFFFC30000C30000CE1
:10151E0033FFCC33FFCC30180C30180C30180C3194
:10152E00FF8C30180C30190C301B8C30190C301805
:10153E000C33FFCC30000C30000C30000C3FFFFCA5
:10154E0030000C000000B9FA00000000018001819B
:10155E00800181804181807FFFFE01818001818039
:10156E00018180018000001800001C00118C2019E0
:10157E008E3019863819801819800C31800E318002
:10158E00003180600180C001FFC0003F00000000FC
:10159E00D0BE00000000180000180000180000184F
:1015AE00000018001FFFF81FFFF818181818181859
:1015BE001818181818181818181FFFF81FFFF81801
:1015CE001818001800001800001800001800001865
:1015DE0000001800001800000000D6D00000000027
:1015EE0020000060000030000038000018007FFF6F
:1015FE00FE7FFFFE03018003018003018001018055
:10160E0001830001830000C600006E00007C000014
:10161E003800007C0000E7000383E03F00FE3C0042
:10162E003C000000CEC400000000000010000C3989
:10163E00FE0C1DFE0C01866C01864C01B64C21B6CB
:10164E004C31B64C1DB64C09B64C01B64C01B64CDD
:10165E000DB64C0DB64C08206C18686C307C0C30F6
:10166E00CE0C70C60C61833C010238000000B2E261
:10167E000000000000001001B038019818019C0C09
:10168E00018800018001FFFC0001807C01807C014B
:10169E00800CFD800CFD800C30800C30C00C30C0F6
:1016AE000C30C00DB0C00F36640E3E661CF036080E
:1016BE00803C00001C000000CAD4000000000000A6
:1016CE00000000000000000380000001C0000000C8
:1016DE00C00000001F800083F1C001FC01E001800A
:1016EE0003C0038002000301F000033E380000181F
:1016FE007000000060000001C000000180F00000DA
:10170E00FFF8007FF8001FF0C0000C004000000042
:10171E00600000006000000060000000600000003B
:10172E0060000000E0000018C0000007C0000003C9
:10173E00C0000001800000000000D7D600000000AD
:10174E00000000000000000000006000006070005B
:10175E00007030000060300000E0200000C020006B
:10176E0000C021C001803FE00107FC00030F7000A4
:10177E000680E8000480E8000C81A4001881220095
:10178E002083230040862180008421C000882CE025
:10179E000090FE7801A1E03E01C0200001802000F3
:1017AE000180200001806000010060000000200028
:1017BE00000020000000000000000000CCE500004A
:1017CE0000000000000000000000000000600000AB
:1017DE0000300000C0300317E030039860300190F5
:1017EE006030001264300013663000136630181338
:1017FE0062300C1262300C926230011262300112B1
:10180E0062300232663002366630061642300C07FF
:10181E0040301C04C0301C0CE030181870300830FA
:10182E003030004001F0018000F000000060000048
:10183E000060000000000000000000000000B2E2A6
:10184E00000000000000000000000000000040004A
:10185E000000700001C0700000F033C0007031C095
:10186E00000030C00000300000001000000010002A
:10187E0000001F0001C0FC000FC79800398008004F
:10188E000180080001806C000183C4000187840080
:10189E0001818600010182000111930403E1E184BC
:1018AE0003CF0184071C00CC0200007C0000003C2A
:1018BE000000001C0000000C0000000000000000F2
:0218CE00CAD47A
:105AF000900017FEE0FCA3E0FD900016E02DFD9065
:0D5B00000015E03CFC90001BE0FAA3E0FB68
:105B0D0090001DEAF0A3EBF0125C7D90001DE0FE0D
:065B1D00A3E0FF025D336E
:104DC500900011E0FCA3E0FD90000FE0FAA3E0FBEA
:104DD500A3E0FFA3E090002FCFF0A3EFF0900077C2
:104DE500E0FFA3E0900031CFF0A3EFF090000DE0DD
:044DF500FEA3E0FF3A
:0E4DF900900029EEF0A3EFF0A3ECF0A3EDF094
:104E0700900029E0FEA3E0FFC3EB9FFFEA9ECF24BB
:104E170001CF3400900037F0A3EFF090002BE0FEB5
:104E2700A3E0FFC3900030E09FFF90002FE09ECFEC
:104E37002401CF3400900039F0A3EFF090002BE06D
:104E4700FCA3E0FD90002FE0FFA3E090005BCFF014
:104E5700A3EFF0900029E0FEA3E0FF12596EE49063
:104E67000033F0A3F0900039E0FEA3E0FFC3900009
:104E770034E09F900033E09E5047E4900035F0A364
:104E8700F0900037E0FEA3E0FFC3900036E09F906C
:104E97000035E09E501B900031E0FEA3E0FF125D5D
:104EA70033900036E004F070D8900035E004F080CD
:104EB700D0900034E004F070AC900033E004F08050
:104EC700A490007CE024FFFB90007BE034FFFA9085
:104ED700007EE024FFFE90007DE034FF90005BF051
:0B4EE700A3CEF0E4FDFCFFFE02596EBC
:0E45F90090000DEEF0A3EFF0A3ECF0A3EDF0B8
:10460700E4900017F0A3F0A3F0A3F090000DE0FEF4
:10461700A3E0FFC3EB9FFFEA9E90001BF0A3EFF020
:1046270090000FE0FAA3E0FBC3900014E09BFE901C
:104637000013E09A90001DF0A3CEF090000DE0FF6C
:10464700A3E0900025CFF0A3EFF0A3EAF0A3EBF0EF
:1046570090001BE0FEA3E0FFD39400EE64809480FB
:10466700400A900021E4F0A304F08021EF4E700887
:10467700900021F0A3F0801574FF900021F0A3F0C3
:10468700C3E49FFFE49E90001BF0A3EFF090001D92
:10469700E0FEA3E0FFD39400EE64809480400A908C
:1046A7000023E4F0A304F08021EF4E70089000236C
:1046B700F0A3F0801574FF900023F0A3F0C3E49FEC
:1046C700FFE49E90001DF0A3EFF090001DE0FEA315
:1046D700E0FF90001BE0FCA3E0FDD39FEE6480F8B1
:1046E700EC64809890001F4007ECF0A3EDF0800584
:1046F700EEF0A3EFF0E4900015F0A3F0900020E0B7
:104707002401FF90001FE03400FED3900016E09FC5
:10471700900015E09E40030247E3900025E0FEA3CA
:10472700E0FFA3E0FCA3E0FD125B7D90001BE0FE31
:10473700A3E0FF900018E02FF0900017E03EF09004
:10474700001DE0FEA3E0FF90001AE02FF090001993
:10475700E03EF090001FE0FEA3E0FF900017E0FCB2
:10476700A3E0FDD39FEE6480F8EC6480984020EDD1
:104777009FFFEC9E900017F0A3EFF0900021E0FE62
:10478700A3E0FF900026E02FF0900025E03EF09098
:10479700001FE0FEA3E0FF900019E0FCA3E0FDD3BB
:1047A7009FEE6480F8EC6480984020ED9FFFEC9EBC
:1047B700900019F0A3EFF0900023E0FEA3E0FF9034
:1047C7000028E02FF0900027E03EF0900016E0046C
:0C47D700F07006900015E004F0024703AB
:0147E30022B3
:10557C00900005EAF0A3EBF0900001EEF0A3EFF041
:10558C00A3ECF0A3EDF0C007A3E0FAA3E0FB9000BE
:10559C0003E0FFA3E0900013CFF0A3EFF0D00712CD
:1055AC0045F9900001E0FAA3E0FBFFAE02C007A3AF
:1055BC00E0FCA3E0FD900007E0FFA3E0900013CF18
:1055CC00F0A3EFF0D0071245F9900007E0FCA3E040
:1055DC00FD900005E0FAA3E0FBA3E0FFA3E0900040
:1055EC0013CFF0A3EFF0900001E0FEA3E0FF124513
:1055FC00F9900005E0FAA3E0FBFFAE02C0079000B3
:10560C0003E0FCA3E0FD900007E0FFA3E090001393
:0A561C00CFF0A3EFF0D0070245F92C
:105C1A00C007900027E0FFA3E090002FCFF0A3EF8A
:105C2A00F0900077E0FFA3E0900031CFF0A3EFF00F
:055C3A00D007024DF946
:104C8800900019F0A3EFF0900005E0FFA3E090007A
:0E4C98001BCFF0A3EFF0900001E0FEA3E0FFC1
:104CA600900015ECF0A3EDF0900013EEF0A3EFF0FA
:104CB600900017EAF0A3EBF02FFFEE3AA3125AF397
:104CC600900017E0FEA3E0FFC3900014E09FFF9062
:104CD6000013E09EFE900019125AF4900017E0FEB1
:104CE600A3E0FF900014E02FFF900013E03EFE903B
:104CF6000019E0FCA3E0FDC3900016E09DFD9000C6
:104D060015E09C125B04900017E0FEA3E0FFC39041
:104D16000014E09FFF900013E09EFE900019E0FC57
:104D2600A3E0FDC3900016E09DFD900015E09C12E7
:104D36005B04900019E0FEA3E0FF900014E02FFF53
:104D4600900013E03E125AF0900019E0FEA3E0FF37
:104D5600C3900014E09FFF900013E09E125AF0905B
:104D66000019E0FEA3E0FF900014E02FFF9000136F
:104D7600E03EFE900017E0FCA3E0FDC3900016E0C5
:104D86009DFD900015E09C125B04900019E0FEA3C7
:104D9600E0FFC3900014E09FFF900013E09EFE909A
:104DA6000017E0FCA3E0FDC3900016E09DFD900017
:0F4DB60015E09CFC90001BE0FAA3E0FB025B0DF4
:10440300900001EEF0A3EFF0A3ECF0A3EDF0A3EA2C
:04441300F0A3EBF037
:10441700E490000BF0A3F0900007E0FEA3E0FF900C
:10442700000DEEF0A3EFF025E0FFEE33FEC37403BB
:104437009F900012F0E49E900011F0900009E07048
:1044470002A3E0700302454690000DE0FEA3E0FFE3
:1044570090000BE0FCA3E0FDD39FEE6480F8EC64D2
:10446700809840030245F890000FECF0A3EDF09020
:10447700000DE0FEA3E0FFD3900010E09FEE648004
:10448700F890000FE0648098502B900003E0FCA3A5
:10449700E0FD90000BE0FAA3E0FB90000FE0FFA324
:1044A700E0CF124C88900010E004F070C290000F2B
:1044B700E004F080BA900011E0FCA3E0FDC3EC64D7
:1044C700809480502390000BE0FEA3E07802C33372
:1044D700CE33CED8F92DFFEC3ECF2406CF34009053
:1044E7000011F0A3EFF0804390000DE0FEA3E0FF82
:1044F700C390000CE09FFF90000BE09EFEEF780258
:10450700C333CE33CED8F9FF900012E02FFF9000CF
:1045170011E03ECF240ACF3400F0A3EFF090000E55
:10452700E024FFF090000DE034FFF090000CE00471
:10453700F0600302444F90000BE004F002444F90F8
:10454700000DE0FEA3E0FF90000BE0FAA3E0FBD331
:104557009FEE6480F8EA64809840030245F8900073
:1045670003E0FCA3E0FDEE124C88900011E0FCA3F1
:10457700E0FDC3EC64809480502390000BE0FEA321
:10458700E07802C333CE33CED8F92DFFEC3ECF24EB
:1045970006CF3400900011F0A3EFF0804390000D98
:1045A700E0FEA3E0FFC390000CE09FFF90000BE04C
:1045B7009EFEEF7802C333CE33CED8F9FF900012B8
:1045C700E02FFF900011E03ECF240ACF3400F0A384
:1045D700EFF090000EE024FFF090000DE034FFF0C4
:1045E70090000CE004F0700690000BE004F0024528
:0145F700467D
:0145F80022A0
:1058F800900001EEF0A3EFF0A3ECF0A3EDF0A3EA23
:10590800F0A3EBF0C007A3E0FFA3E0900013CFF0F3
:10591800A3EFF0D0071245F9900007E0FCA3E0FDE3
:10592800A3E0FAA3E0FBA3E0FFA3E0900013CFF00D
:10593800A3EFF0900005E0FEA3E0FF1245F9900008
:105948000BE0FCA3E0FD900001E0FAA3E0FBA3E07C
:10595800FFA3E0900013CFF0A3EFF0900009E0FE62
:06596800A3E0FF0245F977
:1000030090002C7401F0A37400F0A37407F07B013B
:040013007A007903F3
:0B001700900029EBF0A3EAF0A3E9F051
:10002200122E90FFAEF090002CE0FBA3E0FAA3E0CA
:10003200F9122E90FD900029E0FBA3E0FAA3E0F96B
:10004200E5F08DF0122EBB90002CE0FBA3E0FAA3AA
:08005200E0F9EE8FF0022EBB75
:10280A00900001EEF0A3EFF0A3ECF0A3EDF0A3EA41
:04281A00F0A3EBF04C
:10281E0090002112300300000000900025123003BA
:10282E0000000000900007E0FEA3E0FF900003E030
:10283E00FCA3E0D39FEC9E401A12000390002C7470
:10284E0001F0A37400F0A37405F07B017A00790106
:10285E0012001790000BE0FEA3E0FF900007E0FCD3
:10286E00A3E0D39FEC9E402E90002C7401F0A37435
:10287E0000F0A37407F07B017A00790B1200179019
:10288E00002C7401F0A37400F0A37405F07B017AA0
:10289E00007909120017900007E0FEA3E0FF9000F8
:1028AE0003E0FCA3E0D39FEC9E401A1200039000BD
:1028BE002C7401F0A37400F0A37405F07B017A0070
:1028CE00790112001790000BE0FEA3E0FF900003C9
:1028DE00E0FCA3E0FD6F7002EC6E60030229B29083
:1028EE000001E0FEA3E0FF90000FEEF0A3EFF090EA
:1028FE00000DEEF0A3EFF090000DE0FEA3E0FF90D0
:10290E000005E0FAA3E0FBC39FEA9E500A90000D7B
:10291E00EAF0A3EBF0801E90000FE0FEA3E0FFD3E1
:10292E00EB9FEA9E400F900005E0FFA3E090000FA2
:10293E00CFF0A3EFF090000DE0FEA3E0FF900009B2
:10294E00E0FAA3E0FBC39FEA9E500A90000DEAF066
:10295E00A3EBF0801E90000FE0FEA3E0FFD3EB9FF1
:10296E00EA9E400F900009E0FFA3E090000FCFF029
:10297E00A3EFF090000FE0FAA3E0FB900003E0FF5E
:10298E00A3E090002FCFF0A3EFF0900077E0FFA32D
:10299E00E0900031CFF0A3EFF090000DE0FEA3E049
:1029AE00FF024DF9900001E0FAA3E0FB900005E074
:1029BE00FEA3E0C39BFFEE9A900015F0A3EFF090FC
:1029CE000003E0FEA3E0FF900007E0FCA3E0C39F3E
:1029DE00FFEC9E900017F0A3EFF0900009E0FEA32D
:1029EE00E0C39BFFEE9A900019F0A3EFF090000366
:1029FE00E0FEA3E0FF90000BE0FCA3E0C39FFFEC22
:102A0E009E90001BF0A3EFF0900005E0FEA3E0FF08
:102A1E00900009E0FCA3E0C39FFFEC9E90001DF028
:102A2E00A3EFF0900007E0FAA3E0FB90000BE0FCB0
:102A3E00A3E0FDC39BFEEC9A90001FF0A3CEF0EB3B
:102A4E00B50510EAB5040C900007FFA3E090001343
:102A5E00CF8010900007E0FEA3E024FFFFEE34FFCE
:102A6E00900013F0A3EFF0900003E0FFA3E09000BE
:102A7E0011CFF0A3EFF0900013E0FEA3E0FF900063
:102A8E0011E0FCA3E0D39FEC9E4003022B9E90002E
:102A9E0017E0FEA3E0FBAA06EA3395E0F9F89000F2
:102AAE0021E0FCA3E0FDA3E0FEA3E0FF125A0A9092
:102ABE000001E0FCA3E02FFFEC3E90000DF0A3EF31
:102ACE00F090001BE0FEA3E0FBAA06EA3395E0F9C6
:102ADE00F8900025E0FCA3E0FDA3E0FEA3E0FF12CA
:102AEE005A0A900001E0FCA3E02FFFEC3E90000F8D
:102AFE00F0A3EFF0900021E0F8A3E0F9A3E0FAA331
:102B0E00E0FB900015E0FEA3E0FFEE3395E0FDFC48
:102B1E00EB2FFFEA3EFEE93DFDE83CFC9000211262
:102B2E002FF7900025E0F8A3E0F9A3E0FAA3E0FB6D
:102B3E00900019E0FEA3E0FFEE3395E0FDFCEB2FD5
:102B4E00FFEA3EFEE93DFDE83CFC900025122FF722
:102B5E0090000FE0FEA3E0FF90000DE0FCA3E0D399
:102B6E009FEC9E401790002C7401F0A37400F0A30C
:102B7E00740FF07B017A00790D120017124DC5907B
:102B8E000012E004F07006900011E004F0022A84B6
:102B9E00900007E0FEA3E0FF900011E0FAA3E0FB37
:102BAE00C39FFFEA9EFE90001DE0FCA3E0FD122EE7
:102BBE0052E4FCFD900021122FF7900003E0FEA3DB
:102BCE00E0FFC3EB9FFFEA9EFE900019E0FCA3E03E
:102BDE00FD122E52E4FCFD900025122FF790000BF3
:102BEE00E0FEA3E0FF900011E0FCA3E0D39FEC9E7B
:102BFE004003022D0390001FE0FEA3E0FBAA06EAAD
:102C0E003395E0F9F8A3E0FCA3E0FDA3E0FEA3E01A
:102C1E00FF125A0A900005E0FCA3E02FFFEC3E9055
:102C2E00000DF0A3EFF090001BE0FEA3E0FBAA0660
:102C3E00EA3395E0F9F8900025E0FCA3E0FDA3E06F
:102C4E00FEA3E0FF125A0A900001E0FCA3E02FFF62
:102C5E00EC3E90000FF0A3EFF0900021E0F8A3E01F
:102C6E00F9A3E0FAA3E0FB90001DE0FEA3E0FFEE67
:102C7E003395E0FDFCEB2FFFEA3EFEE93DFDE83C1F
:102C8E00FC900021122FF7900025E0F8A3E0F9A3A5
:102C9E00E0FAA3E0FB900019E0FEA3E0FFEE33950F
:102CAE00E0FDFCEB2FFFEA3EFEE93DFDE83CFC902B
:102CBE000025122FF790000FE0FEA3E0FF90000D0D
:102CCE00E0FCA3E0D39FEC9E401790002C7401F023
:102CDE00A37400F0A3740FF07B017A00790D12003B
:102CEE0017124DC5900012E004F07006900011E02E
:052CFE0004F0022BEBC5
:012D030022AD
:103FF100F090003DE090004BF0900035E0FAA3E036
:01400100FBC3
:10400200900041EEF0A3EFF0900045EAF0A3EBF050
:08401200900043ECF0A3EDF077
:10401A00900077E0FFA3E090004FCFF0A3EFF0907D
:10402A000049E024E0F0A3E0F9C313FF7E0090000A
:10403A0041E0FAA3E02FFFEE3ACF24FFFBEF34FF73
:10404A00FAE9FFA3E0F8A3E02FFFEE38CF24FFCF71
:10405A0034FF90005BF0A3EFF0900041E0FEA3E094
:10406A00FF12596E90004BE0600302411290004D1E
:10407A00F090004AE0FF90004DE0FEC39F4003022B
:10408A0041D2EF640C7017900049E075F00CA4243B
:10409A00DEF582E5F03401F583E5822E801A900080
:1040AA004DE0FF900049E075F010A4245EF582E52A
:1040BA00F03406F583E5822FF582E43583F583E44F
:1040CA009390004CF0E490004EF090004AE0C31345
:1040DA00FF90004EE0C39F502690004CE030E00570
:1040EA009000458003900047E0FEA3E0FF125D3395
:1040FA0090004CE0C313F090004EE004F080CB90A7
:10410A00004DE004F002407BE490004DF090004A3C
:10411A00E0FF90004DE0FEC39F40030241D2EF64EE
:10412A000C7017900049E075F00CA424DEF582E5C6
:10413A00F03401F583E5822E801A90004DE0FF905D
:10414A000049E075F010A4245EF582E5F03406F526
:10415A0083E5822FF582E43583F583E49390004C5E
:10416A00F0E490004EF090004AE0C313FF90004E36
:10417A00E0FEC39F5049900045E0FDA3E090007720
:10418A00CDF0A3EDF090004CE030E024EEFF90007B
:10419A0042E02FFF900041E03400FE90004DE0FD28
:1041AA00900044E02DFD900043E03400FC125B7D5A
:1041BA0090004CE0C313F090004EE004F080A7900A
:1041CA00004DE004F002411790004FE0FFA3E09099
:1041DA000077CFF0A3EFF090007CE024FFFB900083
:1041EA007BE034FFFA90007EE024FFFE90007DE041
:1041FA0034FF90005BF0A3CEF0E4FDFCFFFE025911
:01420A006E45
:10540100900000EEF0A3EFF0A3ECF0A3EDF0A3EB1E
:10541100F0900005E0FBA3E0FAA3E0F9122DFAFFFA
:10542100D3947E40030254BFEFC39420500302542F
:10543100BF90007CE024FFFD90007BE034FFFC90F6
:105441000000E0FEA3E0FFD39DEE9C507190007E32
:10545100E024FFFB90007DE034FFFA900002E0FCC5
:10546100A3E0FDD39BEC9A5055900079E0FBA3E0BB
:10547100900047CBF0A3EBF0900005E0FBA3E0FA2E
:10548100122DFA900049F0900004E090004AF0904B
:105491000008E090004BF0900077123FFD9000046F
:1054A100E0C313FF900001E02FF0900000E0340012
:0F54B100F0900006E475F001122E6402541222EE
:0859C100900097EFF0A3EDF058
:1059C900A312300300000001900098E0FF14F0EFEB
:1059D9006020A3E0F8A3E0F9A3E0FAA3E0FB9000BC
:1059E90097E0FFE4FCFDFE122EDA900099122FF7E2
:1059F90080D6900099E0FCA3E0FDA3E0FEA3E0FFC0
:015A0900227A
:0E4EF20090008AEEF0A3EFF0A3ECF0A3EDF039
:104F0000E4900096F0900094F0900092E0FF900002
:104F100094E0FEC39F4003025002C3EF9E14FD7F46
:104F20000A1259C1A804A905AA06AB0790008EE091
:104F3000FCA3E0FDA3E0FEA3E0FF122F65E47B0AE3
:104F4000FAF9F8122F65900095EBF0A3E0705790F6
:104F50000092E014FF900094E0FEC39F5048A3E04D
:104F6000703E900093E0F9C3138EF0A4FF90008B85
:104F7000E02FFF90008AE035F0FEC00790008CE043
:104F8000FCA3E0FD900077E0FAA3E0FB900079E05D
:104F9000FFA3E0900047CFF0A3EFF0A37420804D73
:104FA0009000967401F0900093E0F9C313FFA3E022
:104FB000FEEF8EF0A4FF90008BE02FFF90008AE0C0
:104FC00035F0FEC00790008CE0FCA3E0FD90007778
:104FD000E0FAA3E0FB900079E0FFA3E0900047CF68
:104FE000F0A3EFF0900095E02430900049F0A3E9A1
:104FF000F0E4A3F0D007124002900094E004F00225
:025000004F0956
:01500200228B
:10391000900043ECF0A3EDF0A3EAF0A3EBF09000ED
:0639200041EEF0A3EFF000
:10392600900053EEF0A3EFF0900051E4F0A3743D45
:10393600F0E490004FF0A3F0900051E0FEA3E0FF0A
:1039460090004FE0FCA3E0FDC39FEC9E4003023BCA
:1039560031900049E0FBA3E0FAA3E0F9122DFAFF4B
:10396600900C7E75F022ED123034EC75F022A42511
:1039760083F583E4936F6003023B20900001122ECF
:1039860013FF90004FA3E0900C7F75F022123034A5
:10399600EC75F022A42583F583E4936F6003023B64
:1039A60020900041E0FAA3E0FBFFAE02C006C0078C
:1039B600A3E0FCA3E0FDEB240FFBE43AFA900043FE
:1039C600E0FEA3E0240FFFE43E90005BF0A3EFF0DF
:1039D600D007D00612596EE490004DF090004DE0ED
:1039E600C39420748094804003023B20E4A3F090AB
:1039F600004EE0FFC39408748094804003023B1796
:103A060090004CE07058A3E0FE90004FE0FCA3E06D
:103A1600900C5E75F022123034EC75F022A42583EA
:103A2600F583E5822EF582E43583F583E493FD7C08
:103A3600007E007480A807088006CEA2E713CE1386
:103A4600D8F8FFEE5CFEEF5D4E6005900045800302
:103A5600900047E0FEA3E0FF125D33023B0E9000AC
:103A660045E0FFA3E0900077CFF0A3EFF090004D84
:103A7600E0FF90004FE0FCA3E0900C5E75F0221290
:103A86003034EC75F022A42583F583E5822FF58288
:103A9600E43583F583E493FD7C0090004EE0FF7EE1
:103AA600007480A807088006CEA2E713CE13D8F8C4
:103AB600FFEE5CFEEF5D4E6011900041E0FEA3E07C
:103AC600FFA3E0FCA3E0FD125B7D900042E004F062
:103AD6007006900041E004F0900053E0FEA3E0FF82
:103AE600C3900042E09FFD900041E09EFCED641013
:103AF6004C7015EEF0A3EFF0900044E004F0701166
:103B0600900043E004F0800990004EE004F0023992
:103B1600F590004DE004F00239E2900050E004F028
:103B2600700690004FE004F002393E90007CE024DD
:103B3600FFFB90007BE034FFFA90007EE024FFFE5E
:103B460090007DE034FF90005BF0A3CEF0E4FDFC36
:053B5600FFFE02596EA4
:103B5B00900043ECF0A3EDF0A3EAF0A3EBF09000A0
:063B6B0041EEF0A3EFF0B3
:103B7100900053EEF0A3EFF0900051E4F0A374082D
:103B8100F0E490004FF0A3F0900051E0FEA3E0FFBD
:103B910090004FE0FCA3E0FDC39FEC9E4003023D7B
:103BA1007C900049E0FBA3E0FAA3E0F9122DFAFFB3
:103BB1009014C075F04AED123034EC75F04AA4252A
:103BC10083F583E4936F6003023D6B900001122E35
:103BD10013FF90004FA3E09014C175F04A123034E6
:103BE100EC75F04AA42583F583E4936F6003023DED
:103BF1006B900041E0FAA3E0FBFFAE02C006C007F4
:103C0100A3E0FCA3E0FDEB2417FBE43AFA900043A8
:103C1100E0FEA3E02417FFE43E90005BF0A3EFF089
:103C2100D007D00612596EE490004DF090004DE09F
:103C3100C39448748094804003023D6BE4A3F090E8
:103C4100004EE0FFC39408748094804003023D62FB
:103C510090004CE07058A3E0FE90004FE0FCA3E020
:103C610090147875F04A123034EC75F04AA425832B
:103C7100F583E5822EF582E43583F583E493FD7CBB
:103C8100007E007480A807088006CEA2E713CE1339
:103C9100D8F8FFEE5CFEEF5D4E60059000458003B5
:103CA100900047E0FEA3E0FF125D33023D59900012
:103CB10045E0FFA3E0900077CFF0A3EFF090004D37
:103CC100E0FF90004FE0FCA3E090147875F04A12F9
:103CD1003034EC75F04AA42583F583E5822FF58213
:103CE100E43583F583E493FD7C0090004EE0FF7E94
:103CF100007480A807088006CEA2E713CE13D8F877
:103D0100FFEE5CFEEF5D4E6011900041E0FEA3E02E
:103D1100FFA3E0FCA3E0FD125B7D900042E004F014
:103D21007006900041E004F0900053E0FEA3E0FF34
:103D3100C3900042E09FFD900041E09EFCED6418BD
:103D41004C7015EEF0A3EFF0900044E004F0701118
:103D5100900043E004F0800990004EE004F0023C42
:103D61004090004DE004F0023C2D900050E004F042
:103D7100700690004FE004F0023B8990007CE02443
:103D8100FFFB90007BE034FFFA90007EE024FFFE11
:103D910090007DE034FF90005BF0A3CEF0E4FDFCE9
:053DA100FFFE02596E57
:103DA600900043ECF0A3EDF0A3EAF0A3EBF0900053
:063DB60041EEF0A3EFF066
:103DBC00900053EEF0A3EFF0900051E4F0A37404E4
:103DCC00F0E490004FF0A3F0900051E0FEA3E0FF70
:103DDC0090004FE0FCA3E0FDC39FEC9E4003023F2C
:103DEC00C7900049E0FBA3E0FAA3E0F9122DFAFF1B
:103DFC0090174875F082ED123034EC75F082A425E2
:103E0C0083F583E4936F6003023FB6900001122E9A
:103E1C0013FF90004FA3E090174975F082123034D5
:103E2C00EC75F082A42583F583E4936F6003023F65
:103E3C00B6900041E0FAA3E0FBFFAE02C006C0075B
:103E4C00A3E0FCA3E0FDEB241FFBE43AFA90004353
:103E5C00E0FEA3E0241FFFE43E90005BF0A3EFF034
:103E6C00D007D00612596EE490004DF090004DE052
:103E7C00C39480748094804003023FB6E4A3F09016
:103E8C00004EE0FFC39408748094804003023FAD61
:103E9C0090004CE07058A3E0FE90004FE0FCA3E0D3
:103EAC009016C875F082123034EC75F082A425831C
:103EBC00F583E5822EF582E43583F583E493FD7C6E
:103ECC00007E007480A807088006CEA2E713CE13EC
:103EDC00D8F8FFEE5CFEEF5D4E6005900045800368
:103EEC00900047E0FEA3E0FF125D33023FA4900078
:103EFC0045E0FFA3E0900077CFF0A3EFF090004DEA
:103F0C00E0FF90004FE0FCA3E09016C875F0821221
:103F1C003034EC75F082A42583F583E5822FF5828D
:103F2C00E43583F583E493FD7C0090004EE0FF7E46
:103F3C00007480A807088006CEA2E713CE13D8F829
:103F4C00FFEE5CFEEF5D4E6011900041E0FEA3E0E1
:103F5C00FFA3E0FCA3E0FD125B7D900042E004F0C7
:103F6C007006900041E004F0900053E0FEA3E0FFE7
:103F7C00C3900042E09FFD900041E09EFCED642068
:103F8C004C7015EEF0A3EFF0900044E004F07011CB
:103F9C00900043E004F0800990004EE004F0023EF3
:103FAC008B90004DE004F0023E78900050E004F05D
:103FBC00700690004FE004F0023DD490007CE024A9
:103FCC00FFFB90007BE034FFFA90007EE024FFFEC4
:103FDC0090007DE034FF90005BF0A3CEF0E4FDFC9C
:053FEC00FFFE02596E0A
:1033EB00900033ECF0A3EDF0A3EAF0A3EBF0900028
:0633FB0031EEF0A3EFF03B
:1034010090003EEEF0A3EFF0E4A3F0900039E0FB72
:10341100A3E0FAA3E0F9122DFA70030236819000BD
:1034210040E0600302354290003CE0FFC313FDC35E
:1034310090007CE09DFD90007BE09400FCD3900027
:1034410032E09D900031E09C4003023681C3900040
:103451007EE09FFF90007DE09400FED3900034E079
:103461009F900033E09E4003023681122DFAFF7EC9
:1034710000D394807480948040089000407401F0DF
:103481008089EF640D4E702E90003CE0FF90003477
:10349100E02FF0900033E03400F090003EE0FFA315
:1034A100E0900031CFF0A3EFF090003AE475F00125
:1034B100122E6402353590003CE0D3941074809450
:1034C10080900031E0FEA3E0FFA3E0FCA3E0FD90CB
:1034D1000037E0FBA3E0900047CB4024F0A3EBF0E2
:1034E100900039E0FBA3E0FAA3E0F9122DFA900075
:1034F10049F0A37410123FF1900032E02408802CAF
:10350100F0A3EBF0900039E0FBA3E0FAA3E0F9129D
:103511002DFA900049F090003CE090004A123FF1F2
:1035210090003CE0C313FF900032E02FF090003197
:10353100E03400F090003AE475F001122E64023498
:103541000C90003CE0F9FF7E00C390007CE09FFD01
:1035510090007BE09EFCD3900032E09D900031E032
:103561009C4003023681C390007EE09FFF90007D66
:10357100E09EFE900033E0FCA3E0FDD39FEC9E4073
:1035810003023681E4900040F0E96420704290002B
:1035910031E0FEA3E0FF900037E0FBA3E09000479D
:1035A100CBF0A3EBF0900039E0F9A3E0FAA3E090AF
:1035B1000049C9F0A3EAF0A3E9F090003DE09000D2
:1035C1004CF0900035E0FAA3E0FB123DA602366212
:1035D10090003CE064189000317044E0FEA3E0FFED
:1035E100A3E0FCA3E0FD900037E0FBA3E0900047DF
:1035F100CBF0A3EBF0900039E0F9A3E0FAA3E0905F
:103601000049C9F0A3EAF0A3E9F090003DE0900081
:103611004CF0900035E0FAA3E0FB123B5B8042E006
:10362100FEA3E0FFA3E0FCA3E0FD900037E0FBA3D5
:10363100E0900047CBF0A3EBF0900039E0F9A3E074
:10364100FAA3E0900049C9F0A3EAF0A3E9F09000E1
:103651003DE090004CF0900035E0FAA3E0FB123918
:103661001090003AE475F002122E6490003CE0FFE5
:10367100900032E02FF0900031E03400F002340C81
:013681002226
:1056CF00900024EEF0A3EFF0A3ECF0A3EDF0A3EA2B
:0456DF00F0A3EBF059
:1056E30090002CE0FBA3E0FAA3E0F9125CF7EF785B
:1056F30003C333CE33CED8F9FFC390007CE09FFFC2
:1057030090007BE09EC313FEEF13FF900025E02F74
:10571300FF900024E03EFE900026E0FCA3E0FD9015
:10572300002AE0FBA3E0900037CBF0A3EBF090005E
:105733002CE0F9A3E0FAA3E0900039C9F0A3EAF062
:10574300A3E9F090002FE090003CF0900030E0904F
:0E575300003DF0900028E0FAA3E0FB0233EBEB
:1050030090000DEEF0A3EFF0900011EBF0A3EAF0A7
:0B501300A3E9F090000FECF0A3EDF01B
:10501E0090000DE0FAA3E0FFAE02C006C007242701
:10502E00FBE43AFAA3E0FEA3E02427FFE43E90005F
:10503E005BF0A3EFF0D007D00612596EE490001487
:10504E00F0A3F0900015E025E0FF900014E033FE91
:10505E00900011E0FBA3E0FAA3E0F98F828E831299
:10506E002E13900017F0E92FF9EA3EFA9000011284
:10507E002E13900016F0FEA3E0FDEDFF125D3390AF
:10508E000015E004F07006900014E004F0C39000E8
:10509E0015E09440900014E06480948640A5900042
:1050AE007CE024FFFB90007BE034FFFA90007EE072
:1050BE0024FFFE90007DE034FF90005BF0A3CEF065
:0850CE00E4FDFCFFFE02596E37
:105BCE0043BA801247E412533E12499212006E12EB
:105BDE00420B124B151236821251A51254C012529C
:065BEE007412562680E04F
:1018D0007777772E53544341494D43552E636F6DAF
:1018E00000322E34B4E7544654C6C1B2E2CAD4B36F
:1018F000CCD0F200BAEABEA7BFC6BCBC005354436A
:10190000204D4355204C696D697465640054656CC5
:101910003A2038362D303531332D353530313239A6
:101920003238007777772E53544341492E636F6DD9
:1019300000424C20546573740052454420004752C5
:1019400045454E2000424C55452000B2E2CAD433F2
:101950003A475549BED8D0CECCEEB3E4B2E2CAD4B1
:1019600000B2E2CAD4343A475549BBADD4B2CCEE4A
:10197000B3E4B2E2CAD400B2E2CAD4353A47554918
:1019800020547269616E676C65CCEEB3E4B2E2CA52
:10199000D400B2E2CAD4363AD3A2CEC4CFD4CABE9F
:1019A000B2E2CAD400365831323A61626364656685
:1019B0006768696A6B6C6D6E6F707172737475763F
:1019C0007778797A00365831323A41424344454675
:1019D0004748494A4B4C4D4E4F50303132333435E5
:1019E0003637383900365831323A7E2140232425A3
:1019F0005E262A28295F2B7B7D3A3C3E3F2F7C2D9B
:101A00002B2E00385831363A616263646566676828
:101A1000696A6B6C6D6E6F707172737475767778BE
:101A2000797A00385831363A41424344454647486E
:101A3000494A4B4C4D4E4F503031323334353637A6
:101A4000383900385831363A7E21402324255E2625
:101A50002A28295F2B7B7D3A3C3E3F2F7C2D2B2E65
:101A600000B2E2CAD4373AD6D0CEC4CFD4CABEB2BE
:101A7000E2CAD40031365831363AC9EEDBDAB9FA67
:101A8000D0BEC8CBB9A4D6C7C4DCD3D0CFDEB9ABE7
:101A9000CBBEBBB6D3ADC4FA0031365831363A5757
:101AA000656C636F6D65BAEABEA7BFC6BCBC003289
:101AB000345832343AC9EEDBDAB9FAD0BED6D0CED9
:101AC000C4B2E2CAD40033325833323AD7D6CCE566
:101AD000B2E2CAD400B2E2CAD4383ACDBCC6ACCF66
:101AE000D4CABEB2E2CAD400515100526F746174BC
:101AF000696F6E3A3000526F746174696F6E3A3973
:101B00003000526F746174696F6E3A313830005230
:101B10006F746174696F6E3A32373000B2E2CAD4C2
:101B2000393AC6C1C4BBBDC7B6C8B2E2CAD400B256
:101B3000E2CAD4323AB6C14944BACDD1D5C9ABD63E
:101B4000B5B2E2CAD40049443A30782578007265CB
:101B5000616420636F6C6F723A307825303478009E
:101B6000DBDE5DEF5DEF7DEF5DEF5DEF5DEF5DEF88
:101B70005DEF5DEF5DEF5DEF5DEF5DEF5DEFBEF79C
:101B8000FFFFDEFF38C6928C8E6B6E6B107C96ADBD
:101B90003CE7FFFFFFFF7DEF5DEF5DEF5DEF5DEF8A
:101BA0005DEF5DEF5DEF5DEF5DEF5DEF5DEF5DEFD5
:101BB0005DEFFFFFFFFFFFFFFFFFFFFFFFFFFFFFE7
:101BC000FFFFFFFFFFFFFFFFFFFFFFFFFFFF5DEFD7
:101BD000159D4F636C420A32882946192519452103
:101BE000E8318E6B18BEFFFFFFFFFFFFFFFFFFFF17
:101BF000FFFFFFFFFFFFFFFFFFFFFFFFFFFFFFFFF5
:101C00005DEFFFFFFFFFFFFFFFFFFFFFFFFFFFFF96
:101C1000FFFFFFFFFFFFFFFFFFFFDFFFF59C0F53FD
:101C2000104B51530F4B6C3AE93167212519E410E1
:101C3000A308620083088A4A59C6FFFFFFFFFFFF1F
:101C4000FFFFFFFFFFFFFFFFFFFFFFFFFFFFFFFFA4
:101C50005DEFFFFFFFFFFFFFFFFFFFFFFFFFFFFF46
:101C6000FFFFFFFFFFFFFFFF1CE74F5BB363B87C85
:101C7000F56311434D32EA29882126190519051902
:101C800004110411E4108300A308728CFFFFFFFF0E
:101C9000FFFFFFFFFFFFFFFFFFFFFFFFFFFFFFFF54
:101CA0005DEFFFFFFFFFFFFFFFFFFFFFFFFFFFFFF6
:101CB000FFFFFFFFFFFFDBDE4B3AF042356C544B7A
:101CC000B1322E2AEB21A92167190519041104113B
:101CD0000411041104110519E4104200AF73FFFF51
:101CE000FFFFFFFFFFFFFFFFFFFFFFFFFFFFFFFF04
:101CF0005DEFFFFFFFFFFFFFFFFFFFFFFFFFFFFFA6
:101D0000FFFFFFFF5DEF09324C32104B8F324F2A3D
:101D10002E2ACC1989198921471905190411041192
:101D2000C410C410041104110411E41042003184E1
:101D3000FFFFFFFFFFFFFFFFFFFFFFFFFFFFFFFFB3
:101D40005DEFFFFFFFFFFFFFFFFFFFFFFFFFFFFF55
:101D5000FFFFFFFFEC5247194C320B2AEC21EC211C
:101D60000C22915BEE4A061126190419E410E410C6
:101D7000A7296621A308051904110411E4108200A3
:101D8000F7BDFFFFFFFFFFFFFFFFFFFFFFFFFFFFAD
:101D90005DEFFFFFFFFFFFFFFFFFFFFFFFFFFFFF05
:101DA000FFFF35A58308882188218921AA218A215E
:101DB0006B42718CFFFF728C83080411C4082942A6
:101DC000FBDE5DEFEC5A8308041104110411830853
:101DD000E831DFFFFFFFFFFFFFFFFFFFFFFFFFFF18
:101DE0005DEFFFFFFFFFFFFFFFFFFFFFFFFFFFFFB5
:101DF000BEF7C731C4102519261947194719A82954
:101E00008A52284A55ADFFFFE831A30805194D6BEA
:101E10004D6BFFFF7DEF4521C41004110411041127
:101E2000620076ADFFFFFFFFFFFFFFFFFFFFFFFF39
:101E30005DEFFFFFFFFFFFFFFFFFFFFFFFFFFFFF64
:101E400096B562000411041905110519C4088B4ADE
:101E5000B6B55DEFF7BDFFFF8E6B62002942AA5A4F
:101E60000842FFFFFFFFCC52830804110411041144
:101E7000A308AD52FFFFFFFFFFFFFFFFFFFFFFFFC4
:101E8000BEF7FFFFDFFFDBDEFFFFFFFFFFFFFFFF10
:101E90004E636200041104110411E41062008E63A9
:101EA000FFFFFFFFFFFFFFFFCF730100F39C2C63D9
:101EB00096B5FFFFFFFF2D5B830004110411041191
:101EC000E41067213DEFFFFFFFFFFFFFFFFFFFFF74
:101ED000B7B576AD7DEFCB52B394FFFFFFFFDFFFC9
:101EE000E831A3080411041104110411A3084942A4
:101EF000FFF7FFF7FFFFFFFF6A4A01007284FFFF51
:101F0000FFFFFFF7DFEF093AA308041104110411E2
:101F10000411051118BEFFFFFFFFFFFFFFFFFFFFCA
:101F2000F07B6200E831C731410035A5FFFF5DEF6E
:101F30004621C4100411041104110411E410A30873
:101F4000769DFFF7FFFFB7ADA308A308C7319EE753
:101F5000FFF7FFF776A5A308E4100411041104119C
:101F60000511051135A5FFFFFFFFFFFFFFFFFFFF75
:101F7000DBDEA7298300C410C410C4101CE79EEF49
:101F80000511E41004110411041104110419C4080A
:101F9000E510D16BD16BC5086400A50843002B3256
:101FA000779DB3842519C410041104110411041180
:101FB00025192609359DFFFFFFFFFFFFFFFFFFFFEC
:101FC000FFFFAF7362000419051982000D5B8E9B41
:101FD00062100511041104110419E41085000511A3
:101FE000C439815A407B229C43AC03A4839B8272F8
:101FF0008249C218A400C500E4100419041105198F
:1020000047196711EC5ABEFFFFFFFFFFFFFFFFFFFD
:10201000DFFFDBD6C410E41004110511A41801C0C1
:102020008388E40005190419C5084421438323D596
:1020300042FEE4FE27FF07FFA4FE64FE03FEA3FDAD
:10204000E2FC42EC83B32462E510C40804192619AB
:10205000A81987210090D3BCFFFFFFFFFFFFFFFF00
:102060005DEFFFFFF07B420005190511832801D0C9
:1020700044F8A348E400C508445A02EDE2FD02FE1C
:1020800066FE74FFB8FF73FFE7F6A6F645F6A4F503
:10209000C3FC62FCC2FCC2FCE3CBC4490611881934
:1020A0008701A49001F8EC9AFFFFFFFFFFFFFFFFFD
:1020B0005DEFFFFF9EF7E83183000509824001C014
:1020C00023F885F0A348A400445A02FD23CCC2DCC7
:1020D00004FE28FE48F646F624F6E4F564FDE3FC2B
:1020E00062FCC2FC02E402DCE2FCA47A4801670163
:1020F000C47824F802F884B07DE7FFFFFFFFFFFFFC
:102100005DEFFFFFFFFFDBDE2519A300C43802E00F
:1021100022D844F8A6F8A478630043218372833957
:10212000829B21F561FD22FDE2FCA2FC42FC42FC07
:1021300042FC22AB8341C392045226012519A49884
:1021400044F823F802F8A4D09EEFFFFFFFFFFFFF43
:102150005DEFFFFFFFFFFFFF9AD68729A50043B879
:1021600022F823E065F8E8F807C983484200A30095
:1021700084006329A27A62B3A2CB62D302BB828AB3
:102180008339A400E500E500E508C46064D844F89C
:1021900024F823F802F88388DBC6FFFFFFFFFFFF68
:1021A0005DEFFFFFFFFFFFFFFFFF3DE7505B0831E3
:1021B00023E843F844F065F809F9ABF989D10689B9
:1021C000A3484218020042006100820062006200DF
:1021D0008300A320C450A58885D865F844F844F846
:1021E00023F823F803D08210C7295DEFFFFFFFFF1C
:1021F0005DEFFFFFFFFFFFFFFFFFFFFFFFFF6C3201
:10220000A53802D823F865F866F8A7F84AF90CFA59
:102210004DFA4CEA0BD2A9B968B147A927B107B961
:1022200007D1E7E8C7F8A7F865F865F844F823F898
:1022300003F802D0A3280509C408EC5AFFFFFFFFEA
:102240005DEFFFFFFFFFFFFFFFFFFFFFFBDE051955
:10225000C400A741E6C003F886F8A7F887F886F817
:10226000C7F829F98AF9ABF9ABF98BF96AF929F9B9
:1022700008F9C7F8A6F886F865F864F823F802F0BC
:1022800006B12529E400E41025192519149DFFFF46
:102290005DEFFFFFFFFFFFFFFFFFFFFF96AD620057
:1022A00082083595BACE8BA244D025F887F8A7F8D6
:1022B000C7F8A7F887F886F886F886F887F8A7F8A9
:1022C000A7F8A6F885F865F864F824F064B80D93CB
:1022D000BBB6CF6383080411E4106621493A5DEF71
:1022E0005DEFFFFFFFFFFFFFFFFFFFFFD394420003
:1022F000E410BBCEFFFFBEE776B5CCAA07C145E030
:1023000045F846F866F886F886F886F886F865F89F
:1023100045F865F865E844D043A8018882903CD729
:10232000FFEF559583080411041105194619B3945C
:102330005DEFFFFFFFFFFFFFFFFFFFFFB3944100D3
:1023400086215DDFFFFFFFFFFFFFDFE77AC6D3B423
:102350004EB32AC268D1E6E0A6E8A5E8A5E8E6D82B
:1023600088C906A922A802A800A000C800D8F7E5DD
:10237000FFE7F8ADC410E4100411E41005118B4A16
:102380005DEFFFFFFFFFFFFFFFFFFFFF55A54100D0
:10239000A7295DDFFFF7FFFFFFFFFFFFFFFFFFFF45
:1023A000FFEF7DDFDBCE59CEF8CDD7CDF7C579CEA7
:1023B000FBBEABA203F045F842D043E800F072D474
:1023C000FFDF39AEE410E4100411E4100511872991
:1023D0005DEFFFFFFFFFFFFFFFFFFFFF59CE830809
:1023E00046211CD7FFF7FFFFFFFFFFFFFFFFFFFFA7
:1023F000FFFFFFFFFFFFFFFFFFFFFFFFFFFFFFFFED
:10240000FFEF8BBA04F845F862E044F000F88EDB89
:10241000FFDFF8A5C410E410E4100411E41025193E
:102420005DEFFFFFFFFFFFFFFFFFFFFFBEF7872905
:10243000830839B6FFF7DFF7FFFFFFFFFFFFFFFF5E
:10244000FFFFFFFFFFFFFFFFFFFFFFFFFFFFFFFF9C
:10245000BEE74ABA03F845F864F844F800F86EE3BA
:10246000FFD7F48C83080411E410E410E41005197C
:102470005DEFFFFFFFFFFFFFFFFFFFFFFFFFEF73BA
:1024800000007284FFEFBEEFDFFFFFFFFFFFFFFFE3
:10249000FFFFFFFFFFFFFFFFFFFFFFFFFFFFFFFF4C
:1024A000DFE78BBA03F845F845F823F800F8D3D4F2
:1024B000FFD74E5B2100293A55A58308C410251982
:1024C0005DEFFFFFFFFFFFFFFFFFFFFFFFFFFBDEF3
:1024D000A308E8319EDF9EE7BFEFFFFFFFFFFFFF8E
:1024E000FFFFFFFFFFFFFFFFFFFFFFFFFFFFFFFFFC
:1024F000FFF751BC02E003F803F043E0ECC27ECFEB
:10250000FCBE46212100D394FFFF5184000087299F
:102510005DEFFFFFFFFFFFFFFFFFFFFFFFFFFFFF7D
:1025200051840000F48CFFEF9EE7BFEFDFFFFFFF59
:10253000FFFFFFFFFFFFFFFFFFFFFFFFFFFFFFFFAB
:10254000FFFF3DDF55BD52BC72BCB7B55DC7FFDFB5
:10255000F06B0000093ABFF7FFFFFFFF149D55A580
:102560005DEFFFFFFFFFFFFFFFFFFFFFFFFFFFFF2D
:10257000FFFFAC4AA408BBBEDFE77EE7BEEFDFF794
:10258000DFFFFFFFFFFFFFFFFFFFFFFFFFFFFFFF7B
:10259000DFFFDFF7FFEFDFDFBFD79ED7DFDFD8A595
:1025A00083082611DBD6FFFFFFFFFFFFFFFFFFFFC2
:1025B0005DEFFFFFFFFFFFFFFFFFFFFFFFFFFFFFDD
:1025C00079EE8BDC2131A9213DCFBFDF7EDF9EE795
:1025D000BEEFBFEFDFF7DFF7DFF7DFF7DFF7BFEFC4
:1025E000BEEF9EE77EDF5ED75ED7DFDF9AB62619A5
:1025F0004208EDA3BFFFFFFFFFFFFFFFFFFFFFFF4D
:102600005DEFFFFFFFFFFFFFFFFFFFFFFFFF74DD39
:10261000C0DB00FE42EE024289217BB6DFDF7ED7BF
:102620007EDF7EDF9EE79EE79EE79EE79EE77EDFFA
:102630007EDF5DD75DD79EDFFFE7F8A50711E318C2
:1026400002C560FDE6D3DBEEFFFFFFFFFFFFFFFFEC
:102650005DEFFFFFFFFFFFFFFFFFFFFF9EF784BA65
:10266000C1FC42FE82FEA2FE8183452174745EC7D6
:10267000DFDF7ED75ED75DD75ED75ED75DD75DD70C
:102680005ED79EDFFFE73DC7F1638408425226E62E
:1026900029FF86FEE0F36AC3FFFFFFFFFFFFFFFF96
:1026A0005DEFFFFFFFFFFFFFFFFFFFFF18DEC1D25F
:1026B000A2FD22FE42FE42FE62FEE2D4416A49428F
:1026C00053743BA63EC7BFD7BFD7BFD7BFDFBFD767
:1026D0003EC71AA6F263A729824122B462FE83FE96
:1026E000AAFE0FFF67FD63BA3CEFFFFFFFFFFFFF8E
:1026F0005DEFFFFFFFFFFFFFFFFFFFFF9AE680D2C6
:1027000021FDC2FDE2F5C2F582F582FD62FD61DCCC
:10271000219B846AE96A2C63AF6311746E632C6336
:10272000895A0452817AC2CBE2FC62FD82FDC2FD6D
:10273000C2FDE4FD24FD62CA1CE7FFFFFFFFFFFFAF
:102740005DEFFFFFFFFFFFFFFFFFFFFFFFFFB1CCCC
:1027500081D2C0F3C1FC02FD02FDE2FCC2FCC2FC5E
:1027600081FC80FBC0C9A48135AD59CE719C21810B
:1027700000DAA1FB82FCA2FC82FCA2FC02FD22FD8D
:10278000E2FC00FC60DA90CCFFFFFFFFFFFFFFFFE1
:102790005DEFFFFFFFFFFFFFFFFFFFFFFFFFFFFFFB
:1027A00059DE0DC406CBE4D203DB03DBE3DAC3D28C
:1027B000A4C209B3D2BC9EF7FFFFFFFFFFFFFBE6F9
:1027C0000EB4A6BA83D2E3E202EB22EB22E303DBF0
:1027D000E4D26AC3B6D5FFFFFFFFFFFFFFFFFFFF95
:1027E000FF1AEBFF1AF6FF1B02FF1B0F0000000091
:1027F00000000000000000000000000000000000D9
:0A28000000000000000000000000CE
:105B52004A006DF80007E0001FFFE0F81F50005DEB
:105B6200F800F81F07E001CF001F0000841F0000AB
:1050D600900021EBF0A3EAF0A3E9F074FFFFFE12C3
:1050E600587790007BE0FAA3E0FB90002FE4F0A352
:1050F6007414F0A3E4F0A3741FF0E4FDFCFFFE12A9
:105106004DF990007DE0FEA3E0FF24ECFDEE34FFB8
:10511600FC90007BE0FAA3E0FB90002FEEF0A3EFFB
:10512600F0A3E4F0A3741FF0E4FFFE124DF974FF40
:10513600900077F0A3F090002AE4F0A3741FF0909B
:105146000021E0F9A3E0FAA3E090002CC9F0A3EA5D
:10515600F0A3E9F0A37410F0A37401F074FFFBFA56
:105166007D027C00E4FFFE1256CF90007EE024EE26
:10517600FD90007DE034FFFC90002AE4F0A3741F4C
:10518600F0A374FFF0A37418F0A374D0F0A3741006
:0F519600F0A37401F074FFFBFAE4FFFE0256CFA2
:10533E007BFF7A1879E11250D690002AE4F0A3741C
:10534E001FF0A374FFF0A37418F0A374F4F0A37409
:10535E0010F0A37401F07B007AF87D1E7C00E4FF50
:10536E00FE1256CF90002AE4F0A3741FF0A374FF30
:10537E00F0A37418F0A374FDF0A37410F0A37401DD
:10538E00F07B007AF87D3C7C00E4FFFE1256CF9055
:10539E00002AE4F0A3741FF0A374FFF0A37419F0B5
:1053AE00A3740DF0A37410F0A37401F07B1F7AF8B0
:1053BE007D5A7C00E4FFFE1256CF90002AE4F0A343
:1053CE00741FF0A374FFF0A37419F0A37423F0A359
:1053DE007410F0A37401F07B1F7A007D787C00E4DA
:1053EE00FFFE1256CF7FDC7E05125CB57FDC7E059C
:0353FE00025CB599
:10006E0090007BE0FAA3E0FBA3E0FFA3E090002F5B
:10007E00CFF0A3EFF074FFA3F0A3F0E4FDFCFFFEBE
:10008E00124DF990003774FFF0A374E0F0A374FFE3
:10009E00F0A37419F0A37431F0A37410F0A37401DB
:1000AE00F07B1F7A007D1E7C007F147E001233EBE6
:1000BE007F207E03125CB590007BE0FAA3E0FBA3E9
:1000CE00E0FFA3E090002FCFF0A3EFF0A374F8F0C1
:1000DE00A3E4F0FDFCFFFE124DF990003774FFF023
:1000EE00A374E0F0A374FFF0A37419F0A37439F0B5
:1000FE00A37410F0A37401F07B1F7A007D1E7C00A8
:10010E007F147E001233EB7F207E03125CB59000CD
:10011E007BE0FAA3E0FBA3E0FFA3E090002FCFF07B
:10012E00A3EFF0A37407F0A374E0F0E4FDFCFFFE70
:10013E00124DF990003774FFF0A374E0F0A374FF32
:10014E00F0A37419F0A3743EF0A37410F0A374011D
:10015E00F07B1F7A007D1E7C007F147E001233EB35
:10016E007F207E03125CB590007BE0FAA3E0FBA338
:10017E00E0FFA3E090002FCFF0A3EFF0A3E4F0A3F5
:10018E00741FF0E4FDFCFFFE124DF990003774FF72
:10019E00F0A374E0F0A374FFF0A37419F0A37445F8
:1001AE00F0A37410F0A37401F07B007AF87D1E7C2E
:0F01BE00007F147E001233EB7F207E03025CB5BE
:10420B00E4900000F07BFF7A19794B1250D69000A6
:10421B007BE0FAA3E0FB90007EE024ECFE90007DB7
:10422B00E034FF90002FF0A3CEF074FFA3F0A3F0C7
:10423B007D147C00E4FFFE124DF9E4900000F09039
:10424B000000E0C39405748094804003024304E0B3
:10425B00FD25E0246DF582E43400F583E0FFA3E057
:10426B00900077CFF0A3EFF090007BE0C313FEA399
:10427B00E01324B0FBEE34FFFAED75F00FA4FDACA8
:10428B00F02BFFEC3AFEC006C007A3E0C313FEA35E
:10429B00E01324B0FFEE34FFCF2DFDEF3CFCC00448
:1042AB00C00590007BE0C313FCA3E013FD9000005E
:1042BB00E0F975F00FA42DFFE5F03CCF24ECFBEFFC
:1042CB0034FFFA90007DE0C313FCA3E013FDE97506
:1042DB00F00FA42DFFE5F03CCF24ECCF34FF900082
:1042EB0007F0A3EFF0D005D004D007D00612557C11
:1042FB00900000E004F002424A7FDC7E05125CB5C0
:10430B0090007CE024FFFB90007BE034FFFA9000F0
:10431B007EE024ECFE90007DE034FF90002FF0A3B4
:10432B00CEF074FFA3F0A3F07D147C00E4FFFE122B
:10433B004DF9E4900000F0900000E0C39405748008
:10434B00948040030243FCE0FD25E0246DF582E4FC
:10435B003400F583E0FFA3E0900077CFF0A3EFF0FC
:10436B0090007BE0C313FEA3E01324B0FBEE34FFFD
:10437B00FAED75F00FA4FDACF02BFFEC3AFEC00686
:10438B00C007A3E0C313FEA3E01324B0FFEE34FF7A
:10439B00CF2DFDEF3CFCC004C00590007BE0C313A8
:1043AB00FCA3E013FD900000E0F975F00FA42DFFC6
:1043BB00E5F03CCF24ECFBEF34FFFA90007DE0C33B
:1043CB0013FCA3E013FDE975F00FA42DFFE5F03C02
:1043DB00CF24ECCF34FF900027F0A3EFF0D005D023
:1043EB0004D007D006125C1A900000E004F00243E0
:0843FB00427FDC7E05025CB587
:104B1500E4900000F07BFF7A1979611250D690007D
:104B25007BE0FAA3E0FB90007EE024ECFE90007DA4
:104B3500E034FF90002FF0A3CEF074FFA3F0A3F0B4
:104B45007D147C00E4FFFE124DF9E4900000F09026
:104B55000000E0C3940574809480506A90007BE067
:104B6500C313FEA3E01324B0FDEE34FFFC90000058
:104B7500E0F975F019A4FBAAF02DFFEA3CFEC0068A
:104B8500C00790007DE0C313FEA3E01324CEFFEE23
:104B950034FFCF2BFDEF3AFCE925E0246DF582E4E7
:104BA5003400F583E0FAA3E0FB900007E4F0A3747A
:104BB5001EF0E4A3F0A3F0D007D006124403900042
:104BC50000E004F080897FDC7E05125CB590007CF6
:104BD500E024FFFB90007BE034FFFA90007EE024A8
:104BE500ECFE90007DE034FF90002FF0A3CEF07432
:104BF500FFA3F0A3F07D147C00E4FFFE124DF9E461
:104C0500900000F0900000E0C394057480948050FB
:104C15006B90007BE0C313FEA3E01324B0FDEE34DC
:104C2500FFFC900000E0F975F019A4FBAAF02DFF38
:104C3500EA3CFEC006C00790007DE0C313FEA3E07A
:104C45001324CEFFEE34FFCF2BFDEF3AFCE925E030
:104C5500246DF582E43400F583E0FAA3E0FB9000CF
:104C650007E4F0A3741EF0A3E4F0A304F0D007D08A
:104C750006124403900000E004F080887FDC7E0586
:034C8500025CB519
:10368200E4900000F07BFF7A1979771250D690000F
:103692007BE0FAA3E0FB90007EE024ECFE90007D4C
:1036A200E034FF90002FF0A3CEF074FFA3F0A3F05C
:1036B2007D147C00E4FFFE124DF9E4900000F090CE
:1036C2000000E0F9C394057480948040030237C679
:1036D200E925E0246DF582E43400F583E0FFA3E000
:1036E200900077CFF0A3EFF090007BE0C313FAA332
:1036F200E013FB24B0FDEA34FFFCE975F014A42DBD
:10370200FFE5F03CFEC006C007A3E0C313FEA3E042
:103712001324ECFDEE34FFFCE975F00FA42DFDE55A
:10372200F03CFCC004C005EB24CDFDEA34FFFCE90B
:1037320075F014A42DFBE5F03CFAC002C003900022
:103742007DE0C313FEA3E01324B7FDEE34FFFCE9D2
:1037520075F00FA42DFDE5F03CFCC005C0049000FF
:103762007BE0C313FEA3E01324EBFDEE34FFFCE980
:1037720075F014A42DFDE5F03CFCA3E0C313FEA3F9
:10378200E01324ECFBEE34FFFAE975F00FA42BFEF4
:10379200E5F03A90000BF0A3CEF0900009ECF0A314
:1037A200EDF0900007D0E0F0A3D0E0F0D003D0021B
:1037B200D005D004D007D0061258F8900000E004DB
:1037C200F00236C17FDC7E05125CB590007CE024FD
:1037D200FFFB90007BE034FFFA90007EE024ECFED9
:1037E20090007DE034FF90002FF0A3CEF074FFA391
:1037F200F0A3F07D147C00E4FFFE124DF9E490008A
:1038020000F0900000E0F9C39405748094804003B6
:10381200023909E925E0246DF582E43400F583E0FC
:10382200FFA3E0900077CFF0A3EFF090007BE0C31E
:1038320013FAA3E013FB24B0FDEA34FFFCE975F0B0
:1038420014A42DFFE5F03CFEC006C007A3E0C3139D
:10385200FEA3E01324ECFDEE34FFFCE975F00FA4A7
:103862002DFDE5F03CFCC004C005EB24CDFDEA349F
:10387200FFFCE975F014A42DFBE5F03CFAC002C090
:103882000390007DE0C313FEA3E01324B7FDEE34E2
:10389200FFFCE975F00FA42DFDE5F03CFCC005C06E
:1038A2000490007BE0C313FEA3E01324EBFDEE348F
:1038B200FFFCE975F014A42DFDE5F03CFCA3E0C388
:1038C20013FEA3E01324ECFBEE34FFFAE975F00FCC
:1038D200A42BFEE5F03A90000BF0A3CEF090000985
:1038E200ECF0A3EDF0900007D0E0F0A3D0E0F0D030
:1038F20003D002D005D004D007D00612280A9000C7
:0E39020000E004F00238047FDC7E05025CB5B4
:1051A5007BFF7A1979921250D690007774F8F0A3A4
:1051B500E4F0900079F0A3741FF090000574FFF0FF
:1051C500A37419F0A374A5F0E4A3F07B0C7D1EFC79
:1051D5007F0AFE12540190000574FFF0A37419F0C4
:1051E500A374C5F0A37401F07B0C7D2D7C007F0AB0
:1051F5007E0012540190000574FFF0A37419F0A30A
:1052050074E5F0E4A3F07B0C7D3CFC7F0AFE1254B0
:105215000190000574FFF0A3741AF0A37403F0E481
:10522500A3F07B107D50FC7F0AFE1254019000050F
:1052350074FFF0A3741AF0A37423F0A37401F07B38
:10524500107D647C007F0A7E001254019000057475
:10525500FFF0A3741AF0A37443F0E4A3F07B107D70
:0F52650078FC7F0AFE1254017FDC7E05025CB5E7
:1054C0007BFF7A1A79611250D690003774FFF0A3EF
:1054D00074E0F0A374FFF0A3741AF0A37474F0A343
:1054E0007410F0E4A3F07B1FFA7D1EFC7F0AFE120D
:1054F00033EB90003774FFF0A374E0F0A374FFF077
:10550000A3741AF0A37499F0A37410F0E4A3F07BD1
:105510001FFA7D32FC7F0AFE1233EB90003774FFD6
:10552000F0A374E0F0A374FFF0A3741AF0A374AFB7
:10553000F0A37418F0A37401F07B1F7A007D467C01
:10554000007F0A7E001233EB90003774FFF0A374E3
:10555000E0F0A374FFF0A3741AF0A374C6F0A37470
:1055600020F0A37401F07B1F7A007D647C007F0A29
:0C5570007E001233EB7FDC7E05025CB590
:105274007BFF7A1A79D51250D67BFF7A1B79607D31
:105284001E7C007F1E7E0012500390003774FFF0D6
:10529400A374E0F0A374FFF0A3741AF0A374E8F00D
:1052A400A37410F0A37401F07B1F7A007D4B7C0083
:1052B4007F2A7E001233EB7BFF7A1B79607D1E7C94
:1052C400007F5A7E0012500390003774FFF0A374DD
:1052D400E0F0A374FFF0A3741AF0A374E8F0A374CD
:1052E40010F0A37401F07B1F7A007D4B7C007F6675
:1052F4007E001233EB7BFF7A1B79607D1E7C007F7E
:10530400967E0012500390003774FFF0A374E0F00F
:10531400A374FFF0A3741AF0A374E8F0A37410F05C
:10532400A37401F07B1F7A007D4B7C007FA27E007A
:0A5334001233EB7FDC7E05025CB54E
:10562600E4900000F078017C007D017BFF7A277909
:10563600E0FE7F0C122DD4E4900000F0900000E014
:10564600FFC3940474809480507A1257ED7BFF7ADE
:105656001B791C1250D6900000E075F003A42401BB
:10566600F582E43400F583E0F9A3E0FAA3E09000C4
:1056760039C9F0A3EAF0A3E9F090003774FFF0A36C
:1056860074E0F090003C7410F0A37401F07B1F7A74
:10569600007D1E7C007F147E001233EB7BFF7A1B9D
:1056A60079607D327C007F1E7E001250037FE87E8B
:1056B60003125CB57FE87E03125CB5900000E0043F
:0956C600F00256427F030257ED89
:1049920078027C007D017BFF7A2779EC7E007F0A1A
:1049A200122DD4780D7C007D017BFF7A2779F67E6B
:1049B200007F14122DD47BFF7A1B792F1250D690D0
:1049C200007BE0FAA3E0FB90007EE024ECFE900086
:1049D2007DE034FF90002FF0A3CEF074FFA3F0A38C
:1049E200F07D147C00E4FFFE124DF9125ABC9000D7
:1049F2002474FFF0A3741BF0A37446F0A3EEF0A39B
:104A0200EFF07B017A0079021230EB90003774FFED
:104A1200F0A374E0F0A37401F0A37400F0A3740295
:104A2200F0A37410F0A37401F07B1F7A007D197C4F
:104A3200007F327E001233EBE490000CF090000C09
:104A4200E0FFC39407748094804003024B0EEF256D
:104A5200E0245DF582E43400F583E0FDA3E09000FC
:104A620077CDF0A3EDF0EF75F019A4FFAEF0242D91
:104A7200FDE43EFCEF2441FFE43E900027F0A3EF6B
:104A8200F07B327A007F1E7E00125C1A90000CE0EE
:104A920075F019A42437FDE435F0FC7F287E00125E
:104AA2005A4E900000EEF0A3EFF090002474FFF055
:104AB200A3741BF0A3744EF0A3EEF0A3EFF07B01FE
:104AC2007A00790D1230EB90000CE075F019A424F5
:104AD2002FFDE435F0FC90003774FFF0A374E0F092
:104AE200A37401F0A37400F0A3740DF0A37410F08A
:104AF200A37401F0900077E0FAA3E0FB7F3C7E0014
:104B02001233EB90000CE004F0024A3F7FDC7E059A
:034B1200025CB58D
:0301D30002006BBC
:0301DB0002006BB4
:105CB5007D607C09ED1D70011C144C70F7EF1F70A1
:065CC500011E144E70EAFE
:015CCB0022B6
:105BF400E4FDFCC3ED9FEE6480F8EC6480985015DE
:105C0400E4FBFA0BBB00010AEB64014A70F50DBD1D
:055C140000010C80DE20
:015C19002268
:0300000002576143
:0C576100787FE4F6D8FD7581210257A87E
:0401CD00000000002E
:0A5B72004200770000420079FFFFB7
:10005A0090FE54EFF0C2B490FE527484F030B4FDB6
:01006A002273
:055CCC0012005AE4FF84
:105CD10090FE54EFF0C2B490FE527485F030B4FDE2
:015CE10022A0
:105D2000C2B490FE527487F030B4FD90FE54E0FF90
:025D30007E00F3
:015D3200224E
:0E5D3300AD07AC06ECFF125CD1AF05025CD1EF
:105C3F00AA07ED54FC75F008A4FDEA54F845F0FEF0
:0F5C4F00EDFFEB54F8131313541FFDEF4DFF221D
:105B2300C2B4125D20AD07AC06125D20AC06AD0712
:105B3300125D20900023EEF0A3EFF0125D20AB077F
:0F5B4300AA06D2B4AF05900023A3E0FD025C3F99
:085D530012005AAF05025CD1F9
:105A8600900027EBF0A3EAF0A3E9F012005A900089
:105A96002A74FFF5F0122E7A45F06019125D2090F7
:105AA6000027E0FBA3E475F001122E7AA9F0FAEFC5
:065AB600122E4080D922EF
:095D4100900082A3E0FF02005A69
:095D4A00900084A3E0FF02005A5E
:08587700900024EEF0A3EFF015
:10587F0090007CE024FFFB90007BE034FFFA900067
:10588F007EE024FFFE90007DE034FF90005BF0A3EC
:10589F00CEF0E4FDFCFFFE12596EE4900026F0A35B
:1058AF00F090007BE0FEA3E0FFC3900027E09F9005
:1058BF000026E09E5032E4FBFAD390007EE09B90EE
:1058CF00007DE09A4012900024E0FEA3E0FF125DFD
:1058DF00330BBB00010A80E1900027E004F070C198
:0858EF00900026E004F080B9EE
:0158F700228E
:105B7D00AB07AA068D828C83C006C007AE83AF82A9
:105B8D0090005BEEF0A3EFF0D007D00612596E90A7
:0A5B9D000077E0FEA3E0FF025D3395
:085A4E00900021EEF0A3EFF03F
:105A5600D390007CE09F90007BE09E400DD39000A9
:105A66007EE09D90007DE09C5004E4FEFF229000C5
:0F5A760021E0FEA3E0FF125C7D125D4A125B236C
:015A850022FE
:105C5E0075CCFFE4F5CBF594759330F592759130D4
:0F5C6E00F596F59575B210F5B175B43CF5B32206
:105CE20075BA8090FE507484F0A37409F090FE534C
:055CF200E4F0D2AF2236
:105C9C007F327E00125CB5C2C37F327E00125CB5CF
:095CAC00D2C37F327E00025CB518
:1047E400125C5E125CE2125C9C7FCF125CCC7FD9BF
:1047F400125CD17F30125CD17FED12005A7F6412BB
:104804005CD17F03125CD17F12125CD17F81125C78
:10481400D17FE812005A7F85125CD17F10125CD1DF
:104824007F7A125CD17FCB12005A7F39125CD17F20
:104834002C125CD1E4FF125CD17F34125CD17F0274
:10484400125CD17FF712005A7F20125CD17FEA12EA
:104854005CCC125CD17FC012005A7F1B125CD17FEA
:10486400C112005A7F12125CD17FC512005A7F0810
:10487400125CD17F26125CD17FC712005A7FB71217
:104884005CD17F3612005A7F08125CD17F3A120045
:104894005A7F55125CD17FB1125CCC7F1A125CD165
:1048A4007FB612005A7F0A125CD17FA2125CD17FBC
:1048B400F2125CCC7F2612005A7F01125CD17FE099
:1048C40012005A7F0F125CD17F1D125CD17F1A1225
:1048D4005CD17F0A125CD17F0D125CD17F07125C20
:1048E400D17F49125CD17F66125CD17F3B125CD1CF
:1048F4007F07125CD17F11125CD17F01125CD17FE2
:1049040009125CD17F05125CD11F125CD17FE112C8
:104914005CCC7F18125CD17F1D125CD17F02125CCB
:10492400D17F0F125CD17F04125CD17F36125CD12F
:104934007F13125CD17F4C125CD17F07125CD17F54
:1049440013125CD17F0F125CD17F2E125CD10F1237
:104954005CD17F05125CD17F2B125CCC125CD10F31
:10496400125CD17F3F125CD17F2A125CCC125CD1E5
:10497400125CD17FEF125CD17F1112005A7F787ED6
:0E49840000125CB57F2912005A7F030257ED26
:10596E00900055EEF0A3EFF0900086A3E0FF12003A
:10597E005A900055E0FF125CD1900055A3E0FF1243
:10598E005CD1EAFF125CD1AF03125CD1900088A308
:10599E00E0FF12005AECFF125CD1AF05125CD19001
:1059AE00005BE0FF125CD190005BA3E0FF125CD1C4
:0359BE00025D4146
:105C7D00AB07AA068D828C83C006C007AE83AF82A8
:0F5C8D0090005BEEF0A3EFF0D007D00602596E47
:1057ED00900086E4F0A3742AF0A3E4F0A3742BF0E8
:1057FD00900082E4F0A3742CF0A3E4F0A3742EF0D7
:10580D00EF14601F1460311460432403705B90002B
:10581D007BE4F0A374F0F0A37401F0A37440F07D69
:10582D0008803D90007B7401F0A37440F0A3E4F078
:10583D00A374F0F07DB8802890007BE4F0A374F0A1
:10584D00F0A37401F0A37440F07DD8801390007B19
:10585D007401F0A37440F0A3E4F0A374F0F07D683C
:0A586D007C007F367E00125D53229E
:105ABC0078217C007D017BFF7A0179CD7E007F040B
:105ACC00122DD47B017A00792190002AE4F0A37482
:105ADC0004F07FD37E00125A86900023E0FEA3E0F0
:035AEC00FDEDFFCE
:015AEF002294
:03006B00025D0C27
:105D0C00C0E0C083C08290FE53E4F0D2B4D082D005
:045D1C0083D0E0321E
:10576D00025BCEE493A3F8E493A34003F68001F229
:10577D0008DFF48029E493A3F85407240CC8C3333D
:10578D00C4540F4420C8834004F456800146F6DF0C
:10579D00E4800B0102040810204080905B52E47EEF
:1057AD00019360BCA3FF543F30E509541FFEE49301
:1057BD00A360010ECF54C025E060A840B8E493A3C8
:1057CD00FAE493A3F8E493A3C8C582C8CAC583CAF3
:1057DD00F0A3C8C582C8CAC583CADFE9DEE780BEAB
:015B7C000028
:102D0400E709F608DFFA8046E709F208DFFA803EB1
:102D140088828C83E709F0A3DFFA8032E309F6089E
:102D2400DFFA8078E309F208DFFA807088828C8306
:102D3400E309F0A3DFFA806489828A83E0A3F608BA
:102D4400DFFA805889828A83E0A3F208DFFA804C94
:102D540080D280FA80C680D4806980F2803380106B
:102D640080A680EA809A80A880DA80E280CA8033D4
:102D740089828A83ECFAE493A3C8C582C8CCC5834C
:102D8400CCF0A3C8C582C8CCC583CCDFE9DEE7801C
:102D94000D89828A83E493A3F608DFF9ECFAA9F09B
:102DA400EDFB2289828A83ECFAE0A3C8C582C8CCF1
:102DB400C583CCF0A3C8C582C8CCC583CCDFEADE0A
:102DC400E880DB89828A83E493A3F208DFF980CC6C
:102DD40088F0EF60010E4E60C388F0ED2402B40465
:102DE4000050B9F582EB2402B4040050AF2323450C
:062DF4008223902D5473B0
:102DFA00BB010689828A83E0225002E722BBFE02D7
:092E0A00E32289828A83E4932209
:102E1300BB010CE58229F582E5833AF583E0225074
:102E230006E92582F8E622BBFE06E92582F8E222BE
:0D2E3300E58229F582E5833AF583E49322D8
:102E4000BB010689828A83F0225002F722BBFE0171
:022E5000F3226B
:102E5200EF8DF0A4A8F0CF8CF0A428CE8DF0A42E94
:022E6200FE224E
:102E6400C5F0F8A3E028F0C5F0F8E58215827002F9
:062E74001583E038F02296
:102E7A00A3F8E0C5F025F0F0E5821582700215830B
:062E8A00E0C838F0E82268
:102E9000BB010A89828A83E0F5F0A3E0225006870D
:102EA000F009E71922BBFE07E3F5F009E3192289CF
:0B2EB000828A83E493F5F07401932202
:102EBB00BB010A89828A83F0E5F0A3F0225006F762
:0F2ECB0009A7F01922BBFE06F3E5F009F319225F
:102EDA00E88FF0A4CC8BF0A42CFCE98EF0A42CFC97
:102EEA008AF0EDA42CFCEA8EF0A4CDA8F08BF0A415
:102EFA002DCC3825F0FDE98FF0A42CCD35F0FCEB74
:102F0A008EF0A4FEA9F0EB8FF0A4CFC5F02ECD3938
:0F2F1A00FEE43CFCEAA42DCE35F0FDE43CFC22A5
:102F290075F008758200EF2FFFEE33FECD33CDCC5F
:102F390033CCC58233C5829BED9AEC99E5829840E2
:102F49000CF582EE9BFEED9AFDEC99FC0FD5F0D6BF
:102F5900E4CEFBE4CDFAE4CCF9A88222B800C1B9E9
:102F69000059BA002DEC8BF084CFCECDFCE5F0CB27
:102F7900F97818EF2FFFEE33FEED33FDEC33FCEB60
:102F890033FB10D703994004EB99FB0FD8E5E4F91B
:102F9900FA227818EF2FFFEE33FEED33FDEC33FC08
:102FA900C933C910D7059BE99A4007EC9BFCE99AFC
:102FB900F90FD8E0E4C9FAE4CCFB2275F010EF2F41
:102FC900FFEE33FEED33FDCC33CCC833C810D70741
:102FD9009BEC9AE899400AED9BFDEC9AFCE899F87C
:0E2FE9000FD5F0DAE4CDFBE4CCFAE4C8F9220F
:105A0A00C2D5E830E70FB2D5E4C39BFBE49AFAE4C7
:105A1A0099F9E498F8EC30E717B2D5125A40122FE8
:105A2A0065E4C39BFBE49AFAE499F9E498F88003E5
:105A3A00122F6530D50DE4C39FFFE49EFEE49DFD61
:045A4A00E49CFC22BA
:0C2FF700ECF0A3EDF0A3EEF0A3EFF0224D
:10300300A8828583F0D083D08212301A12301A122C
:10301300301A12301AE473E493A3C583C5F0C58351
:10302300C8C582C8F0A3C583C5F0C583C8C582C817
:01303300227A
:0C303400A42582F582E5F03583F58322A7
:10308600E5082424F582E43400F583E0050822905F
:103096000021300703900024E475F001123040024D
:1030A6002DFA2000E97F2ED2008018EF540F2490CD
:1030B600D43440D4FF30040BEF24BFB41A005003BD
:1030C6002461FFE50960021509050CE50C7002058F
:1030D6000B30070E900021E475F001123040EF022C
