:1000030043BA80759330759430759130759230751D
:10001300953C75963C75B15075B25075B33C75B44B
:100023003C75C90C75CA0CE4F5CB75CCFFF5E1F54D
:10003300E2C2C0C2E87FFA120080D2E8C2E97FFAC6
:10004300120080D2E9C2EA7FFA120080D2EAC2EB40
:100053007FFA120080D2EBC2EC7FFA120080D2EC5E
:10006300C2ED7FFA120080D2EDC2EE7FFA12008059
:0D007300D2EEC2EF7FFA120080D2EF80B60D
:0F0080007D607C09ED1D70011C144C70F7DFF1E1
:01008F00224E
:030000000200906B
:0C009000787FE4F6D8FD758107020003BC
:00000001FF
